:020000040800F2
:10C0000000E401204D470108454501084745010866
:10C010004F45010857450108594501080000000037
:10C0200000000000000000000000000001390108CD
:10C030005B45010800000000A139010855350108E1
:10C040009D4701089D4701089D4701089D4701083C
:10C050009D4701089D4701089D4701089D4701082C
:10C060009D4701089D4701089D4701089D4701081C
:10C070005D4501086D4501089D4701089D47010880
:10C080009D4701089D4701089D47010800000000E9
:10C090000000000000000000000000007D450108D5
:10C0A0009D470108894501089D4701089D470108F2
:10C0B0009D4701089D4701089D4701089D470108CC
:10C0C0009D4701089D4701089D4701089D470108BC
:10C0D0009D47010879E001089D4701080000000024
:10C0E0009D4701089D4701089D4701080000000089
:10C0F0000000000000000000000000009D47010853
:10C10000000000009D4701089D4701089D47010868
:10C11000000000000000000000000000000000001F
:10C120009D4701089D470108994501089D47010861
:10C130009D47010800000000000000000000000012
:10C140000000000000000000000000009D47010802
:10C15000A94501089D4701089D4701089D47010821
:10C160009D4701089D4701080000000000000000F5
:10C1700000000000000000000000000000000000BF
:10C18000000000009D4701080000000000000000C2
:08C190009D4701089D470108CD
:10C1A00010B5054C237833B9044B13B10448AFF3F1
:10C1B00000800123237010BDA008002000000000B3
:10C1C0004CCF050808B5034B1BB103490348AFF337
:10C1D000008008BD00000000A40800204CCF050826
:10C1E000F0B400EB4003DFF8880000EBC30000F17F
:10C1F00018063069F7687568874232D3B368DC1B6C
:10C20000631E934214D37D19D01900BF11F8013B6E
:10C2100005F8013B013A05D011F8013B05F8013B57
:10C22000013AF3D1BFF35F8FF0600120F0BC70479B
:10C23000C018904219D37819121B11F8013B00F86D
:10C24000013B013CF9D1141C05D011F8013B05F864
:10C25000013B013AF9D1BFF35F8FF4600120F0BCDC
:10C260007047C01B01389042CDD20020F0BC70470F
:10C2700000E4012010F8012B11F8013B012A28BF2E
:10C280009A42F7D0D01A704700000000000000006A
:10C2900001F0FF01102A2BDB10F0070F08D010F877
:10C2A000013B013A8B422DD010F0070F42B3F6D17B
:10C2B000F0B441EA012141EA014122F007047FF094
:10C2C00000070023F0E80256083C85EA010586EAEB
:10C2D000010685FA47F5A3FA87F586FA47F6A5FA27
:10C2E00087F68EB9EED1F0BC01F0FF0102F0070233
:10C2F00032B110F8013B013A83EA010313B1F8D1DE
:10C300000020704701387047002D06BF35460338BE
:10C31000073815F0010F07D1013015F4807F02BFF7
:10C32000013015F4C03F0130F0BC0138704700BF48
:10C33000034613F8012B002AFBD1181A0138704765
:10C3400081F0004102E000BF83F0004330B54FEAC6
:10C3500041044FEA430594EA050F08BF90EA020F33
:10C360001FBF54EA000C55EA020C7FEA645C7FEAC6
:10C37000655C00F0E2804FEA5454D4EB5555B8BFE9
:10C380006D420CDD2C4480EA020281EA030382EA5A
:10C39000000083EA010180EA020281EA0303362DEC
:10C3A00088BF30BD11F0004F4FEA01314FF4801CBF
:10C3B0004CEA113102D0404261EB410113F0004FD1
:10C3C0004FEA03334CEA133302D0524263EB430388
:10C3D00094EA050F00F0A780A4F10104D5F1200E26
:10C3E0000DDB02FA0EFC22FA05F2801841F1000181
:10C3F00003FA0EF2801843FA05F359410EE0A5F155
:10C4000020050EF1200E012A03FA0EFC28BF4CF085
:10C41000020C43FA05F3C01851EBE37101F000453B
:10C4200007D54FF0000EDCF1000C7EEB00006EEB48
:10C430000101B1F5801F1BD3B1F5001F0CD34908D2
:10C440005FEA30004FEA3C0C04F101044FEA445229
:10C4500012F5800F80F09A80BCF1004F08BF5FEAB0
:10C46000500C50F1000041EB045141EA050130BD90
:10C470005FEA4C0C404141EB0101013C28BFB1F5A2
:10C48000801FE9D291F0000F04BF01460020B1FAED
:10C4900081F308BF2033A3F10B03B3F120020CDAC0
:10C4A0000C3208DD02F1140CC2F10C0201FA0CF09E
:10C4B00021FA02F10CE002F11402D8BFC2F1200C03
:10C4C00001FA02F120FA0CFCDCBF41EA0C019040B9
:10C4D000E41AA2BF01EB0451294330BD6FEA040402
:10C4E0001F3C1CDA0C340EDC04F11404C4F12002ED
:10C4F00020FA04F001FA02F340EA030021FA04F3FF
:10C5000045EA030130BDC4F10C04C4F1200220FA55
:10C5100002F001FA04F340EA0300294630BD21FA93
:10C5200004F0294630BD94F0000F83F4801306BF59
:10C5300081F480110134013D4EE77FEA645C18BF4D
:10C540007FEA655C29D094EA050F08BF90EA020FE4
:10C5500005D054EA000C04BF1946104630BD91EADC
:10C56000030F1EBF0021002030BD5FEA545C05D1DF
:10C570004000494128BF41F0004130BD14F580041E
:10C580003CBF01F5801130BD01F0004545F0FE4192
:10C5900041F470014FF0000030BD7FEA645C1ABFC7
:10C5A000194610467FEA655C1CBF0B46024650EAFE
:10C5B000013406BF52EA033591EA030F41F400212A
:10C5C00030BD00BF90F0000F04BF0021704730B5B0
:10C5D0004FF4806404F132044FF000054FF0000185
:10C5E00050E700BF90F0000F04BF0021704730B546
:10C5F0004FF4806404F1320410F0004548BF40421B
:10C600004FF000013EE700BF42004FEAE2014FEA6F
:10C6100031014FEA02701FBF12F07F4393F07F4F4A
:10C6200081F06051704732F07F4208BF704793F04D
:10C630007F4F04BF41F40021704730B54FF4607460
:10C6400001F0004521F000411CE700BF50EA010263
:10C6500008BF704730B54FF000050AE050EA01020C
:10C6600008BF704730B511F0004502D5404261EB7C
:10C6700041014FF4806404F132045FEA915C3FF4BD
:10C68000D8AE4FF003025FEADC0C18BF03325FEA5A
:10C69000DC0C18BF033202EBDC02C2F1200300FA0B
:10C6A00003FC20FA02F001FA03FE40EA0E0021FA30
:10C6B00002F11444BDE600BF70B54FF0FF0C4CF41E
:10C6C000E06C1CEA11541DBF1CEA135594EA0C0FD0
:10C6D00095EA0C0F00F0DEF82C4481EA030621EA0B
:10C6E0004C5123EA4C5350EA013518BF52EA033546
:10C6F00041F4801143F4801338D0A0FB02CE4FF0F8
:10C700000005E1FB02E506F00042E0FB03E54FF027
:10C710000006E1FB03569CF0000F18BF4EF0010E1F
:10C72000A4F1FF04B6F5007F64F5407404D25FEA1B
:10C730004E0E6D4146EB060642EAC62141EA5551CE
:10C740004FEAC52040EA5E504FEACE2EB4F1FD0C10
:10C7500088BFBCF5E06F1ED8BEF1004F08BF5FEA8E
:10C76000500E50F1000041EB045170BD06F0004640
:10C7700046EA010140EA020081EA0301B4EB5C04ED
:10C78000C2BFD4EB0C0541EA045170BD41F48011E5
:10C790004FF0000E013C00F3AB8014F1360FDEBF0A
:10C7A000002001F0004170BDC4F10004203C35DAE6
:10C7B0000C341BDC04F11404C4F1200500FA05F369
:10C7C00020FA04F001FA05F240EA020001F000420A
:10C7D00021F0004110EBD37021FA04F642EB060180
:10C7E0005EEA430E08BF20EAD37070BDC4F10C04AA
:10C7F000C4F1200500FA04F320FA05F001FA04F26E
:10C8000040EA020001F0004110EBD37041F1000159
:10C810005EEA430E08BF20EAD37070BDC4F1200564
:10C8200000FA05F24EEA020E20FA04F301FA05F2CC
:10C8300043EA020321FA04F001F0004121FA04F274
:10C8400020EA020000EBD3705EEA430E08BF20EA44
:10C85000D37070BD94F0000F0FD101F0004640007E
:10C8600041EB010111F4801F08BF013CF7D041EA00
:10C87000060195F0000F18BF704703F00046520004
:10C8800043EB030313F4801F08BF013DF7D043EAD5
:10C890000603704794EA0C0F0CEA135518BF95EA8B
:10C8A0000C0F0CD050EA410618BF52EA4306D1D112
:10C8B00081EA030101F000414FF0000070BD50EA31
:10C8C000410606BF1046194652EA430619D094EABB
:10C8D0000C0F02D150EA013613D195EA0C0F05D1A5
:10C8E00052EA03361CBF104619460AD181EA0301F9
:10C8F00001F0004141F0FE4141F470014FF00000B1
:10C9000070BD41F0FE4141F4780170BD70B54FF04B
:10C91000FF0C4CF4E06C1CEA11541DBF1CEA1355CB
:10C9200094EA0C0F95EA0C0F00F0A7F8A4EB0504AD
:10C9300081EA030E52EA03354FEA013100F08880A4
:10C940004FEA03334FF0805545EA131343EA12636D
:10C950004FEA022245EA111545EA10654FEA002622
:10C960000EF000419D4208BF964244F1FD0404F5DB
:10C97000407402D25B084FEA3202B61A65EB030537
:10C980005B084FEA32024FF480104FF4002CB6EBF4
:10C99000020E75EB030E22BFB61A754640EA0C0074
:10C9A0005B084FEA3202B6EB020E75EB030E22BFB4
:10C9B000B61A754640EA5C005B084FEA3202B6EBF5
:10C9C000020E75EB030E22BFB61A754640EA9C00B4
:10C9D0005B084FEA3202B6EB020E75EB030E22BF84
:10C9E000B61A754640EADC0055EA060E18D04FEA42
:10C9F000051545EA16754FEA06164FEAC30343EAE2
:10CA000052734FEAC2025FEA1C1CC0D111F4801FAE
:10CA10000BD141EA00014FF000004FF0004CB6E7A7
:10CA200011F4801F04BF01430020B4F1FD0C88BF46
:10CA3000BCF5E06F3FF6AFAEB5EB030C04BFB6EB51
:10CA4000020C5FEA500C50F1000041EB045170BD44
:10CA50000EF0004E4EEA113114EB5C04C2BFD4EB71
:10CA60000C0541EA045170BD41F480114FF0000EF5
:10CA7000013C90E645EA060E8DE60CEA135594EA71
:10CA80000C0F08BF95EA0C0F3FF43BAF94EA0C0F74
:10CA90000AD150EA01347FF434AF95EA0C0F7FF4E9
:10CAA00025AF104619462CE795EA0C0F06D152EA3D
:10CAB00003353FF4FDAE1046194622E750EA410621
:10CAC00018BF52EA43067FF4C5AE50EA41047FF432
:10CAD0000DAF52EA43057FF4EBAE12E74FF0FF3C97
:10CAE00006E000BF4FF0010C02E000BF4FF0010C68
:10CAF0004DF804CD4FEA410C7FEA6C5C4FEA430CE1
:10CB000018BF7FEA6C5C1BD001B050EA410C0CBF2F
:10CB100052EA430C91EA030F02BF90EA020F002091
:10CB2000704710F1000F91EA030F58BF994208BFF8
:10CB300090422CBFD8176FEAE37040F001007047B5
:10CB40004FEA410C7FEA6C5C02D150EA013C07D10C
:10CB50004FEA430C7FEA6C5CD6D152EA033CD3D057
:10CB60005DF8040B704700BF8446104662468C4651
:10CB70001946634600E000BF01B5FFF7B7FF002884
:10CB800048BF10F1000F01BD4DF808EDFFF7F4FFAD
:10CB90000CBF012000205DF808FB00BF4DF808ED38
:10CBA000FFF7EAFF34BF012000205DF808FB00BF5B
:10CBB0004DF808EDFFF7E0FF94BF012000205DF87D
:10CBC00008FB00BF4DF808EDFFF7CEFF94BF012032
:10CBD00000205DF808FB00BF4DF808EDFFF7C4FF2B
:10CBE00034BF012000205DF808FB00BF4FEA410C74
:10CBF0007FEA6C5C02D150EA013C0AD14FEA430C57
:10CC00007FEA6C5C02D152EA033C02D14FF0000093
:10CC100070474FF0010070474FEA410212F50012D1
:10CC200015D211D56FF47873B3EB625212D94FEA73
:10CC3000C12343F0004343EA505311F0004F23FA5D
:10CC400002F018BF404270474FF00000704750EAB2
:10CC5000013005D111F0004008BF6FF0004070476F
:10CC60004FF00000704700BF53B94AB9002908BF10
:10CC700000281CBF4FF0FF314FF0FF3000F088B9A3
:10CC8000ADF1080C6DE904CE00F006F8DDF804E023
:10CC9000DDE9022304B070472DE9F047089D8E4678
:10CCA00004468846002B4AD18A42174662D9B2FA16
:10CCB00082F64EB1C6F1200301FA06F820FA03F31A
:10CCC000B74043EA0808B4404FEA174E1FFA87FC02
:10CCD000B8FBFEF1230C0EFB118843EA084301FB6D
:10CCE0000CF29A4209D9FB1801F1FF3080F0EA807A
:10CCF0009A4240F2E78002393B449A1AA3B2B2FB4F
:10CD0000FEF00EFB102243EA024300FB0CFC9C45A4
:10CD100009D9FB1800F1FF3280F0D6809C4540F223
:10CD2000D3803B44023840EA0140A3EB0C030021CE
:10CD30001DB1F3400022C5E90032BDE8F0878B4207
:10CD400005D90DB1C5E9000100210846F5E7B3FAA0
:10CD500083F1002946D1734502D3824200F2058156
:10CD6000841A6EEB030201209046002DE5D0C5E940
:10CD70000048E2E7002A00F09080B2FA82F6002E26
:10CD800040F0A4808A1A030C4FEA174E80B2BCB25E
:10CD90000121B2FBFEFC0EFB1C2243EA024304FB12
:10CDA0000CF29A4207D9FB180CF1FF3802D29A42D2
:10CDB00000F2E080C4469B1AB3FBFEF20EFB123376
:10CDC00040EA034302FB04F49C4207D9FB1802F13A
:10CDD000FF3002D29C4200F2CA8002461B1B42EA8C
:10CDE0000C40A5E7C1F120068B4022FA06F71F434D
:10CDF0000EFA01F420FA06F32EFA06FE4FEA17495E
:10CE0000234300FA01F81FFA87FCBEFBF9F01C0C63
:10CE100009FB10EE44EA0E4400FB0CFEA64502FAA4
:10CE200001F209D93C1900F1FF3A80F09C80A64537
:10CE300040F2998002383C44A4EB0E041FFA83FEB2
:10CE4000B4FBF9F309FB13444EEA044403FB0CFC66
:10CE5000A44508D93C1903F1FF3E80F08280A44527
:10CE60007FD9023B3C4443EA0040A4EB0C04A0FB06
:10CE700002EC64457346E14662D35FD05DB1B8EB26
:10CE8000030264EB090404FA06F622FA01F31E43D6
:10CE9000CC40C5E9006400214FE7B1FBF2FC010C76
:10CEA00041EA0E4180B240EA01423B4638463C46E8
:10CEB000B846BE462026B1FBF7F1A2EB080241EAD4
:10CEC0000C4166E7014618E710462CE7C6F1200240
:10CED0002EFA02F3B740B14020FA02F24FEA174EA1
:10CEE0000A43B3FBFEF8BCB20EFB1833110C41EA47
:10CEF000034108FB04F9B04089454FEA104380B272
:10CF00003ED9791808F1FF3C01D289451FD8A1EB21
:10CF10000901B1FBFEF909FB04F80EFB191192B2ED
:10CF200042EA0142424529D2BA1809F1FF31C4D27E
:10CF30004245C2D2A9F102013A44BEE7F0459DD272
:10CF4000BEEB02036CEB070C0138E14696E7A7EB5A
:10CF500009094944A8F1020CB1FBFEF909FB04F8E8
:10CF6000DBE773467FE7504666E70846FDE63B444D
:10CF7000023A33E7ACF1020C3B441CE749469CE71C
:10CF8000A1EB0901C446B1FBFEF909FB04F8C4E7B3
:10CF9000704700BF044BD3F8882042F47002C3F8F6
:10CFA0008820024A9A60704700ED00E000C0000847
:10CFB00030B4036A23F001030362026A456883699F
:10CFC00023F073030C681C4322F002028B681343A6
:10CFD0000B4A904206D0456084614A68426303620E
:10CFE00030BC704723F00803CA681A4322F00403D8
:10CFF00025F440754A692A438D691543EBE700BF64
:10D000000000014030B4036A23F480730362036AB2
:10D010004468C26922F073020D68154323F400735B
:10D020008A6843EA02230D4A904206D04460C561F3
:10D030004A68C263036230BC704723F40063CA6865
:10D0400043EA022323F4806324F440544A6944EA07
:10D0500002148A6944EA0214E8E700BF00000140B4
:10D0600030B4036A23F480530362036A4468C269DC
:10D0700022F4E6420D6842EA052223F400538D684B
:10D0800043EA0533074DA84206D04460C2614A68AE
:10D090000264036230BC704724F480444D6944EA62
:10D0A0008514F2E70000014010B4036A046A24F01A
:10D0B00001040462846924F0F00C4CEA021223F0AB
:10D0C0000A030B43826103625DF8044B704710B49E
:10D0D000036A23F0100303628469036A24F4704C2A
:10D0E0004CEA023223F0A00343EA01138261036297
:10D0F0005DF8044B7047836823F070030B4343F0E3
:10D10000070383607047000090F83D30DBB2012BCD
:10D110002FD1022380F83D300268D36843F0010329
:10D12000D3600368154A934218D0B3F1804F15D0ED
:10D13000A2F57C42934211D002F5806293420DD059
:10D1400002F58062934209D002F59A32934205D0EB
:10D150001A6842F001021A60002070479A6802F0D3
:10D160000702062A07D01A6842F001021A6000205E
:10D170007047012070470020704700BF0000014049
:10D18000704770477047704710B5044603681A69C6
:10D1900012F0020F11D0DA6812F0020F0DD06FF00A
:10D1A00002021A610123037703689B6913F0030FDE
:10D1B00070D0FFF7E6FF0023237723681A6912F087
:10D1C000040F12D0DA6812F0040F0ED06FF00402D0
:10D1D0001A610223237723689B6913F4407F5FD091
:10D1E0002046FFF7CEFF0023237723681A6912F049
:10D1F000080F12D0DA6812F0080F0ED06FF0080294
:10D200001A61042323772368DB6913F0030F4ED0E0
:10D210002046FFF7B6FF0023237723681A6912F030
:10D22000100F12D0DA6812F0100F0ED06FF010024B
:10D230001A61082323772368DB6913F4407F3DD00C
:10D240002046FFF79EFF0023237723681A6912F018
:10D25000010F03D0DA6812F0010F36D123681A6982
:10D2600012F0800F03D0DA6812F0800F34D12368F7
:10D270001A6912F0400F03D0DA6812F0400F32D171
:10D2800023681A6912F0200F03D0DA6812F0200F19
:10D2900030D110BDFFF774FF2046FFF773FF8AE718
:10D2A0002046FFF76DFF2046FFF76CFF9BE7204607
:10D2B000FFF766FF2046FFF765FFACE72046FFF764
:10D2C0005FFF2046FFF75EFFBDE76FF001021A61C6
:10D2D000204606F07FFCC1E76FF080021A6120460D
:10D2E00000F01DFAC3E76FF040021A612046FFF715
:10D2F0004AFFC5E76FF020021A61204600F00EFADF
:10D30000C7E700000368254A90420ED0B0F1804F75
:10D310000BD0A2F57C42904207D002F58062904289
:10D3200003D002F58062904203D123F070034A6873
:10D3300013431A4A90421AD0B0F1804F17D0A2F589
:10D340007C42904213D002F5806290420FD002F5E9
:10D35000806290420BD002F59A32904207D002F5DB
:10D360008062904203D002F58062904203D123F4A0
:10D370004073CA68134323F080034A691343036070
:10D380008B68C3620B688362044B984202D001230E
:10D39000436170470B690363F9E700BF0000014078
:10D3A00040B310B5044690F83D30F3B1022384F841
:10D3B0003D30214651F8040BFFF7A4FF012384F808
:10D3C000463084F83E3084F83F3084F8403084F8AA
:10D3D000413084F8423084F8433084F8443084F893
:10D3E000453084F83D30002010BD80F83C3006F018
:10D3F000F3FEDBE70120704740B310B5044690F818
:10D400003D30F3B1022384F83D30214651F8040B3E
:10D41000FFF778FF012384F8463084F83E3084F823
:10D420003F3084F8403084F8413084F8423084F84A
:10D43000433084F8443084F8453084F83D3000208F
:10D4400010BD80F83C3006F003FFDBE70120704799
:10D4500030B4036A23F010030362036A44688269EC
:10D4600022F4E6420D6842EA052223F020038D688B
:10D4700043EA05130C4DA84206D0446082614A6815
:10D480008263036230BC704723F08003CD6843EAB7
:10D49000051323F0400324F440644D6944EA8504F5
:10D4A0008D6944EA8504E8E70000014038B590F84A
:10D4B0003C30012B66D004460D46012380F83C30F9
:10D4C0000C2A5AD8DFE802F0075959591B59595903
:10D4D0003059595944000068FFF76AFD2268936982
:10D4E00043F0080393612268936923F00403936176
:10D4F0002268936929690B43936100203EE000682C
:10D50000FFF7A6FF2268936943F4006393612268E2
:10D51000936923F48063936122689369296943EADC
:10D5200001239361002029E00068FFF76BFD22686A
:10D53000D36943F00803D3612268D36923F004035D
:10D54000D3612268D36929690B43D361002015E0B8
:10D550000068FFF785FD2268D36943F40063D36157
:10D560002268D36923F48063D3612268D36929696F
:10D5700043EA0123D361002000E00120002384F866
:10D580003C3038BD0220FCE710B4846824F47F4CA2
:10D5900042EA03220A4342EA0C0282605DF8044B2D
:10D5A000704790F83C30012B78D010B50446012329
:10D5B00080F83C30022380F83D300268936823F401
:10D5C0007F4323F0770393600B68602B4CD023D804
:10D5D000402B54D011D8202B03D00AD80BB1102BDC
:10D5E00005D119462068FFF786FD002028E00120BC
:10D5F00026E0302BF5D0012022E0502B0AD1CA685A
:10D6000049680068FFF750FD50212068FFF773FD5F
:10D61000002015E0012013E0B3F5805F3AD0B3F5A8
:10D62000005F14D0702B37D1CB684A6889680068D6
:10D63000FFF7AAFF2268936843F077039360002006
:10D64000012384F83D30002384F83C3010BDCB68C2
:10D650004A6889680068FFF797FF2268936843F477
:10D66000804393600020EBE7CA6849680068FFF7D1
:10D670002EFD60212068FFF73EFD0020E0E7CA682C
:10D6800049680068FFF710FD40212068FFF733FD6F
:10D690000020D5E70020D3E70120D1E70220704722
:10D6A00090F83C20012A35D010B40346012280F8BE
:10D6B0003C20022280F83D2002685068946820F0E7
:10D6C000700C086840EA0C0050601A6812488242E8
:10D6D00012D0B2F1804F0FD0A0F57C4082420BD027
:10D6E00000F58060824207D000F58060824203D05E
:10D6F00000F59A30824204D124F080044968214325
:10D700009160012283F83D20002083F83C005DF801
:10D71000044B70470220704700000140704770477B
:10D72000002800F0E08170B582B00446036813F071
:10D73000010F3BD09F4B9B6803F00C03042B2CD0B4
:10D740009C4B9B6803F00C03082B21D06368B3F556
:10D75000803F4FD0B3F5A02F52D0964B1A6822F4D9
:10D7600080321A601A6822F480221A606368002BE3
:10D7700050D001F02FF905468E4B1B6813F4003F83
:10D7800014D101F027F9401B6428F5D90320B1E139
:10D79000884B5B6813F4800FD8D0864B1B6813F45A
:10D7A000003F03D06368002B00F09F81236813F0D3
:10D7B000020F54D07F4B9B6813F00C0F3ED07D4B73
:10D7C0009B6803F00C03082B33D0E368002B68D070
:10D7D000794B01221A6001F0FDF80546754B1B6874
:10D7E00013F0020F54D101F0F5F8401B0228F5D9CF
:10D7F00003207FE16F4A136843F480331360B5E779
:10D800006C4B1A6842F480221A601A6842F4803223
:10D810001A60ABE701F0DEF80546664B1B6813F4AF
:10D82000003FC3D001F0D6F8401B6428F5D903208F
:10D8300060E1604B5B6813F4800FC6D15D4B1B68E1
:10D8400013F0020F03D0E368012B40F05081594AD6
:10D85000136823F0F803216943EAC10313602368C6
:10D8600013F0080F42D063696BB3534B0122C3F826
:10D87000802E01F0AFF805464E4B5B6F13F0020FA0
:10D8800034D101F0A7F8401B0228F5D9032031E17B
:10D89000484A136823F0F803216943EAC10313607F
:10D8A000DDE7454B00221A6001F094F80546414B34
:10D8B0001B6813F0020FD2D001F08CF8401B022835
:10D8C000F5D9032016E13C4B0022C3F8802E01F06D
:10D8D00081F80546374B5B6F13F0020F06D001F05D
:10D8E00079F8401B0228F5D9032003E1236813F0DF
:10D8F000040F77D02F4B1B6C13F0805F33D10023C4
:10D9000001932C4B1A6C42F080521A641B6C03F08A
:10D9100080530193019B0125284B1B6813F4807FE2
:10D9200023D0A368012B34D0052B38D0214B1A6F9C
:10D9300022F001021A671A6F22F004021A67A36824
:10D94000002B3DD001F046F806461A4B1B6F13F032
:10D95000020F46D101F03EF8801B41F28833984215
:10D96000F3D90320C6E00025D6E7144A136843F430
:10D970008073136001F02EF80646104B1B6813F4F9
:10D98000807FCED101F026F8801B0228F5D9032034
:10D99000B0E0084A136F43F001031367CFE7054B6C
:10D9A0001A6F42F004021A671A6F42F001021A67F6
:10D9B000C5E700BF00380240000047420070004049
:10D9C00001F008F80646524B1B6F13F0020F08D007
:10D9D00001F000F8801B41F288339842F3D903200C
:10D9E00088E0EDB9A369002B00F08380484A926873
:10D9F00002F00C02082A51D0022B17D0454B00220E
:10DA00001A6600F0E7FF0446414B1B6813F0007FE5
:10DA100042D000F0DFFF001B0228F5D9032069E0A7
:10DA20003B4A136C23F080531364DBE7394B00222D
:10DA30001A6600F0CFFF0546354B1B6813F0007FD8
:10DA400006D000F0C7FF401B0228F5D9032051E0A3
:10DA5000E369226A1343626A43EA8213A26A5208A4
:10DA6000013A43EA0243E26A43EA0263284A536006
:10DA7000284B01221A6600F0ADFF0446244B1B68B8
:10DA800013F0007F06D100F0A5FF001B0228F5D996
:10DA900003202FE000202DE000202BE0012B2BD0D5
:10DAA0001B4B5B6803F48001E269914226D103F0CD
:10DAB0003F02216A8A4223D1616A47F6C0721A4046
:10DAC000B2EB811F1ED103F44031A26A5208013A21
:10DAD000B1EB024F18D103F07063E26AB3EB026F4F
:10DAE00014D1002006E001207047012002E001204F
:10DAF00000E0002002B070BD0120FBE70120F9E743
:10DB00000120F7E70120F5E70120F3E70120F1E725
:10DB1000003802400000474208B5264B9B6803F0DE
:10DB20000C03042B41D0082B41D1224B5A6802F040
:10DB30003F025B6813F4800F12D01E4B5968C1F38B
:10DB400088111D480023A1FB0001FFF78DF8194B38
:10DB50005B68C3F3014301335B00B0FBF3F008BD26
:10DB6000144B5868C0F388104FEA401CBCEB000C03
:10DB70006EEB0E0E4FEA8E1343EA9C634FEA8C1154
:10DB8000B1EB0C0163EB0E03DB0043EA5173C900F8
:10DB900011EB000C43F10003990200234FEA8C20A3
:10DBA00041EA9C51FFF760F8D1E70348D7E7034803
:10DBB000D5E700BF0038024040787D010024F40022
:10DBC000002800F09B8070B50D4604464F4B1B6843
:10DBD00003F007038B4208D2CBB24C4A1370136890
:10DBE00003F007038B4240F08B80236813F0020F91
:10DBF00017D013F0040F04D0454A936843F4E05360
:10DC00009360236813F0080F04D0414A936843F4EB
:10DC1000604393603E4A936823F0F003A1680B438E
:10DC20009360236813F0010F32D06368012B21D079
:10DC30009A1E012A25D9364A126812F0020F61D0C5
:10DC400033498A6822F0030213438B6000F0C2FE5E
:10DC500006462F4B9B6803F00C036268B3EB820F00
:10DC600016D000F0B7FE801B41F288339842F0D9FD
:10DC7000032042E0264A126812F4003FE0D101205E
:10DC80003BE0234A126812F0007FD9D1012034E032
:10DC90001E4B1B6803F00703AB4207D9EAB21B4BCC
:10DCA0001A701B6803F00703AB422DD1236813F0F1
:10DCB000040F06D0164A936823F4E053E1680B433F
:10DCC0009360236813F0080F07D0114A936823F478
:10DCD0006043216943EAC1039360FFF71DFF0C4BCA
:10DCE0009B68C3F303130B4AD35CD8400A4B1860FC
:10DCF0000A4B186806F082FC002070BD01207047B6
:10DD00000120FAE70120F8E70120F6E7003C024095
:10DD10000038024050D6050800020020080200200A
:10DD2000014B1868704700BF0002002008B5FFF7DC
:10DD3000F7FF044B9B68C3F38223034AD35CD840AC
:10DD400008BD00BF0038024048D6050808B5FFF7F7
:10DD5000E7FF044B9B68C3F34233034AD35CD840CC
:10DD600008BD00BF0038024048D605080F230360F5
:10DD70000B4B9A6802F0030242609A6802F0F002CC
:10DD800082609A6802F4E052C2609B68DB0803F488
:10DD9000E0530361034B1B6803F007030B607047FC
:10DDA00000380240003C024010B40A490C6924F4D7
:10DDB00040740C610C6944F440740C610C6944F0CB
:10DDC00001040C610260BFF36F8F43605DF8044B88
:10DDD000704700BF003C0240074B1A6922F44072B2
:10DDE0001A611A6942F400721A611A6942F001025A
:10DDF0001A610160704700BF003C0240074B1A697E
:10DE000022F440721A611A6942F480721A611A6926
:10DE100042F001021A610180704700BF003C0240DD
:10DE2000064B1A6922F440721A611A691A611A695A
:10DE300042F001021A610170704700BF003C0240CD
:10DE4000274BDB6813F0100F07D0264AD36943F045
:10DE50001003D361224B1022DA60214BDB6813F0F0
:10DE6000200F07D01F4AD36943F00803D3611C4B2E
:10DE70002022DA601A4BDB6813F0400F07D0194AF2
:10DE8000D36943F00403D361154B4022DA60144B8D
:10DE9000DB6813F0800F07D0124AD36943F0020306
:10DEA000D3610F4B8022DA600D4BDB6813F4807F67
:10DEB00008D00C4AD36943F00103D361084B4FF4F7
:10DEC0008072DA60064BDB6813F0020F07D0054A58
:10DED000D36943F02003D361014B0222DA6070471B
:10DEE000003C0240BC080020094B1B69002B01DBF1
:10DEF00000207047064B074A5A6002F188325A6088
:10DF00001B69002B01DB002070470120704700BF18
:10DF1000003C024023016745034A136943F0004374
:10DF200013610020704700BF003C024038B5044632
:10DF3000144B0022DA6100F04DFD0546124BDB6800
:10DF400013F4803F0AD0B4F1FF3FF7D024B100F0C2
:10DF500041FD401BA042F1D903200DE00A4BDB68D4
:10DF600013F0010F02D0084B0122DA60064BDB6888
:10DF700013F4F97F01D1002038BDFFF761FF0120C4
:10DF8000FAE700BFBC080020003C0240F8B5164686
:10DF90001B4A127E012A30D004460D461F46184BFC
:10DFA00001221A764CF25030FFF7C0FF90B9ACB1A5
:10DFB000012C18D0022C1BD032463B462846FFF7D6
:10DFC000F3FE4CF25030FFF7B1FF0E4A136923F015
:10DFD000010313610A4B00221A76F8BDF1B22846FC
:10DFE000FFF71EFFEDE7B1B22846FFF707FFE8E7AE
:10DFF00031462846FFF7F0FEE3E70220EDE700BFD9
:10E00000BC080020003C0240074B1A6922F4407211
:10E010001A611A6942F004021A611A6942EA00227E
:10E0200042F480321A617047003C0240012905D059
:10E03000022906D039B14FF4407104E04FF48071E9
:10E0400001E04FF400710B4B1A6922F440721A611F
:10E050001A690A431A611A6922F0F8021A611A69E8
:10E0600042EAC00040F0020018611A6942F48032AE
:10E070001A617047003C0240164B1B6813F4007F86
:10E0800010D0144B1A6822F400721A601A6842F415
:10E0900000621A601A6822F400621A601A6842F478
:10E0A00000721A600B4B1B6813F4806F10D0094B81
:10E0B0001A6822F480621A601A6842F480521A6068
:10E0C0001A6822F480521A601A6842F480621A6058
:10E0D000704700BF003C0240F8B5224B1B7E012B6D
:10E0E0003ED004460E461F4B01221A764CF25030A9
:10E0F000FFF71CFF074670BB4FF0FF333360236808
:10E10000012B16D0A568E368A2681344AB4220D95E
:10E11000217C2846FFF78AFF4CF25030FFF706FFBC
:10E12000114A136923F0FA031361074680B90135D8
:10E13000E9E76168207CFFF767FF4CF25030FFF79A
:10E14000F5FE0746084A136923F00403136100E053
:10E150003560FFF791FF034B00221A763846F8BD71
:10E160000227FBE7BC080020003C024000230F2BE5
:10E1700000F2D78070B582B065E085684FEA430E43
:10E18000032404FA0EF425EA0405CC6804FA0EF41C
:10E190002C438460446824EA02044A68C2F30012F3
:10E1A0009A40224342605CE0DC08083450F82420A6
:10E1B00003F00705AD004FF00F0E0EFA05FE22EA40
:10E1C0000E0E0A69AA4042EA0E0240F824205CE0E2
:10E1D000042200E0002202FA0EF22A430234514DDA
:10E1E00045F82420504A94686FEA0C0224EA0C0592
:10E1F0004E6816F4801F01D04CEA04054A4CA56015
:10E20000E46802EA04054E6816F4001F01D04CEAE7
:10E210000405454CE560646802EA04054E6816F49E
:10E22000003F01D04CEA04053F4C65602468224061
:10E230004D6815F4803F01D04CEA04023A4C22604C
:10E2400001330F2B6BD801229A400C6804EA020CB0
:10E2500032EA0404F4D14C6804F00304013C012CBC
:10E260008BD94A6802F00302032A09D0C4685D0012
:10E270000322AA4024EA02048A68AA402243C26018
:10E280004A6802F00302022A8ED004684FEA430E65
:10E29000032202FA0EF224EA02044A6802F00302A0
:10E2A00002FA0EF2224302604A6812F4403FC7D0DD
:10E2B000002201921D4A546C44F480445464526C10
:10E2C00002F480420192019A9C08A51C154A52F85A
:10E2D000255003F0030E4FEA8E0E0F2202FA0EF2C3
:10E2E00025EA0205124A90423FF474AF02F58062BB
:10E2F00090420ED002F5806290420CD002F580620E
:10E3000090420AD002F5806290423FF461AF07224A
:10E3100061E701225FE702225DE703225BE702B0CB
:10E3200070BD704700380140003C01400038024099
:10E33000000002400AB181617047090481617047A1
:10E3400008B5054B5B69034200D108BD024B58611B
:10E3500006F07CFDF9E700BF003C014030B40568E1
:10E360002C6824F480242C60046863608368402B4C
:10E3700005D0036899600368DA6030BC70470368B1
:10E380009A600368D960F8E710B40368D9B210390D
:10E390000A4AA2FB01421209094CA25CC2655F292C
:10E3A00007D96FF3090304338365806D5DF8044B6F
:10E3B00070476FF309038365F7E700BFABAAAAAA0A
:10E3C00060D60508836A826992B9012B0AD0022BB4
:10E3D00002D00BB100207047C36A13F0807F28D1B0
:10E3E00000207047C36AB3F1C07F24D0002070477B
:10E3F000B2F5005F09D0022B25D9032B25D1C36AC2
:10E4000013F0807F23D100207047032B03D8DFE86F
:10E4100003F01404140A00207047C36A13F0807FCD
:10E420000DD100207047C36AB3F1C07F09D000202E
:10E43000704701207047012070470120704701207C
:10E44000704701207047012070470020704701206D
:10E450007047000070B5044600F0BCFA002C5BD099
:10E460000546022384F83530002384F834302268CE
:10E47000136823F00103136023681A6812F0010F78
:10E480000AD000F0A7FA431B052BF5D920236365BA
:10E49000032084F8350070BD1A6820491140626875
:10E4A000A0680243E06802432069024360690243B6
:10E4B000A0690243E0690243206A02430A43616A99
:10E4C00004291ED01A602668756925F00705636A5D
:10E4D0001D43042B07D1A36A1D43E36A1BB12046E9
:10E4E000FFF770FF90B975612046FFF74DFFE26DB1
:10E4F0003F239340836000206065012384F835301A
:10E50000C9E7E16A206B01430A43DBE74023636507
:10E51000012084F83500BEE70120BCE73F8010F001
:10E5200038B50446856D90F8340001282BD00120C1
:10E5300084F8340094F83500C0B2012804D00023D8
:10E5400084F83430022038BD022084F835000020E1
:10E5500060652046FFF702FFE26D3F239340AB600A
:10E560002268136843F016031360236C23B12268FA
:10E57000136843F0080313602268136843F0010333
:10E5800013600020DFE70220DDE770B50446866DEA
:10E5900000F020FA94F83530DBB2022B06D080234D
:10E5A0006365002384F83430012070BD054622687D
:10E5B000136823F0160313602268536923F0800365
:10E5C0005361236CE3B12268136823F008031360DE
:10E5D0002268136823F00103136023681B6813F09B
:10E5E000010F11D000F0F6F9431B052BF5D92023BC
:10E5F0006365032084F83500002384F83430D4E7C1
:10E60000A36C002BDFD1E3E7E26D3F239340B360BF
:10E61000012384F83530002084F83400C5E790F8F1
:10E620003530DBB2022B03D08023436501207047D5
:10E63000052380F835300268136823F00103136066
:10E6400000207047F0B583B0044600230193724B5D
:10E650001D68724BA3FB0535AD0A876D3E68C26D20
:10E6600008239340334210D003681A6812F0040F55
:10E670000BD01A6822F004021A60C26D082393407E
:10E68000BB60436D43F001034365E26D012393409A
:10E69000334209D02268526912F0800F04D0BB6067
:10E6A000636D43F002036365E26D042393403342DC
:10E6B00009D02268126812F0020F04D0BB60636DAB
:10E6C00043F004036365E26D10239340334224D08A
:10E6D0002268126812F0080F1FD0BB6023681A6806
:10E6E00012F4802F0DD01B6813F4002F04D1236C7B
:10E6F0009BB12046984710E0A36C73B12046984721
:10E700000BE01A6812F4807F03D11A6822F0080225
:10E710001A60236C0BB120469847E26D202393408A
:10E72000334255D02268126812F0100F50D0BB60EF
:10E7300094F83530DBB2052B0ED023681A6812F43A
:10E74000802F33D01B6813F4002F2AD1636C002B69
:10E750003ED0204698473BE02268136823F016031A
:10E7600013602268536923F080035361236CA3B1C3
:10E770002268136823F008031360E26D3F2393407F
:10E78000BB60012384F83530002384F83430236DD6
:10E79000002B3FD0204698473CE0A36C002BE7D1EC
:10E7A000EBE7E36BA3B12046984711E01A6812F437
:10E7B000807F09D11A6822F010021A60012384F8C0
:10E7C0003530002384F83430E36B0BB12046984792
:10E7D000636DFBB1636D13F0010F17D0052384F84F
:10E7E00035302268136823F001031360019B013365
:10E7F0000193AB4204D823681B6813F0010FF5D1D5
:10E80000012384F83530002384F83430E36C0BB1F5
:10E810002046984703B0F0BD00020020B5814E1B92
:10E82000406D7047002808DB0901C9B200F1604063
:10E8300000F5614080F80013704700F00F000901F7
:10E84000C9B2014B1954704714ED00E000B500F057
:10E850000700C0F1070CBCF1040F28BF4FF0040CF7
:10E86000031D062B0FD9C31E4FF0FF3E0EFA0CF00E
:10E8700021EA000199400EFA03FE22EA0E0241EA63
:10E8800002005DF804FB0023EEE70000074AD368AE
:10E8900023F4E0631B041B0C000200F4E06003435C
:10E8A00043F0BF6343F40033D360704700ED00E0F2
:10E8B00010B50446054BD868C0F30220FFF7C6FF29
:10E8C00001462046FFF7AEFF10BD00BF00ED00E09F
:10E8D000002807DB00F01F02400901239340024A91
:10E8E00042F82030704700BF00E100E0BFF35F8FC7
:10E8F000044B5A6A22F480325A620022C3F89420F0
:10E90000704700BF00ED00E040F00100054BC3F888
:10E9100094005A6A42F480325A62BFF34F8FBFF3B9
:10E920006F8F704700ED00E04278164BC3F89820D7
:10E930000378FBB14368134AC2F89C30017BC37A69
:10E940001B0643EA0173817A43EAC143417B43EAF0
:10E950008143817B43EA4143C17B43EA0143417ADE
:10E9600043EA0123017A43EA410301780B43C2F8E9
:10E97000A0307047034B0022C3F89C20C3F8A020AE
:10E98000704700BF00ED00E008B50B4B1A6842F479
:10E9900000721A601A6842F480621A601A6842F4BF
:10E9A00080721A600320FFF771FF0F2005F026FE2A
:10E9B00005F002FE002008BD003C0240034A116839
:10E9C000034B1B780B441360704700BFDC0800202A
:10E9D00004020020014B1868704700BFDC080020CB
:10E9E00003685A6912F4806F01D1002070476FF4F8
:10E9F00080625A6100230363202280F83D2080F862
:10EA00003E30026C42F00402026480F83C30012087
:10EA100070472DE9F04107460D4690461E4624E01A
:10EA2000FFF7D8FF069BC01AB04200D8EEB900230A
:10EA30003B63202287F83D2087F83E303A6C42F055
:10EA400020023A6487F83C3001201EE03B689C6954
:10EA500025EA040C1FFA8CFCBCFA8CFC4FEA5C1C07
:10EA6000E04511D1B6F1FF3FDAD1C5F30743012BE1
:10EA7000ECD13B685B6925EA030C1FFA8CFCBCFAFD
:10EA80008CFC4FEA5C1CEBE70020BDE8F0812DE92F
:10EA9000F04105460E46174698463DE01A6842F496
:10EAA00000721A602B686FF480625A6100232B6336
:10EAB000202285F83D2085F83E302A6C42F0040281
:10EAC0002A6485F83C30012034E0FFF783FFA0EB97
:10EAD0000800B84200D8FFB900232B63202285F834
:10EAE0003D2085F83E302A6C42F020022A6485F8E9
:10EAF0003C3001201EE02B689C6926EA0404A4B285
:10EB0000003C18BF0124A4B12B685A6912F4806F2D
:10EB1000C4D1B7F1FF3FD8D1C6F30743012BEAD1E7
:10EB20002B685C6926EA0404A4B2003C18BF0124E7
:10EB3000E9E70020BDE8F081F0B583B004460D465A
:10EB400016461F46C36A082B0DD0012B0BD013F5B8
:10EB5000803F08D0036B122B0AD10268136843F47C
:10EB60008073136004E02268136843F480731360B9
:10EB70000097334600224FF001112046FFF749FF6E
:10EB800080B92369B3F5804F16D1236805F0FE05DF
:10EB90001D613B46324613492046FFF778FFF8B91E
:10EBA00003B0F0BD23681B6813F4807F02D04FF4DC
:10EBB000007323640320F3E7EB11226803F00603DC
:10EBC00043F0F00313613B46324607492046FFF706
:10EBD0005EFF18B92368EDB21D61DAE70120DFE7B7
:10EBE0000120DDE702000100080001002DE9F041ED
:10EBF00084B004460D4616461F46C26A01680B687B
:10EC000043F480630B60082A0DD0012A0BD012F563
:10EC1000803F08D0036B112B0AD10268136843F4BC
:10EC20008073136004E02268136843F480731360F8
:10EC30000097334600224FF001112046FFF7E9FE0E
:10EC400098B92369B3F5804F19D1236845F00105C0
:10EC5000EDB21D613B4632462A492046FFF717FFB9
:10EC600000284CD104B0BDE8F08123681B6813F480
:10EC7000807F02D04FF4007323640320F2E74FEA51
:10EC8000E51808F00608236848F0F0021A613B46D0
:10EC900032461D492046FFF7FAFE08B10120E1E7A0
:10ECA0002368EDB21D613B46324616492046FFF708
:10ECB000EEFE08B10120D5E70022039223685969CE
:10ECC0000391996903910399196841F4807119605E
:10ECD000009733464FF001112046FFF79AFE20B906
:10ECE000226848F0F1031361B4E723681B6813F44A
:10ECF000807F02D04FF4007323640320B2E7012029
:10ED0000B0E700BF020001000800010070B5044632
:10ED10000D46164623685B6913F0800F1CD1204610
:10ED2000FFF75EFED0B9B5F1FF3FF3D0FFF752FE1B
:10ED3000801BA84201D8002DECD1002323632022A0
:10ED400084F83D2084F83E30226C42F02002226498
:10ED500084F83C30012000E0002070BD0120FCE779
:10ED60002DE9F04385B004460D4691461F46DDF877
:10ED700030800D9E0368196841F480711960009617
:10ED8000434600224FF00111FFF743FE60B92368AC
:10ED900005F0FE051D613346424626492046FFF731
:10EDA00076FE68B1012008E023681B6813F4807FB9
:10EDB00002D04FF400732364032005B0BDE8F08354
:10EDC0000023039323685A6903929B690393039B6F
:10EDD000324641462046FFF799FF30B9012F0FD147
:10EDE00023685FFA89F61E61E7E7236C042B01D0E4
:10EDF0000120E2E72268136843F400731360F7E729
:10EE000023684FEA19221A61324641462046FFF72D
:10EE10007DFF20B923685FFA89F61E61CDE7236C78
:10EE2000042B01D00120C8E72268136843F4007363
:10EE30001360F7E7020001002DE9F04784B00446B3
:10EE40000D46164699460C9FDDF83480026813681B
:10EE500043F4806313600368196841F4807119609A
:10EE6000CDF800803B4600224FF00111FFF7D1FDA5
:10EE700070B95FFA85FA236805F0FE051D61434607
:10EE80003A4641492046FFF702FE68B1012008E0FA
:10EE900023681B6813F4807F02D04FF4007323644F
:10EEA000032004B0BDE8F0870023039323685A6968
:10EEB00003929B690393039B424639462046FFF722
:10EEC00025FF80B9B9F1010F18D12368F6B21E6190
:10EED000424639462046FFF719FF68B3236C042BDE
:10EEE00024D00120DDE7236C042B01D00120D8E7DA
:10EEF0002268136843F400731360F7E72368320A4B
:10EF00001A61424639462046FFF700FF18B92368C8
:10EF1000F6B21E61DCE7236C042B01D00120C0E7B0
:10EF20002268136843F400731360F7E722681368DC
:10EF300043F400731360D4E72268136843F48073CA
:10EF40001360CDF800803B4600224FF001112046AF
:10EF5000FFF75FFD68B922684AF001031361434679
:10EF60003A4609492046FFF792FD002899D0012032
:10EF700097E723681B6813F4807F02D04FF4007377
:10EF8000236403208DE700BF0200010070B5044632
:10EF90000D46164623685B6913F0040F1CD120460A
:10EFA000FFF71EFDD0B9B5F1FF3FF3D0FFF712FD1B
:10EFB000801BA84201D8002DECD10023236320221E
:10EFC00084F83D2084F83E30226C42F02002226416
:10EFD00084F83C30012000E0002070BD0120FCE7F7
:10EFE00070B505460C4616462B68596911F0400F5E
:10EFF00029D1596911F0100F15D1FFF7EBFC801BD7
:10F00000A04201D8002CEFD100232B63202285F8E9
:10F010003D2085F83E302A6C42F020022A6485F8B3
:10F020003C30012070BD6FF010025A6100232B6349
:10F03000202285F83D2085F83E302A6C2A6485F828
:10F040003C300120EEE70020ECE70000002800F053
:10F05000CC8070B5044690F83D30002B77D0242347
:10F0600084F83D302268136823F00103136022689E
:10F07000136843F4004313602268136823F40043C9
:10F080001360FEF753FE62685A4B9A4264D85A4B9B
:10F0900098428CBF00230123002B40F0A8805749E1
:10F0A000A1FB00318B0C25686A6822F03F0242EA1E
:10F0B00091426A6021680A6A22F03F0266684D4DFB
:10F0C000AE424FD8013313430B622168CA6922F460
:10F0D0004F4222F0FF026568464B9D424CD8431ECA
:10F0E0006D00B3FBF5F3013340F6FC70034278D0BA
:10F0F000C3F30B031A43CA6121680B6823F0C003F2
:10F10000E269206A024313430B6021688B6823F491
:10F11000034323F0FF032269E068024313438B603B
:10F120002168CB6823F0FF036269A069024313439F
:10F13000CB602268136843F0010313600020206451
:10F14000202384F83D30206384F83E0070BD80F8B1
:10F150003C3004F0E1FE82E7294B98428CBF00234B
:10F16000012399E74FF4967505FB03F3254DA5FBA5
:10F1700003539B090133A6E7A668BEB9431E05EBFE
:10F18000450CB3FBFCF30133C3F30B03B3FA83F376
:10F190005B0943BBC6B9431E05EB4505B3FBF5F35D
:10F1A0000133C3F30B0343F40043A3E7431E05EB12
:10F1B000850C0CEB8C0CB3FBFCF30133C3F30B039A
:10F1C000B3FA83F35B09E4E7431E05EB850505EB22
:10F1D0008505B3FBF5F30133C3F30B0343F440435D
:10F1E00088E7042386E7012384E701207047012094
:10F1F000ACE700BFA08601007F841E0083DE1B43B6
:10F20000FF083D00D34D62102DE9F04385B0044660
:10F210000F46914698460C9EFFF7DCFB054694F896
:10F220003D00C0B2202804D00227384605B0BDE812
:10F23000F0830095192301224F492046FFF7E9FB8F
:10F24000002840F0928094F83C30012B00F08F8031
:10F25000012384F83C3023681A6812F0010F03D1AF
:10F260001A6842F001021A602268136823F40063EE
:10F270001360212384F83D30102384F83E300023AE
:10F280002364C4F82490A4F82A80638D23853B4B23
:10F29000E3622B46324639462046FFF74DFC0746CF
:10F2A000002866D10023039323685A6903929B695F
:10F2B0000393039B11E0236C042B01D00127B4E7D7
:10F2C0002268136843F400731360F7E72A46314657
:10F2D0002046FFF75BFE00282ED1238D002B36D071
:10F2E0002A4631462046FFF711FD0028E3D1626A25
:10F2F000236812781A61606A431C6362618D89B267
:10F30000013989B26185238D013B9BB22385226837
:10F31000516911F0040FD9D0002BD7D04378136175
:10F32000636A01336362638D9BB2013B9BB2638569
:10F33000238D013B2385C9E7236C042B01D00127D2
:10F3400073E72268136843F400731360F7E72268D9
:10F35000136843F400731360202384F83D300023C6
:10F3600084F83E3084F83C305FE702275DE70227EF
:10F370005BE7012759E700BF020010000000FFFF14
:10F380002DE9F04387B004460F46914698460E9EFD
:10F39000FFF720FB054694F83D00C0B2202804D0BA
:10F3A0000227384607B0BDE8F083009519230122F3
:10F3B00089492046FFF72DFB002840F0458194F84D
:10F3C0003C30012B00F04281012384F83C3023685B
:10F3D0001A6812F0010F03D11A6842F001021A6094
:10F3E0002268136823F400631360222384F83D30FD
:10F3F000102384F83E3000232364C4F82490A4F83A
:10F400002A80638D2385754BE3622B46324639464D
:10F410002046FFF7EBFB0746002840F01981238DBB
:10F420005BB9029323685A6902929A690292029A1E
:10F430001A6842F400721A607AE0012B0FD0022B96
:10F440001FD02268136843F4806313600023059380
:10F4500023685A6905929B690593059B68E02268B9
:10F46000136823F4806313600023039323685A69AD
:10F4700003929A690392039A1A6842F400721A601E
:10F4800056E02268136823F48063136022681368CF
:10F4900043F4006313600023049323685A690492C1
:10F4A0009B690493049B43E02A4631462046FFF7BC
:10F4B00097FD002840F0CE8023681A69636A1A70AD
:10F4C000636A01336362238D013B2385638D9BB2A5
:10F4D000013B9BB263852BE00095334600224049F7
:10F4E0002046FFF796FA002840F0B680226813689D
:10F4F00043F40073136023681A69636A1A70626ABE
:10F50000531C6362238D013B2385638D9BB2013BBA
:10F510009BB2638523681B695370636A013363621E
:10F52000238D013B2385638D9BB2013B9BB2638599
:10F53000218D00297FD0032954D80129B4D0022974
:10F54000CAD000953346002225492046FFF761FACC
:10F55000002840F083802268136823F480631360DE
:10F5600023681A69636A1A70636A01336362238DC0
:10F57000013B2385618D89B2013989B2618500958E
:10F580003346002216492046FFF743FA002867D188
:10F590002268136843F40073136023681A69636A6E
:10F5A0001A70626A531C6362238D013B2385638D4D
:10F5B0009BB2013B9BB2638523681B695370636AEE
:10F5C00001336362238D013B2385638D9BB2013B35
:10F5D0009BB26385ACE700BF020010000000FFFF94
:10F5E000040001002A4631462046FFF7F9FC0028B6
:10F5F00038D123681A69636A1A70626A531C63629D
:10F60000238D013B2385638D9BB2013B9BB26385B8
:10F610002368596911F0040F8AD01B695370636A1B
:10F6200001336362238D013B2385638D9BB2013BD4
:10F630009BB263857CE7202384F83D30002384F867
:10F640003E3084F83C30ACE60227AAE60227A8E662
:10F650000127A6E60127A4E60127A2E60127A0E6E6
:10F6600001279EE601279CE62DE9F04383B004467E
:10F670000F46904699460C9EFFF7ACF9054694F864
:10F680003D00C0B2202803D0022003B0BDE8F083C3
:10F690000095192301224B492046FFF7BAF90028AB
:10F6A00040F0898094F83C30012B00F086800123E3
:10F6B00084F83C3023681A6812F0010F03D11A68ED
:10F6C00042F001021A602268136823F40063136099
:10F6D000212384F83D30402384F83E300023236406
:10F6E0000A9B6362BDF82C306385638D2385364B9E
:10F6F000E362019500964B46424639462046FFF7A5
:10F700002FFB00285BD1238D002B35D02A463146B4
:10F710002046FFF7FBFA20BB626A236812781A6161
:10F72000626A531C6362218D013989B22185638D20
:10F730009BB2013B9BB263852368586910F0040FAC
:10F74000E1D00029DFD052781A61636A0133636225
:10F75000238D013B2385638D9BB2013B9BB2638567
:10F76000D1E7236C042B01D001208EE722681368B7
:10F7700043F400731360F7E72A4631462046FFF74B
:10F7800005FC50B1236C042B01D001207DE72268D9
:10F79000136843F400731360F7E72268136843F4B7
:10F7A00000731360202384F83D30002384F83E303A
:10F7B00084F83C3069E7022067E7022065E7012012
:10F7C00063E700BF020010000000FFFF2DE9F043D7
:10F7D00087B004460F4690469946109EFFF7FAF808
:10F7E000054694F83D00C0B2202804D002273846D0
:10F7F00007B0BDE8F083009519230122884920460F
:10F80000FFF707F9002840F0438194F83C30012BC2
:10F8100000F04081012384F83C3023681A6812F01C
:10F82000010F03D11A6842F001021A6022681368BE
:10F8300023F400631360222384F83D30402384F8CE
:10F840003E30002323640E9B6362BDF83C30638529
:10F85000638D2385734BE362019500964B464246C8
:10F8600039462046FFF7E8FA0746002840F01481A1
:10F87000238D5BB9029323685A6902929A690292B6
:10F88000029A1A6842F400721A6075E0012B0AD0DD
:10F89000022B1AD00023059323685A6905929B69AD
:10F8A0000593059B68E02268136823F48063136066
:10F8B0000023039323685A6903929A690392039A77
:10F8C0001A6842F400721A6056E02268136823F442
:10F8D000806313602268136843F40063136000239D
:10F8E000049323685A6904929B690493049B43E040
:10F8F0002A4631462046FFF773FB002840F0CE80B1
:10F9000023681A69636A1A70636A01336362238D1C
:10F91000013B2385638D9BB2013B9BB263852BE04A
:10F9200000953346002240492046FFF772F8002830
:10F9300040F0B6802268136843F4007313602368B4
:10F940001A69636A1A70626A531C6362238D013BF1
:10F950002385638D9BB2013B9BB2638523681B6942
:10F960005370636A01336362238D013B2385638D8A
:10F970009BB2013B9BB26385238D002B7FD0032B71
:10F9800054D8012BB4D0022BCAD0009533460022A4
:10F9900025492046FFF73DF8002840F08380226883
:10F9A000136823F48063136023681A69636A1A700A
:10F9B000636A01336362238D013B2385638D9BB2B0
:10F9C000013B9BB2638500953346002216492046D1
:10F9D000FFF71FF8002867D12268136843F400730B
:10F9E000136023681A69636A1A70626A531C63623F
:10F9F000238D013B2385638D9BB2013B9BB26385C5
:10FA000023681B695370636A01336362238D013B72
:10FA10002385638D9BB2013B9BB26385ACE700BF3E
:10FA2000020010000000FFFF040001002A463146DA
:10FA30002046FFF7D5FA002838D123681A69636A8F
:10FA40001A70626A531C6362238D013B2385638DA8
:10FA50009BB2013B9BB263852368596911F0040F87
:10FA60008AD01B695370636A01336362238D013B43
:10FA70002385638D9BB2013B9BB263857CE720238A
:10FA800084F83D30002384F83E3084F83C30AEE604
:10FA90000227ACE60227AAE60127A8E60127A6E688
:10FAA0000127A4E60127A2E60127A0E601279EE69A
:10FAB0002DE9F04387B005460E4617469846FEF7F7
:10FAC00089FF0023059395F83D30DBB2202B40F0F1
:10FAD000EA808146784B1B68DB08784AA2FB032347
:10FAE0001B0A03EB830303EB83030593059C013C93
:10FAF0000594059C002C5AD02B689A6912F0020FCD
:10FB0000F4D195F83C20012A00F0D180012285F83B
:10FB10003C201A6812F0010F03D11A6842F001026A
:10FB20001A602A68136823F400631360222385F89F
:10FB30003D30402385F83E3000222A640E9B6B62E4
:10FB4000BDF83C306B856B8D9BB22B855C49E962BF
:10FB50006E64AF64C5F84C802A65002B00F0858088
:10FB6000AB6B002B32D0574ADA63AB6B564ADA6480
:10FB7000AA6B00231364AA6B5364AA6B9364AA6BE9
:10FB8000136529682B8D6A6A1031A86BFEF7C8FCD3
:10FB900050B3202385F83D30002285F83E202B6CA1
:10FBA00043F010032B6485F83C2001207CE0002307
:10FBB0002B63202285F83D2085F83E302A6C42F0E8
:10FBC00020022A6485F83C3001206DE0202385F86E
:10FBD0003D30002285F83E202B6C43F080032B64DF
:10FBE00085F83C2001205FE0CDF8049023230093AA
:10FBF00043463A4631462846FFF71EF9D8B92B8DC1
:10FC0000012B2CD02A68536843F4805353600022A0
:10FC100003922B685969039199690391039985F8B7
:10FC20003C205A6842F480725A602A68536843F450
:10FC30000063536035E0A86BFEF7F1FCAA6B00236C
:10FC4000D36329680A6822F480620A602B856B8579
:10FC50002A68136823F001031360012024E02A6856
:10FC6000136823F480631360D1E7CDF80490232355
:10FC7000009343463A4631462846FFF7DDF8C0B9BF
:10FC8000002104912B685A6904929A690492049A9B
:10FC90001A6842F400721A60202385F83D3085F816
:10FCA0003C10002000E0022007B0BDE8F0830220F5
:10FCB000FAE70120F8E700BF0002002089B5F81438
:10FCC0000000FFFF1BFD0008D5FC000870477047CF
:10FCD0007047704710B5846B636B0BB10022DA6319
:10FCE000A36B0BB10022DA63FEF79AFD022800D164
:10FCF00010BD2268136823F48063136000236385BA
:10FD0000202284F83D2084F83E30236C43F0100319
:10FD100023642046FFF7DDFFEAE738B5846B94F8EB
:10FD20003D30DBB294F83E20D1B2E56A20684268EB
:10FD300022F440724260626B0AB10020D063A26B71
:10FD40000AB10020D06303F02102212A41D003F040
:10FD50002202222A3BD094F83E30002B49D0638DFA
:10FD60009BB2012B58D02268536823F44073536030
:10FD700015F5803F06D0082D04D0B5F12A4F01D0EB
:10FD8000202D04D12268136843F4007313602268A5
:10FD9000536823F4805353602268536823F400634C
:10FDA000536000236385236C002B3BD1202384F810
:10FDB0003D3094F83E30DBB2402B37D0002384F83E
:10FDC0003E30122323632046FFF780FF11E02029F5
:10FDD000C1D121684A6822F400624A60002262852B
:10FDE000292B07D02A2B0ED02268536843F4407386
:10FDF000536038BD21232363282384F83D302046F7
:10FE0000FFF765FFF0E722232363282384F83D30C2
:10FE10002046FFF75DFFE7E72268136823F480635D
:10FE20001360A0E72046FFF754FFE2E7002384F8C1
:10FE30003E302363204605F029F8DAE790F83D00CC
:10FE40007047006C704700002DE9F04782B005460E
:10FE5000884617461E46FEF7BDFD0A9B1B1A03EB9C
:10FE60000609FEF7B7FD8246284B1B68C3F3CB3368
:10FE700009FB03F301932B689C6838EA04040CBF68
:10FE800001230023BB423DD0B6F1FF3FF3D0FEF784
:10FE9000A1FDA0EB0A00484507D2019A02B14A46EB
:10FEA000019B013B01939146E5E72A68536823F0E3
:10FEB000E00353606B68B3F5827F0BD0AB6AB3F598
:10FEC000005F14D0012385F85130002385F85030AD
:10FED000032018E0AB68B3F5004F02D0B3F5806F94
:10FEE000ECD12A68136823F040031360E6E72A6820
:10FEF000136823F4005313602A68136843F4005313
:10FF00001360DFE7002002B0BDE8F08700020020A8
:10FF100010B584B00446164B1868164BA3FB00308E
:10FF2000400D4FF47A7303FB00F003906368B3F560
:10FF3000827F0BD0039BBBB1039B013B03932368E0
:10FF40009B6813F0800FF5D100200EE000920B4665
:10FF5000002280212046FFF777FF30B1636D43F028
:10FF600020036365032000E0002004B010BD00BF43
:10FF700000020020819F5E1610B582B004460B4639
:10FF80004168B1F5827F14D06168B1F5827F2AD1D2
:10FF9000A168B1F5806F19D000920022802120461F
:10FFA000FFF752FF30B3636D43F020036365032016
:10FFB00020E08168B1F5004F02D0B1F5806FE3D148
:10FFC0002068016821F040010160DDE70092002215
:10FFD00001212046FFF738FF60B1636D43F0200335
:10FFE0006365032006E00092002201212046FFF70E
:10FFF0002BFF08B902B010BD636D43F020036365A9
:020000040801F1
:100000000320F7E700285AD010B50446436A33B9F5
:100010004368B3F5827F05D00023C36102E000236B
:10002000036143610023A36294F85130002B40D058
:10003000022384F851302268136823F040031360D0
:10004000636803F48273A26802F404421343E26813
:1000500002F400621343226902F002021343626950
:1000600002F001021343A26902F400721343E26931
:1000700002F038021343226A02F080021343A26A9C
:1000800002F40052216813430B60638B03F00403F6
:10009000626A02F01002216813434B602268D36940
:1000A00023F40063D36100206065012384F851309C
:1000B00010BD84F85030204604F00AF8B8E701205B
:1000C00070472DE9F04383B01D4690F85030012B66
:1000D00000F0D180044688469146012380F85030D4
:1000E000FEF778FC074694F85160F6B2012E40F016
:1000F000AF80B8F1000F00F0AC80B9F1000F00F054
:10010000A880032384F8513000236365C4F830804D
:10011000A4F83490A4F83690A363A387E3876364BC
:100120002364A368B3F5004F1ED023681A6812F049
:10013000400F03D11A6842F040021A60E368B3F539
:10014000006F1CD0636813B1B9F1010F52D1226B5B
:10015000236812781A73236B01332363E38E9BB2F7
:10016000013B9BB2E38645E02268136823F040031D
:1001700013602268136843F480431360D5E7636813
:1001800013B1B9F1010F16D1226B23681288DA601E
:10019000236B02332363E38E9BB2013B9BB2E38666
:1001A00009E0FEF717FCC01BA84202D3B5F1FF3FE0
:1001B00059D1002D59D0E38E9BB2002B33D0236848
:1001C0009A6812F0020FECD0226B1288DA60236B6F
:1001D00002332363E38E9BB2013B9BB2E386EAE7E3
:1001E000FEF7F8FBC01BA84202D3B5F1FF3F3ED19A
:1001F000002D3ED0E38E9BB2ABB123689A6812F01B
:10020000020FEDD0226B12781A73236B0133236334
:10021000B4F836C01FFA8CFC0CF1FF3C1FFA8CFCC2
:10022000A4F836C0E6E73A4629462046FFF770FEB6
:1002300008B120236365A36833B901932368DA68A2
:1002400001929B680193019B636D13B9002600E046
:100250000226012384F85130002384F850303046C0
:1002600003B0BDE8F0830326F3E70326F1E7032696
:10027000EFE70326EDE70226F1E72DE9F04383B02F
:100280001F460A9D90F85030012B00F01081044663
:1002900088469146012380F85030FEF79BFB0646C6
:1002A00094F85130DBB26268012B0AD0B2F5827F3C
:1002B00040F0E380A268002A40F0E980042B40F07F
:1002C000E880B8F1000F00F0E680B9F1000F00F00F
:1002D000E480002F00F0E38094F85130DBB2042B6F
:1002E00002D0052384F8513000236365C4F83890A8
:1002F000E787A787C4F83080E786A786236463640E
:1003000023681A6812F0400F03D11A6842F04002C5
:100310001A60E368B3F5006F11D063680BB1012F69
:100320000BD1226B236812781A73236B013323637A
:10033000E38E9BB2013B9BB2E38601276BE06368CF
:100340000BB1012F0BD1226B23681288DA60236B6B
:1003500002332363E38E9BB2013B9BB2E38601270A
:100360001CE023689A6812F0010F0ED0E28F92B25F
:100370005AB1DA68A36B1A80A36B0233A363E38FCD
:100380009BB2013B9BB2E3870127FEF723FB801B57
:10039000A84203D3B5F1FF3F40F08380E38E9BB2C8
:1003A0001BB9E38F9BB2002B53D023689A6812F0DD
:1003B000020FD6D0E28E92B2002AD2D0002FD0D037
:1003C000226B1288DA60236B02332363E38E9BB2C5
:1003D000013B9BB2E3860027C3E723689A6812F0CB
:1003E000010F0ED0E28F92B25AB1DA68A36B1A7085
:1003F000A36B0133A363E38F9BB2013B9BB2E38703
:100400000127FEF7E7FA831BAB4202D3B5F1FF3FAA
:1004100049D1002D49D0E38E9BB213B9E38F9BB233
:10042000BBB123689A6812F0020FD6D0E28E92B266
:10043000002AD2D0002FD0D0226B12781A73236BEF
:1004400001332363E38E9BB2013B9BB2E38600271B
:10045000C3E7324629462046FFF75AFD48B9A3684C
:1004600063B901932368DA6801929B680193019B49
:1004700004E020236365012000E00220012384F8CA
:100480005130002384F8503003B0BDE8F0830220DF
:10049000F4E70220F2E70120F0E70120EEE7012077
:1004A000ECE70320EAE70320E8E70320E6E7022081
:1004B000EAE72DE9F04383B00446884691461D469D
:1004C0004068B0F5827F38D094F85030012B00F0AE
:1004D000AE80012384F85030FEF77CFA074694F88A
:1004E0005160F6B2012E40F08F80B8F1000F00F09D
:1004F0008C80B9F1000F00F08880042384F851301B
:1005000000236365C4F83880A4F83C90A4F83E90BA
:100510002363A386E38623646364A368B3F5004F73
:1005200019D023681A6812F0400F03D11A6842F0FC
:1005300040021A60E3681BB341E0A368002BC3D1FB
:10054000042384F85130009513460A462046FFF7ED
:1005500094FE06465FE02268136823F040031360B0
:100560002268136823F480431360DAE7FEF732FA57
:10057000C01BA84202D3B5F1FF3F50D1002D50D08F
:10058000E38F9BB2002B33D023689A6812F0010FDF
:10059000ECD0A26B1B7B1370A36B0133A363E38FBF
:1005A0009BB2013B9BB2E387EAE7FEF713FAC01B5D
:1005B000A84202D3B5F1FF3F35D1002D35D0E38FEE
:1005C0009BB2ABB123689A6812F0010FEDD0DA68E4
:1005D000A36B1A80A36B0233A363B4F83EC01FFA67
:1005E0008CFC0CF1FF3C1FFA8CFCA4F83EC0E6E743
:1005F0003A4629462046FFF7BFFC08B12023636531
:10060000636D13B9002600E00226012384F85130FF
:10061000002384F85030304603B0BDE8F083032651
:10062000F3E70326F1E70326EFE70326EDE70226CB
:10063000F1E7000038B590F85030012B61D0044646
:10064000012380F8503090F85150EDB29D4252D1C4
:10065000002951D0002A4FD0032380F851300023C5
:10066000436501638286C286836343640364838730
:10067000C3878368B3F5004F2AD0A36C224A1A645B
:10068000A36C224ADA63A36C214ADA64A36C0022C9
:100690001A652268E38E9BB20C32216BA06CFDF7C9
:1006A0003FFF0146F8B923681A6812F0400F03D1E2
:1006B0001A6842F040021A602268536843F020032F
:1006C00053602268536843F0020353600D4613E001
:1006D0000268136823F0400313600268136843F450
:1006E00080431360C9E7636D43F010036365012322
:1006F00084F8513000E00225002384F85030284669
:1007000038BD0225FBE700BF1707010845070108B0
:1007100023070108704708B5806BFFF7FBFF08BD92
:10072000704708B5806B0268536823F00303536079
:10073000436D43F010034365012380F85130FFF708
:10074000EFFF08BD30B583B00546846BFEF742F974
:100750002B681B6813F4807F23D1024621684B6805
:1007600023F020034B6021684B6823F002034B60A9
:1007700064212046FFF7CCFB18B1636D43F02003E2
:100780006365A36833B901932368DA6801929B68B3
:100790000193019B0023E386012384F85130636DAC
:1007A00023B920460DF0E2FA03B030BD2046FFF732
:1007B000B7FFF9E790F851007047026802F10C03A7
:1007C00053E8003F23F0C0030C3242E80031002917
:1007D000F3D1202380F83D307047026802F10C030A
:1007E00053E8003F23F490730C3242E800310029B3
:1007F000F3D1026802F1140353E8003F23F0010330
:10080000143242E800310029F3D1036B012B05D0EB
:10081000202380F83E30002303637047026802F112
:100820000C0353E8003F23F010030C3242E8003180
:100830000029F3D1ECE790F83D30DBB2212B01D059
:10084000022070478368B3F5805F17D0036A5A1C93
:1008500002621A7803685A60C38C9BB2013B9BB258
:10086000C3844BB90268D36823F08003D360026865
:10087000D36843F04003D360002070470369002B26
:10088000E4D1036A1B880268C3F308035360036A58
:1008900002330362E0E7000010B504460268136902
:1008A00023F44053C1680B431361836802691A4300
:1008B00043691A43C3691A430168CB6823F416439A
:1008C00023F00C031343CB600268536923F4407395
:1008D00081690B4353610368314A934206D002F5A4
:1008E0008062934202D0FDF721FA01E0FDF72EFA73
:1008F000E369B3F5004F29D00021031849411B18C3
:1009000041F10001C90041EA5371DB001818636826
:100910004FEA83024FEA937341F10001FCF7A4F917
:10092000204AA2FB00314909642303FB11031B0188
:100930003233A2FB03235B0903F0F00202EB011246
:1009400003F00F03216813448B6010BD00230218CD
:1009500043EB0301121841F10001C90041EA527151
:10096000D200101841F10001626892185B41FCF757
:100970007BF90C4AA2FB00314909642303FB1103F4
:10098000DB003233A2FB03235B095A0002F4F87246
:1009900002EB011203F00703216813448B60D4E7D4
:1009A000001001401F85EB512DE9F84305460F4625
:1009B00016469946DDF820802B681C6837EA040447
:1009C0000CBF01240024B4422DD1B8F1FF3FF3D075
:1009D000B8F1000F05D0FDF7FDFFA0EB0900404581
:1009E000EAD92A6802F10C0353E8003F23F4D073DC
:1009F0000C3242E800310029F3D12A6802F11403D5
:100A000053E8003F23F00103143242E8003100298B
:100A1000F3D1202385F83D3085F83E30002385F85A
:100A20003C30032000E00020BDE8F88358B310B547
:100A3000044690F83D300BB3242384F83D302268FF
:100A4000D36823F40053D3602046FFF725FF2268C4
:100A5000136923F4904313612268536923F02A0336
:100A600053612268D36843F40053D36000202064AC
:100A7000202384F83D3084F83E3010BD80F83C30AF
:100A800003F002FDD8E7012070472DE9F04182B064
:100A90001E4690F83D30DBB2202B54D104460D4663
:100AA0009046002953D0002A53D090F83C30012BB7
:100AB00051D0012380F83C3000230364212380F8C7
:100AC0003D30FDF787FF0746A4F82480A4F8268070
:100AD000A368B3F5805F05D04FF00008002384F8C9
:100AE0003C3012E0236913B14FF00008F6E7A84646
:100AF0000025F3E738F8023B2268C3F3080353608C
:100B0000E28C92B2013A92B2E284E38C9BB273B16E
:100B100000963B46002280212046FFF745FFE0B9C2
:100B2000002DE7D015F8012B23685A60E8E70096FE
:100B30003B46002240212046FFF736FF78B92023AC
:100B400084F83D3000E0022002B0BDE8F0810120D1
:100B5000FAE70120F8E70220F6E70320F4E7032094
:100B6000F2E710B5044603685A6990F83D30DBB2ED
:100B7000212B0AD023685A6902F0400294F83E30D3
:100B8000DBB2222B19D0002010BD02F08002002A17
:100B9000F0D0226802F1140353E8003F23F08003F1
:100BA000143242E800310029F3D1606B08B1FDF73F
:100BB000ECFC2046FFF701FEDCE7002AE3D02268C8
:100BC00002F1140353E8003F23F04003143242E8DB
:100BD00000310029F3D1A06B08B1FDF7D6FC204607
:100BE000FFF7FBFDCFE7704708B50168CA6822F040
:100BF0004002CA60202280F83D20FFF7F4FF002069
:100C000008BD7047704710B5846B23685A6994F823
:100C10003D30DBB2212B10D023685A6902F040022C
:100C200094F83E30DBB2222B11D0236C43F010033A
:100C300023642046FFF7E6FF10BD02F08002002A81
:100C4000EAD00023E3842046FFF7B7FDE4E7002A5B
:100C5000EBD00023E3852046FFF7BFFDE5E708B5AD
:100C6000806B0023C385C384FFF7CCFF08BD90F8D9
:100C70003E30DBB2222B67D18368B3F5805F4DD065
:100C8000826AB3F5805F04D0002B54D10369002B36
:100C900051D103685B681370836A01338362C38D2B
:100CA0009BB2013B9BB2C385002B4FD100B583B0F3
:100CB0000268D36823F02003D3600268D36823F46A
:100CC0008073D3600268536923F0010353612023CA
:100CD00080F83E30036B012B33D10023036302689D
:100CE00002F10C0353E8003F23F010030C3242E8FA
:100CF00000310029F3D103681A6812F0100F06D0F2
:100D0000002201921A6801925B680193019B818D18
:100D10000DF09CF9002003B05DF804FB0269002A85
:100D2000AED1826A03685B68C3F308031380836AE9
:100D300002338362B3E703685B6803F07F031370D9
:100D4000AAE70DF071F9E5E702207047002070472F
:100D500010B582B0044602681368D068516913F078
:100D60000F0F09D113F0200F0CD010F0200F09D075
:100D70002046FFF77CFF16E011F0010115D110F4B9
:100D8000907F12D1216B012979D013F0800F03D00D
:100D900010F0800F40F0108113F0400F03D010F0DE
:100DA000400F40F00D8102B010BD13F0010F06D0CE
:100DB00010F4807F03D0226C42F00102226413F011
:100DC000040F04D019B1226C42F00202226413F025
:100DD000020F04D019B1226C42F00402226413F015
:100DE000080F07D010F0200F00D119B1226C42F08B
:100DF00008022264226C002AD5D013F0200F02D002
:100E000010F0200F29D123685B6903F04003226CA6
:100E100012F0080F00D163B32046FFF7DEFC236811
:100E20005B6913F0400F20D0226802F1140353E8ED
:100E3000003F23F04003143242E800310029F3D18F
:100E4000A36B73B1604A1A65A06BFDF7E8FB00283D
:100E5000A9D0A06B036D9847A5E72046FFF707FFD1
:100E6000D1E72046FFF7CEFE9DE72046FFF7CAFEFA
:100E700099E72046FFF7C6FE0023236493E713F0AB
:100E8000100F82D010F0100F3FF47FAF00230193BA
:100E90001368019353680193019B536913F0400F4A
:100EA00050D0A26B13685B689BB2002B3FF47BAF02
:100EB000A18D99427FF677AFE385D369B3F5807F43
:100EC00037D0226802F10C0353E8003F23F480730B
:100ED0000C3242E800310029F3D1226802F11403F8
:100EE00053E8003F23F00103143242E800310029A7
:100EF000F3D1226802F1140353E8003F23F04003CA
:100F0000143242E800310029F3D1202384F83E3026
:100F100000232363226802F10C0353E8003F23F00F
:100F200010030C3242E800310029F3D1A06BFDF729
:100F30002CFBA18DE38D9BB2C91A89B220460DF01E
:100F400085F830E7A18DE38D9BB2C91A89B2E38D94
:100F50009BB2002B3FF427AF00293FF424AF226857
:100F600002F10C0353E8003F23F490730C3242E883
:100F700000300028F3D1226802F1140353E8003F47
:100F800023F00103143242E800300028F3D120237B
:100F900084F83E3000232363226802F10C0353E8F7
:100FA000003F23F010030C3242E800300028F3D158
:100FB00020460DF04BF8F6E62046FFF73CFCF2E643
:100FC0002046FFF711FEEEE65F0C010808B5806BC6
:100FD000036B012B02D0FFF714FE08BD818D490879
:100FE0000DF034F8F9E708B50346806B1B681B6801
:100FF00013F4807F2BD10023C385026802F10C0318
:1010000053E8003F23F480730C3242E8003100299A
:10101000F3D1026802F1140353E8003F23F0010307
:10102000143242E800310029F3D1026802F11403BE
:1010300053E8003F23F04003143242E80031002916
:10104000F3D1202380F83E30036B012B05D0036BD6
:10105000012B0FD00CF0E8FF08BD026802F10C0371
:1010600053E8003F23F010030C3242E8003100291E
:10107000F3D1ECE7818D0CF0E9FFEDE78162828529
:10108000C28500230364222280F83E2080F83C3091
:10109000036923B10268D36843F48073D3600268A4
:1010A000536943F0010353610268D36843F020039E
:1010B000D3600020704708B590F83E30DBB2202B9B
:1010C0000DD171B17AB190F83C30012B0DD00123D4
:1010D00080F83C3000230363FFF7D0FF00E00220DC
:1010E00008BD0120FCE70120FAE70220F8E7000034
:1010F00030B583B0044613468162828500250564BD
:10110000222280F83E20826B2048D063A26B2048C8
:101110001064A26B1F48D064A26B156520680A4654
:10112000011DA06BFDF7FCF9019523681A68019277
:101130005B680193019B84F83C5023695BB1226892
:1011400002F10C0353E8003F43F480730C3242E891
:1011500000310029F3D1226802F1140353E8003F63
:1011600043F00103143242E800310029F3D1226830
:1011700002F1140353E8003F43F04003143242E805
:1011800000310029F3D1002003B030BDE70F010882
:10119000CD0F0108070C010890F83E30DBB2202B80
:1011A00029D110B582B0044639B342B390F83C302F
:1011B000012B27D0012380F83C300363FFF798FF11
:1011C000F0B9236B012B01D0012019E0002301931A
:1011D00023681A6801925B680193019B226802F1FF
:1011E0000C0353E8003F43F010030C3242E8003197
:1011F0000029F3D104E002207047012000E0012023
:1012000002B010BD0220FBE71AB9084205D1104612
:101210007047814303D000207047012070470120B0
:10122000704738B5202002F04BFA044628B100255B
:1012300040F8045B00F0F2F82577204638BD88B10D
:101240002DE9F0410C4616461D460746B1F1807F58
:1012500011D34FF0500383F31188BFF36F8FBFF3A7
:101260004F8FFEE74FF0500383F31188BFF36F8F6A
:10127000BFF34F8FFEE741B94FF0500383F311885E
:10128000BFF36F8FBFF34F8FFEE701F0B5FC50B98E
:10129000069B43B14FF0500383F31188BFF36F8F68
:1012A000BFF34F8FFEE701F089F9D7F800802A4697
:1012B00021464046FFF7A8FFF8B18EB328EA0403A1
:1012C0003B600023069301F01FFA069B93B148B9D7
:1012D0004FF0E0234FF08052C3F8042DBFF34F8F3F
:1012E000BFF36F8F01F092FD804610F0007F1AD09F
:1012F00028F07F484046BDE8F081069B002BE2D0F5
:101300005EB900210DB141F08061069A2143381D7C
:1013100001F030FB4FF00008D5E74FF08071F1E7A6
:1013200000230693CFE702F0FDFAD7F800802A46A3
:1013300021464046FFF768FF18B116B128EA0404B9
:101340003C6002F011FBD3E770B170B50C46054666
:10135000B1F1807F11D34FF0500383F31188BFF3B5
:101360006F8FBFF34F8FFEE74FF0500383F3118869
:10137000BFF36F8FBFF34F8FFEE702F0D3FA2E68F3
:1013800026EA04042C6002F0EFFA304670BDF8B58E
:1013900068B10D460446B1F1807F11D34FF0500380
:1013A00083F31188BFF36F8FBFF34F8FFEE74FF0CA
:1013B000500383F31188BFF36F8FBFF34F8FFEE7A6
:1013C00000F10C0601F0FAF8206923682B43236032
:1013D00000270AE0216832EA010105D111E0216805
:1013E00041F0007101F05AFB2846B0420ED045682A
:1013F000036823F07F4213F0806FEBD12168114224
:10140000F2D013F0807FEAD01743E8E7236823EA9D
:101410000703236001F078F92068F8BD00F10803A4
:1014200043604FF0FF328260C360036100230360BA
:10143000704700230361704743684B609A688A6075
:10144000516099600861036801330360704730B4EC
:101450000D68B5F1FF3F11D000F108031C465B6831
:101460001A68AA42FAD963684B6099608C6061601F
:10147000086103680133036030BC70470469F2E718
:101480000369416882688A60416851605A68824293
:1014900006D0002202611A68013A1A601868704783
:1014A00082685A60F5E70346406A18B11B6B1868FA
:1014B000C0F13800704710B5044602F033FAA26B51
:1014C000E36B9A4204D0002402F04EFA204610BD8D
:1014D0000124F9E710B5044602F024FAA36B23B9FE
:1014E000012402F041FA204610BD0024F9E770B54E
:1014F00004461546866B026C5AB903681BB100207E
:101500000136A66370BD806801F0D8FB0023A3609C
:10151000F6E76DB9406840F00AFC6368226C13443A
:101520006360A268934219D3236863602846E7E7A3
:10153000C06840F0FCFBE368226C51429B1AE360F8
:101540002268934202D2A3680B44E360022D01D0CB
:101550000020D5E726B1013E0020D1E72846CFE79D
:101560000020CDE70346026C6AB110B50846D96881
:101570001144D9609C68A14201D31968D960D96827
:1015800040F0D5FB10BD704738B5054602F0CAF9EA
:1015900095F8454064B201E0013C64B2002C0ADDDC
:1015A0006B6A43B105F1240001F030FA0028F3D052
:1015B00001F00AFBF0E7FF2385F8453002F0D4F98B
:1015C00002F0B0F995F8444064B201E0013C64B225
:1015D000002C0ADD2B6943B105F1100001F016FA69
:1015E0000028F3D001F0F0FAF0E7FF2385F844304B
:1015F00002F0BAF938BD38B5E0B10D46044602F044
:1016000091F92368E26B216C01FB0230A06000209D
:10161000A0636360013A02FB0133E360FF2384F8B7
:10162000443084F84530FDB9236963B902F09CF970
:10163000012038BD4FF0500383F31188BFF36F8F43
:10164000BFF34F8FFEE704F1100001F0DFF900282F
:10165000ECD04FF0E0234FF08052C3F8042DBFF3DD
:101660004F8FBFF36F8FE1E704F11000FFF7D6FE55
:1016700004F12400FFF7D2FED8E7F8B505461E4670
:10168000069C0F4679B92460E56327640121204652
:10169000FFF7B1FF84F84C6033463A462946732081
:1016A00020F05AFFF8BD2260EEE740B94FF050033A
:1016B00083F31188BFF36F8FBFF34F8FFEE710B531
:1016C00084B01C46844653B192B189B94FF050039F
:1016D00083F31188BFF36F8FBFF34F8FFEE74FF097
:1016E000500383F31188BFF36F8FBFF34F8FFEE773
:1016F0006AB150230393039B502B13D04FF0500338
:1017000083F31188BFF36F8FBFF34F8FFEE700297C
:10171000EFD04FF0500383F31188BFF36F8FBFF307
:101720004F8FFEE7039B012384F8463000949DF819
:1017300018306046FFF7A1FF204604B010BD40B945
:101740004FF0500383F31188BFF36F8FBFF34F8FB8
:10175000FEE7F0B583B00D461446064601FB00F0E7
:10176000503001F0ADFF074650B1002380F84630FD
:101770000090234600F1500229463046FFF77DFFD6
:10178000384603B0F0BD40B94FF0500383F31188E1
:10179000BFF36F8FBFF34F8FFEE710B50C46884243
:1017A00008D24FF0500383F31188BFF36F8FBFF35C
:1017B0004F8FFEE702220021FFF7C1FF00B18463D3
:1017C00010BDF0B587B0039288B10E461D460446A1
:1017D000B1B1022D20D1E36B012B1DD04FF050038E
:1017E00083F31188BFF36F8FBFF34F8FFEE74FF086
:1017F000500383F31188BFF36F8FBFF34F8FFEE762
:10180000036C002BE5D04FF0500383F31188BFF336
:101810006F8FBFF34F8FFEE701F0EEF9074658B91F
:10182000039B002B5CD04FF0500383F31188BFF370
:101830006F8FBFF34F8FFEE7002751E0204620F067
:101840006FFC01460095039B32465A2020F0BEFEF5
:101850002A4631462046FFF74AFE636A7BB948B103
:101860004FF0E0234FF08052C3F8042DBFF34F8FA9
:10187000BFF36F8F02F078F8012007B0F0BD04F1DC
:10188000240001F0C3F80028F4D04FF0E0234FF01B
:101890008052C3F8042DBFF34F8FBFF36F8FE9E77A
:1018A00002F062F8204620F03BFC01460095039BC5
:1018B00032465A2020F08AFE0020DEE704A801F01C
:1018C00035F9012719E0002384F8443021E0002392
:1018D00084F8453023E02046FFF756FE00F014FF61
:1018E00002F020F8A26BE36B9A42A7D3022DA5D099
:1018F000039B002BD4D0002FE0D002F035F800F08D
:101900005DFE02F00FF894F8442052B2B2F1FF3FAE
:10191000D9D094F8452052B2B2F1FF3FD7D002F0AF
:1019200023F803A904A801F00DF9D8B92046FFF760
:10193000C2FD0028CFD0039904F1100001F002F895
:101940002046FFF721FE00F0DFFE0028C8D14FF04F
:10195000E0234FF08052C3F8042DBFF34F8FBFF345
:101960006F8FBDE72046FFF70FFE00F0CDFE20464B
:1019700020F0D6FB01460095039B32465A2020F00A
:1019800025FE002079E748B108B50021816001609B
:10199000C1600B460A46FFF714FF08BD704710B53B
:1019A000024600210120FFF7CAFE0446FFF7EBFFC5
:1019B000204610BD2DE9F84390B10F4616461C464F
:1019C0000546B1B1022C20D1EB6B012B1DD04FF09D
:1019D000500383F31188BFF36F8FBFF34F8FFEE780
:1019E0004FF0500383F31188BFF36F8FBFF34F8F16
:1019F000FEE7036C002BE5D04FF0500383F3118812
:101A0000BFF36F8FBFF34F8FFEE702F0B1F8EFF334
:101A100011894FF0500383F31188BFF36F8FBFF329
:101A20004F8FAA6BEB6B9A4201D3022C2BD195F806
:101A300045804FFA88F8AB6B284620F071FB0146D1
:101A40003246602020F046FD224639462846FFF700
:101A50004EFDB8F1FF3F09D008F101035BB285F8F4
:101A60004530012089F31188BDE8F8836B6A0BB912
:101A70000120F7E705F1240000F0C8FF68B176B156
:101A800001203060EEE7284620F04AFB014632464E
:101A9000602020F01FFD0020E4E70120E2E70120A4
:101AA000E0E770B12DE9F0410C460546036C8BB1BF
:101AB0004FF0500383F31188BFF36F8FBFF34F8F45
:101AC000FEE74FF0500383F31188BFF36F8FBFF32E
:101AD0004F8FFEE703683BB302F04AF8EFF311863D
