:020000040800F2
:10C0000000E4012021E90508C1980108C39801084E
:10C01000C5980108C7980108C998010800000000E8
:10C020000000000000000000000000006193010813
:10C03000CB9801080000000001940108E98E010876
:10C0400089E9050889E9050889E9050889E90508F4
:10C0500089E9050889E9050889E9050889E90508E4
:10C0600089E9050889E9050889E9050889E90508D4
:10C07000CD980108DD98010889E9050889E90508D6
:10C0800089E9050889E9050889E905080000000033
:10C09000000000000000000000000000ED98010812
:10C0A00089E90508F998010889E9050889E9050879
:10C0B00089E9050889E9050889E9050889E9050884
:10C0C00089E9050889E9050889E9050889E9050874
:10C0D00089E9050861F5030889E905080000000001
:10C0E00089E9050889E9050889E9050800000000D3
:10C0F00000000000000000000000000089E90508C1
:10C100000000000089E9050889E9050889E90508B2
:10C11000000000000000000000000000000000001F
:10C1200089E9050889E905080999010889E90508E7
:10C1300089E9050800000000000000000000000080
:10C1400000000000000000000000000089E9050870
:10C150001999010889E9050889E9050889E90508A7
:10C1600089E9050889E905080000000000000000D1
:10C1700000000000000000000000000000000000BF
:10C180000000000089E90508000000000000000030
:08C1900089E9050889E90508A9
:10C1C0000348044B834202D0034B03B11847704726
:10C1D0001009002010090020000000000548064951
:10C1E0000B1AD90F01EBA301491002D0034B03B185
:10C1F00018477047100900201009002000000000B7
:10C2000010B5064C237843B9FFF7DAFF044B13B19E
:10C210000448AFF300800123237010BD10090020F3
:10C22000000000008CE9050808B5044B1BB1044967
:10C230000448AFF30080BDE80840CFE700000000ED
:10C24000140900208CE90508F0B400EB4003DFF886
:10C25000880000EBC30000F118063069F7687568C4
:10C26000874232D3B368DC1B631E934214D37D191B
:10C27000D01900BF11F8013B05F8013B013A05D088
:10C2800011F8013B05F8013B013AF3D1BFF35F8F91
:10C29000F0600120F0BC7047C018904219D37819A3
:10C2A000121B11F8013B00F8013B013CF9D1141CB1
:10C2B00005D011F8013B05F8013B013AF9D1BFF374
:10C2C0005F8FF4600120F0BC7047C01B01389042C2
:10C2D000CDD20020F0BC704700E40120014B18686B
:10C2E000704700BF0002002070B50D4E0D4D761B4B
:10C2F000B61006D00024013455F8043B9847A642F6
:10C30000F9D1094E094D761B52F040FBB61006D00C
:10C310000024013455F8043B9847A642F9D170BD7A
:10C320001C4207081C420708204207081C42070855
:10C3300001F0FF01102A2BDB10F0070F08D010F8D6
:10C34000013B013A8B422DD010F0070F42B3F6D1DA
:10C35000F0B441EA012141EA014122F007047FF0F3
:10C3600000070023F0E80256083C85EA010586EA4A
:10C37000010685FA47F5A3FA87F586FA47F6A5FA86
:10C3800087F68EB9EED1F0BC01F0FF0102F0070292
:10C3900032B110F8013B013A83EA010313B1F8D13D
:10C3A0000020704701387047002D06BF354603381E
:10C3B000073815F0010F07D1013015F4807F02BF57
:10C3C000013015F4C03F0130F0BC0138704700BFA8
:10C3D000032A70B412D940EA0105AD0704460B46A2
:10C3E00020D11946204653F8045B54F8046BAE4242
:10C3F00018D1043A032A20461946F2D8541E72B1C5
:10C4000003780A789A4208BF241806D00CE010F886
:10C41000013F11F8012F934206D1A042F7D100202D
:10C4200070BC7047541EEBE7981A70BC704700BF91
:10C43000844641EA000313F003036DD1403A41D32F
:10C4400051F8043B40F8043B51F8043B40F8043BEE
:10C4500051F8043B40F8043B51F8043B40F8043BDE
:10C4600051F8043B40F8043B51F8043B40F8043BCE
:10C4700051F8043B40F8043B51F8043B40F8043BBE
:10C4800051F8043B40F8043B51F8043B40F8043BAE
:10C4900051F8043B40F8043B51F8043B40F8043B9E
:10C4A00051F8043B40F8043B51F8043B40F8043B8E
:10C4B00051F8043B40F8043B51F8043B40F8043B7E
:10C4C000403ABDD2303211D351F8043B40F8043B1E
:10C4D00051F8043B40F8043B51F8043B40F8043B5E
:10C4E00051F8043B40F8043B103AEDD20C3205D32E
:10C4F00051F8043B40F8043B043AF9D2043208D026
:10C50000D2071CBF11F8013B00F8013B01D30B8897
:10C5100003806046704700BF082A13D38B078DD075
:10C5200010F003038AD0C3F10403D21ADB071CBF47
:10C5300011F8013B00F8013B80D331F8023B20F8B1
:10C54000023B7BE7043AD9D3013A11F8013B00F8EA
:10C55000013BF9D20B7803704B7843708B78837072
:10C5600060467047F0B4860746D0541E002A3CD07F
:10C57000CAB2034602E014F1FF3436D303F8012BAC
:10C580009D07F8D1032C29D9CDB245EA05250F2CFA
:10C5900045EA054533D9A4F11006360903F1200711
:10C5A00007EB061703F1100242E9045542E9025570
:10C5B0001032BA42F8D1721C14F00C0F03EB0212C5
:10C5C00004F00F0613D0331F23F003030433134486
:10C5D00042F8045B9342FBD106F003042CB1C9B2CC
:10C5E0001C4403F8011B9C42FBD1F0BC704734464D
:10C5F0001346002CF3D1F8E714460346C2E71A4667
:10C600002646E0E72DE9F04757EC106B84B0002F89
:10C61000894692461946DDE90D545EDB0023662DFE
:10C620000B7018D0462D16D025F02003452B36D0A0
:10C6300003AA02ABCDE9003202210C9B4A4647EC2B
:10C64000106B01F0BFFB672D804636D11AF0010F49
:10C6500035D1039B1CE003AA02ABCDE900320321D4
:10C660000C9B4A4647EC106B01F0ACFB804600EB9C
:10C67000090598F80030302B34D00C9B1B681D4402
:10C68000304639460022002305F0FAFFD0B12B4690
:10C69000A3EB08034046236004B0BDE8F08703A97C
:10C6A00002AB09F10109CDE900314A460C9B022198
:10C6B00047EC106B01F086FB8046472DC6D008EB97
:10C6C0000905DDE7039B9D42E2D930215A1C039204
:10C6D0001970039BAB42F9D3DAE707F100431F4619
:10C6E0002D239CE7002200233046394605F0C8FF81
:10C6F0000028C2D10C9AC9F101031360BFE700BF43
:10C70000F0B400290446BABF49422D232B2309293E
:10C7100004F8022B82B043702DDD0DF1070635467B
:10C72000194F01E01546194687FB0132CB17C3EBC1
:10C73000A20303EB8302A1EB42023032632905F826
:10C74000012C05F1FF32EDDC3033A91EDBB28E4245
:10C7500002F8013C0BD9214601E012F8013B01F837
:10C76000013BB242F9D10DF109035D1B2C44201AA3
:10C7700002B0F0BC704730313023041DC1708370AB
:10C78000201A02B0F0BC7047676666662DE9F04F6C
:10C790008DB00C46DDF8588016461F46054602F05F
:10C7A000D7FB03680693184600F04AFF00230A935C
:10C7B000D8F800300790073323F0070393ED007B90
:10C7C00008338DED047BD4F800B094F818A0C8F8B5
:10C7D0000030DDE9042323F000499046104684ED43
:10C7E000127B49464FF0FF32AF4B05F07BFF40B95B
:10C7F000404649464FF0FF32AB4B05F055FF00284D
:10C800007BD0DDE9040102460B4605F06BFF0028F2
:10C8100040F035826168481C4BF480622CD0BAF13C
:10C82000670F64D0BAF1470F61D0002322600AA8D5
:10C83000039309AB02900093CDF804A00DF12303FC
:10C840009DED040B2846FFF7DDFE8046BAF1650F2B
:10C85000099B33D8013B1946524604F15000099315
:10C86000FFF74EFF0A9A1318012A8146236140F30D
:10C870007E810133236133E0062161600023226061
:10C880000AA8039309AB02900093CDF804A00DF120
:10C8900023039DED040B2846FFF7B4FE0AF0DF03E7
:10C8A000472B8046D2D1099BD91C80F2E280AAF1A5
:10C8B000020A5FFA8AFABAF1650FCBD9BAF1660FAC
:10C8C00000F0DE800A9A9A4240F3E580002BD4BF44
:10C8D000C3F1020101210A442261A3654FF000095E
:10C8E0009DF823300BB32D2384F843301DE000293D
:10C8F00040F0138101216160C0E7DDE904010022FD
:10C90000002305F0C7FE10B12D2384F8433067489B
:10C9100067492BF0040203232260BAF1470F94BF4A
:10C920008046884623614FF00009009733460BAAE2
:10C930002146284600F0C2F9013024D0236858056A
:10C940002CD42369424631462846B84701301AD0D4
:10C9500022680B98E36892071AD51A1A002A17DD85
:10C9600004F119094FF0000804E0E3680B981A1A63
:10C9700042450DDD01234A4631462846B84701307D
:10C9800008F10108F1D14FF0FF300DB0BDE8F08F94
:10C990009842B8BF18460DB0BDE8F08FBAF1650FE8
:10C9A00033D900220023D4E9120105F069FE0028E2
:10C9B00000F0828001233F4A31462846B8470130C3
:10C9C000E1D0DDE909239A4202DB2268D107C0D514
:10C9D000DDE9062331462846B8470130D3D00A9B0B
:10C9E000012BB5DD04F11A094FF0000803E00A9BA2
:10C9F000013B4345ACDD01234A4631462846B84752
:10CA0000013008F10108F2D1BDE70A9A012A40F38A
:10CA10009A800123424631462846B8470130B2D0B9
:10CA2000DDE9062331462846B8470130ABD0002265
:10CA30000023D4E91201DDF828A005F021FE00282A
:10CA400000F09080BAF1010F40F3888004F11A0AD7
:10CA50004FF0000803E00A9B013B43457EDD0123C4
:10CA6000524631462846B847013008F10108F2D154
:10CA700089E7626893423FF71AAF4FF0670A21E7F0
:10CA8000002B626878DD2361002A00F0A680013265
:10CA90001A44226121E722682361D2077FF51DAF86
:10CAA0005A1C226119E700BFFFFFEF7F7C3F070898
:10CAB000803F0708281E0708099B002B63DD0A9B9F
:10CAC000D4F858A05345A8BF5346002B9B4608DD19
:10CAD000424631462846B84701303FF454AFD4F8B7
:10CAE00058A02BEAEB7BAAEB0B03002B40F38280D0
:10CAF00004F11A034FF000099A4604E0A36DA3EB7A
:10CB00000B024A4575DD0123524631462846B84797
:10CB1000013009F10109F1D135E7002322600AA8AB
:10CB2000039309AB02900093CDF804A00DF1230309
:10CB30009DED040B2846FFF765FD099BD91C804637
:10CB4000FFF6B5AE95E7D9073FF563AF424601233F
:10CB500031462846B84701303FF415AF4B4604F143
:10CB60005002F0E60AF1FF3308F10102F0E7226813
:10CB7000D2077FF5B5AE7CE6002A33D12168C9071C
:10CB800030D40122A8E60123494A31462846B84755
:10CB900001303FF4F8AEDDE90923134324D0DDE989
:10CBA000062331462846B84701303FF4ECAE099BD6
:10CBB000002B79DA04F11A0A4FF0000903E0099B0F
:10CBC0005B424B4570DD0123524631462846B8474B
:10CBD000013009F10109F2D1D5E62168C8077FF5D6
:10CBE0007CAE54E7023277E62268D3077FF5B1AE18
:10CBF000D5E79A46DDE909218A4202DB2368D80796
:10CC000009D5DDE9062331462846B84701303FF40F
:10CC1000BAAEDDE909215245A1EB0203D4BFA1EB75
:10CC20000A099946B9F1000F0BDD08EB0A024B46E1
:10CC300031462846B84701303FF4A5AEDDE9092367
:10CC40009B1A29EAE979A3EB0903002B7FF780AE51
:10CC500004F11A0A4FF0000807E0DDE909239B1AE6
:10CC6000A3EB090343457FF773AE012352463146D8
:10CC70002846B847013008F10108EED183E6059B4C
:10CC80000C490D4A002BBCBF2D2384F843302BF0F8
:10CC9000040323600323BAF1470F94BF88469046EC
:10CCA00023614FF0000940E642460A9B4BE600BF75
:10CCB000281E0708843F0708883F07082DE9F0472A
:10CCC0000C4691460A698968DDF820808A42B8BF1F
:10CCD0000A46C9F8002094F8431006461F4611B1D1
:10CCE0000132C9F80020236899065CD5D9F80020E4
:10CCF0000232C9F80020236813F0060F19461DD12F
:10CD0000E1688A1A002AD8BF194617DD04F1190A0A
:10CD1000002505E0E368D9F800209B1AAB420CDD42
:10CD20000123524639463046C047013005F101051E
:10CD3000F0D14FF0FF30BDE8F087216894F8433020
:10CD4000003318BF01238A060AD5E1185A1C302087
:10CD500081F84300224494F8451082F843100233CE
:10CD600004F1430239463046C0470130E1D0236820
:10CD7000A268216903F00603042B1DD08A4226DD38
:10CD80004FF00009521A91441A34002501E04D4534
:10CD90001DDA0123224639463046C047013005F1ED
:10CDA0000105F4D1C5E713F0060F13D094F8433012
:10CDB000003318BF0123D3E7D9F80000E3688A42A3
:10CDC000A3EB000323EAE379DCDC002BDCDC0020AE
:10CDD000BDE8F087E168D9F800208A1A002AD8BF98
:10CDE000194693DCAAE700BF2DE9F0430C46097E03
:10CDF00085B06E29064617460C98984604F1430EF6
:10CE00006DD039D9732900F0F68044D9752900F026
:10CE10000481782940F0118178232268DFF858C214
:10CE200084F845300168150651F8043B016040F173
:10CE3000A180D10744BF42F020022260002B00F005
:10CE400093801022002184F843106068A0600028BD
:10CE5000C0F2C880216821F004012160002B40F05D
:10CE6000A380002840F0C0807546082A00F0AC80FE
:10CE7000AEEB0503236141E0632900F0E5801AD899
:10CE8000002938D0582940F0D88084F8451022680D
:10CE9000DFF8E8C1C6E76F2900F0BF80702940F0D5
:10CEA000CC802268DFF8D0C142F0200278232260D3
:10CEB00084F84530B6E7642902D0692940F0BD8086
:10CEC00022680368110603F1040557D51968056047
:10CED0000B46002959DBDFF8A4C10A22B5E7036835
:10CEE000226861691D1D056015061B6802D4500685
:10CEF00000F1BD801960002375462361CDF80080E4
:10CF00003B4603AA21463046FFF7D8FE013020D029
:10CF10002A46236939463046C047013019D0226875
:10CF20000398E368920719D51A1A002A16DD04F14E
:10CF30001909002504E0E36803981A1AAA420DDDD6
:10CF400001234A4639463046C047013005F1010504
:10CF5000F1D14FF0FF3005B0BDE8F0839842B8BF83
:10CF6000184605B0BDE8F083226822F02002226056
:10CF7000102267E7500648BF9BB25AE75106A5D575
:10CF8000B3F9003005601946A3E76168A1602D2060
:10CF90000029C3F1000384F8430002DB22F00402FD
:10CFA0002260DFF8D8C00A22754600E00B46B3FBCA
:10CFB000F2F102FB113093421CF8000005F8010D5C
:10CFC000F4D2082A7FF454AF2368DB077FF550AF13
:10CFD000626823699A423FF74BAF302305F8013C62
:10CFE000013D45E7002BDFD19CF8003084F842304A
:10CFF00004F1420539E703686268191D01601D6884
:10D0000000212846FFF794F9002832D0401B6060C9
:10D010002061002384F8433070E72268036812F02F
:10D02000800F03F104051AD01B6805606F290CBF3F
:10D0300008220A22DFF844C004E7012384F84210E2
:10D04000236104F14205E4E703681A68191D01230E
:10D05000016004F1420584F842202361D9E712F00F
:10D06000400F0DBF1B6805601B880560DEE7198057
:10D0700041E76068CCE700BFA03F07088C3F070886
:10D080000EB410B5044683B008B1836963B106A835
:10D0900003460190059AA168204602F0AFFF03B055
:10D0A000BDE8104003B0704701F0E0FEEFE700BFBD
:10D0B0000FB410B50B4B1C6882B00CB1A36963B1FF
:10D0C00005A803460190049AA168204602F096FF45
:10D0D00002B0BDE8104004B07047204601F0C6FE23
:10D0E000EEE700BF0002002008B430B5002A9CB073
:10D0F000044635DB4FF4027302910691ADF814300B
:10D1000020A918D0013A0B460492079201911F9A68
:10D110004FF6FF7502A9ADF8165002F0F1FD421C62
:10D1200001DA8B232360029B00221A701CB0BDE839
:10D13000304001B070470B460492079201914FF6C0
:10D14000FF751F9AADF8165002A902F0D9FD431CD5
:10D1500001DA8B2323601CB0BDE8304001B070477A
:10D160008B2202604FF0FF30F5E700BF0CB430B502
:10D17000204B00299DB01C6837DB4FF402730290EE
:10D180000690ADF8143021A819D001390346209A31
:10D190000491079101904FF6FF7502A92046ADF862
:10D1A000165002F0ADFD421C01DA8B232360029B76
:10D1B00000221A701DB0BDE8304002B0704703462F
:10D1C0000491079101904FF6FF75209AADF8165023
:10D1D00002A9204602F094FD431C01DA8B23236050
:10D1E0001DB0BDE8304002B070478B2323604FF084
:10D1F000FF30F5E7000200200CB470B59CB020AC05
:10D200000B4E54F8042B0291234606916FF0004513
:10D2100002A901940795CDE9045602F071FD029B25
:10D2200000221A701CB0BDE8704002B0704700BF09
:10D230000802FFFF0EB430B59CB01FAB0C4C0D4D77
:10D2400053F8042B0193014602910691206802A92C
:10D250006FF000440794CDE9044502F051FD029BB4
:10D2600000221A701CB0BDE8304003B0704700BF08
:10D27000000200200802FFFF000000000000000084
:10D28000A2EB0300704700BF02780B78012A28BF89
:10D290009A42F5D16DE9044540EA0104CDE90267FF
:10D2A0006FF0000C4FEA447212B380EA010414F0EC
:10D2B000070F6AD100F0070420F0070004F003050F
:10D2C00021F007014FEAC505F0E8042314F0040F2C
:10D2D000F1E804670CFA05F462EA040266EA04065F
:10D2E0000AD063EA0403624667EA0407664603E07D
:10D2F000F0E80423F1E8046782FA4CF582EA0604B8
:10D30000A4FA8CF46CBB83FA4CF583EA0705A5FA02
:10D310008CF595B950E9022351E9026782FA4CF580
:10D3200082EA0604A4FA8CF483FA4CF583EA070532
:10D33000A5FA8CF52543DBD09CB92DBAB5FA85F456
:10D3400024F0070427FA04F1DDE9026723FA04F365
:10D3500003F0FF0001F0FF01FDE80445A0EB010030
:10D36000704724BAB4FA84F424F0070426FA04F1CE
:10D37000DDE9026722FA04F202F0FF0001F0FF018A
:10D38000FDE80445A0EB0100704714F0030F3CD109
:10D3900010F0030428D150F8082B51F8083B82FA0A
:10D3A0004CF582EA0305A5FA8CF55DB950F8042C1A
:10D3B00051F8043C82FA4CF582EA0305A5FA8CF593
:10D3C000002DE8D02DBAB5FA85F424F0070423FA2D
:10D3D00004F122FA04F202F0FF0001F0FF01FDE87F
:10D3E0000445A0EB010070474FEAC40420F003009D
:10D3F00050F8082B21F0030151F8083B0CFA04F413
:10D4000062EA040263EA0403C9E710F003041AD0D5
:10D41000A1EB040120F00300E40750F8042B06D030
:10D420000FD28B785FFAA2F4E41A06D12BB1CB7835
:10D430005FFAB2F4E41A00D11BB920465DF8104B34
:10D44000704701F1040150F8042BCC0721F00301CF
:10D4500051F8043B48D824D222F07F4482FA4CF59C
:10D4600094EA1325A5FA8CF50AD165B951F8043B65
:10D4700084EA0204B4EB036F0ED150F8042BEBE7FF
:10D480004FEA132355E035F07F454DD10878FDE88C
:10D490000445C0F1000070474FEA126203F0FF0339
:10D4A00047E002EA1C4482FA4CF594EA1345A5FAD7
:10D4B0008CF50AD165B951F8043B84EA0204B4EB57
:10D4C000034F0CD150F8042BEBE74FEA134330E045
:10D4D00015EA1C4528D10B884FEA124229E04FEA91
:10D4E000124203EA1C4324E002F0FF0482FA4CF5E6
:10D4F00094EA1365A5FA8CF50AD165B951F8043B95
:10D5000084EA0204B4EB032F09D150F8042BEBE7B3
:10D510004FEA13630DE015F0FF0F05D10B684FEADA
:10D52000122223F07F4304E04FF00000FDE80445A1
:10D53000704712BA1BBA82FA4CF482EA0304A4FAC6
:10D540008CF5B5FA85F402FA04F203FA04F34FEA13
:10D550001260FDE80445A0EB1360704780EA010209
:10D56000844612F0030F4FD111F0030F32D14DF862
:10D57000044D11F0040F51F8043B0BD0A3F101321C
:10D580009A4312F0803F04BF4CF8043B51F8043B2F
:10D5900016D100BF51F8044BA3F101329A4312F0A7
:10D5A000803FA4F101320BD14CF8043BA24312F0AE
:10D5B000803F04BF51F8043B4CF8044BEAD02346AB
:10D5C0000CF8013B13F0FF0F4FEA3323F8D15DF85D
:10D5D000044B704711F0010F06D011F8012B0CF825
:10D5E000012B002A08BF704711F0020FBFD031F89D
:10D5F000022B12F0FF0F16BF2CF8022B8CF8002024
:10D6000012F47F4FB3D1704711F8012B0CF8012BA6
:10D61000002AF9D1704700BF0000000000000000A0
:10D6200000000000000000000000000000000000FA
:10D6300000000000000000000000000000000000EA
:10D6400090F800F06DE9024520F007016FF0000C42
:10D6500010F0070491F820F040F049804FF00004EA
:10D660006FF00700D1E9002391F840F000F10800C5
:10D6700082FA4CF2A4FA8CF283FA4CF3A2FA8CF3FD
:10D680004BBBD1E9022382FA4CF200F10800A4FA64
:10D690008CF283FA4CF3A2FA8CF3E3B9D1E90423B8
:10D6A00082FA4CF200F10800A4FA8CF283FA4CF3EF
:10D6B000A2FA8CF37BB9D1E9062301F1200182FAA9
:10D6C0004CF200F10800A4FA8CF283FA4CF3A2FAAF
:10D6D0008CF3002BC6D0002A04BF04301A4612BABD
:10D6E000B2FA82F2FDE8024500EBD2007047D1E9C0
:10D6F000002304F00305C4F100004FEAC50514F04F
:10D70000040F91F840F00CFA05F562EA05021CBF1F
:10D7100063EA050362464FF00004A9E7002A46D0F9
:10D7200040EA010313F00303F0B425D1032A23D9FF
:10D7300004680D68AC423CD1043A35D0A4F10135FF
:10D7400025EA040414F0803F2ED1071D0D1D0DE0C5
:10D7500057F8043B0E68A3F10134B34224EA0304F2
:10D7600027D1043A20D014F0803F1DD1032A294646
:10D77000384605F10405EBD803780D789D4202F197
:10D78000FF360ED186B17BB1044602E082180BD081
:10D7900053B114F8013F11F8015FAB42A6EB04024C
:10D7A000F4D0581BF0BC70470020F0BC7047104606
:10D7B000704703780D789D4202F1FF36E3D0F0E721
:10D7C0002DE9F04F0124254688461646AE462A46E6
:10D7D000ADF21C4D07461C4600214FF0FF35531893
:10D7E0009C4206EB05000ED9805C16F803C0844508
:10D7F00080F0CC8019460122A3EB050E53189C4201
:10D8000006EB0500F0D8CDF80CE04FF0010E7246A3
:10D8100000214FF0FF3053189C4206EB000C0FD94B
:10D820001CF802C016F80390E14540F2B680194694
:10D830000122A3EB000E53189C4206EB000CEFD81C
:10D840006B1C01309842029328BFCDE9020E05AB54
:10D850000DF2144243F8044F9342FBD1631E009330
:10D86000002C00F01681009B06AD721E98190195E0
:10D8700012F8011FD34323443344824245F8213038
:10D88000F6D1DDE902233046F118FEF7A1FD0028AC
:10D8900040F09680029B013B0593F3188246814637
:10D8A000049307EB090E009B019A1EF8033052F80F
:10D8B0002330EBB1BAF1000F03D0039A934238BF83
:10D8C000A31A99444FF0000AA8EB04034B45E8D291
:10D8D00007EB080044F4006102F0BCFD8044A8EBB3
:10D8E00004034B45DDD200200DF21C4DBDE8F08F46
:10D8F000029B534538BF53461D46009B9D4218D29C
:10D9000005EB0902715DB85C88423A4406EB0503F9
:10D9100034D1A4F1020CB444C6F1010B05E013F8B4
:10D92000010F12F8011F884228D19C450BEB03051B
:10D93000F5D1029B9A4580F0A980059B049A4B443F
:10D940001178FA5C91423B4440F0A0800AEB090553
:10D950003D44049A05E012F8010D13F8011D8842B8
:10D9600003D1AB42A3EB0E0CF5D10AF1010AE2455B
:10D970007DD8039B9944A4EB030AA5E7029BC3F15E
:10D9800001039944A9444FF0000A9DE70CD04FF0E1
:10D99000010E0D467246714421E70BD04FF0010E87
:10D9A00008467246714436E7724512BF0132194685
:10D9B000012214E7724512BF0132194601222AE7FB
:10D9C000029AA31A934238BF1346511E013305939E
:10D9D000731804910393002506EB020B07EB050E69
:10D9E000009A01991EF8023051F8233083B11D448A
:10D9F000A8EB04039D42F1D907EB080044F4006151
:10DA000002F028FD8044A8EB04039D42E6D96AE7B2
:10DA1000029B934217D2EA189BF80030B95C9942F6
:10DA20003A4429D1A4F1020CB4445B46C6F1010981
:10DA300005E013F8010F12F8011F88421ED163455B
:10DA400009EB030AF5D1049B5A1C10D0EA18039B7A
:10DA5000B95C1B7899423A4416D1039B05E013F850
:10DA6000010D12F8011D88420ED1B342F7D1704664
:10DA70000DF21C4DBDE8F08FDDF808A0029BC3F14C
:10DA800001031D445544B3E7059BB0E7DDF808C02A
:10DA90006BE706AB0193F4E62DE9F0410E460978F9
:10DAA00090B00446002958D07278002A00F08D808A
:10DAB000B078002855D0F378002B00F08D803379B2
:10DAC000002B5FD03046FFF7BBFD804640F400716D
:10DAD000204602F0BFFC804572D8B8F1FE0F00F27C
:10DAE0009280A0EB0807402208F101016846274414
:10DAF000FEF738FDB8F1000F10D0731E03EB0805D8
:10DB00005FFA88F013F8012F10A902F03F020A44CF
:10DB1000F11A0144AB4202F8401CF3D1013C10AAB7
:10DB200014F8083003F03F03134413F8403C1C443E
:10DB3000A74203D238E02C44A74235D314F808504A
:10DB400010AB05F03F051D4442463146204615F80E
:10DB5000405CFEF73DFC0028EDD1204610B0BDE84A
:10DB6000F081237842EA014253B3601C617800E0FF
:10DB7000204641EA0343441C11B39A424178F7D14D
:10DB8000441EEAE72278DAB1306800BA02E0834244
:10DB900008D00C4642EA03236278611C002AF6D1C1
:10DBA00083420DD1033CD8E717F8083007EB080093
:10DBB00033B14FF4006102F04DFC0744A742ADD2EF
:10DBC0000024204610B0BDE8F08102F0DFFB0446DF
:10DBD000204610B0BDE8F0811204237842EA0162C9
:10DBE00042EA0022002BEBD01B02601C617800E0AF
:10DBF00020460B431B02441C0029E1D09A42417885
:10DC0000F6D1841EA9E70146434620463246FFF777
:10DC1000D7FD0446A1E700BF70B5141E9AB00546B3
:10DC20002BDB1A464FF4027300910491ADF80C30CF
:10DC300013D0013C4FF6FF761E9B02946946059473
:10DC4000ADF80E6002F05CF8421C01DA8B232B6009
:10DC5000009B00221A701AB070BD1E9B02944FF6F2
:10DC6000FF7669460594ADF80E6002F049F8431C52
:10DC700001DA8B232B601AB070BD8B2303604FF049
:10DC8000FF30F8E710B5054C82B0009313460A4602
:10DC900001462068FFF7C0FF02B010BD000200205F
:10DCA0002DE9F04F03690F69BB4283B0C0F2868053
:10DCB000013F01F1140600F1140A56F827305AF812
:10DCC0002720BC000133009406EB04099A42544417
:10DCD000B2FBF3F801943AD300252A46B646D4465F
:10DCE0005EF8044BDCF800301FFA84FB08FB0B5590
:10DCF0004FEA154B240C08FB04B4ADB2551BA2B27D
:10DD0000C2EB134215FA83F302EB23429BB243EAC0
:10DD10000243F1454FEA14454CF8043B4FEA2242D6
:10DD2000DED2009B5AF803308BB9019A131F9A4533
:10DD30000CD252F8043C4BB9A2F1080302E01A6875
:10DD4000043B1AB99A4507F1FF37F8D30761044637
:10DD500001F0F4FB00282DDB08F1010850460023F8
:10DD600056F8041B05688AB29A1A0B0C12FA85F24F
:10DD7000C3EB154303EB224392B242EA0342B1459F
:10DD800040F8042B4FEA2343EAD25AF827200AEB43
:10DD900087037AB91A1F92450BD253F8042C42B963
:10DDA000083B02E01A68043B1AB99A4507F1FF37AD
:10DDB000F8D32761404603B0BDE8F08F002003B0E0
:10DDC000BDE8F08F2DE9F04F55EC104B97B0466A47
:10DDD000209F039182460A920793CDE90045002EC9
:10DDE00000F03683316851B172684A600123934074
:10DDF0008B6001F005F9DAF8243000221A602E1E3B
:10DE0000B4BF012300233B60774BBCBF26F0004624
:10DE10000196B34300F0B0809DED007B002200230B
:10DE200051EC170B8DED047B04F02AFC054678B10C
:10DE3000079A01231360219B002B00F023836B4B77
:10DE4000219A1360013B0293029817B0BDE8F08F4E
:10DE5000DDE9047814AA15A948EC107B504601F0BE
:10DE6000A1FC340D834640F09D80DDE914542C4420
:10DE700004F23243202B40F3CD83C3F140039E4094
:10DE8000009B04F2124023FA00F0304304F016F92C
:10DE9000A1F1F87301210246013C0E91104619468A
:10DEA0000022534B03F0CCFF49A3D3E9002304F035
:10DEB0007FF949A3D3E9002303F0C4FF06462046B7
:10DEC0000F4604F00BF946A3D3E9002304F070F9E0
:10DED00002460B463046394603F0B4FF06460F466D
:10DEE00004F016FC0022814600233046394604F037
:10DEF000D1FB002840F0B9822C1BB9F1160F04F1B8
:10DF0000FF3800F299823B4B03EBC903D3E90023AE
:10DF1000DDE9040104F0BEFB002871D00023B8F154
:10DF2000000F09F1FF390D93C0F28C820023099391
:10DF3000B9F1000F6ADA099BCDF81890A3EB090339
:10DF40000993C9F100030C93039BDAF82400092B11
:10DF50004FF0000964D8052B40F35A83043B039328
:10DF60000024039B023B032B00F26486DFE813F0DE
:10DF7000660463043E045604079A42F20F7313606A
:10DF8000009BC6F31306334318D1219B002B00F0EE
:10DF90006086194B02930833219A0298136017B0D8
:10DFA000BDE8F08FC8F3130141F07F530E953A4658
:10DFB000A4F2FF3443F44013149D6FE7219B002B20
:10DFC00040F003840D4B02933EE700BFAFF30080A7
:10DFD00061436F63A787D23FB3C8608B288AC63F6F
:10DFE000FB799F501344D33F0000F07F291E0708A0
:10DFF0000000F83F98EB0508B43F0708C03F07084A
:10E00000B8F1000FC0F2A3840D90099000230C9387
:10E01000039BCDF81890092BC844DAF824009AD94C
:10E02000002301240393CDE90A344FF0FF33089312
:10E030000021089B41600F93504600F0A1FF029021
:10E04000002800F0FF85DAF82430029A1A60089B55
:10E050000E2B00F20A81002C00F00781069900299E
:10E0600040F37784B14B01F00F0203EBC20393ED51
:10E07000007B0C11E2068DED107B40F11484AC4B5B
:10E08000DDE90401D3E9082304F0BCF9CDE900017E
:10E0900004F00F0403267CB1DDE91001A44DE30771
:10E0A00004D5D5E9002304F083F80136641005F1A6
:10E0B0000805F4D1CDE91001DDE90001DDE9102307
:10E0C00004F0A0F9CDE900010D9B53B1DDE9004555
:10E0D0000022984B2046294604F0DCFA002840F044
:10E0E0003585304603F0FAFFDDE9002304F060F8DF
:10E0F000914B002203F0A6FE089B0446A1F1507547
:10E10000002B00F00884069B1293089B1093DDE916
:10E1100000673946304604F0FBFA009003F0DEFF5A
:10E1200002460B463046394603F08AFE7F4B009A82
:10E130000F461099064603EBC1030B980299303243
:10E14000CDE90045D5B24C1C53E90223002800F06C
:10E15000A1840020794904F055F9DDE9002303F09A
:10E160006FFE029B32461D703B46CDE9000104F074
:10E17000AFFA002840F0DE8432463B4600206D496D
:10E1800003F05EFE02460B46DDE9000104F0A0FA52
:10E19000002840F03D85109B012B62D0029ACDF8FB
:10E1A00040901344CDF84C80DDE90089CDF800B0F3
:10E1B000D3469A460EE032463B4600205D4903F0C6
:10E1C0003FFE42464B4604F065FA002840F0FC84CE
:10E1D00054453FD0404649460022594B03F0E8FFE2
:10E1E0000022574B804689463046394603F0E0FF0F
:10E1F0000F46064604F08CFA054603F06FFF024610
:10E200000B463046394603F01BFE3035EDB204F8BC
:10E21000015B42464B4606460F4604F03BFA002897
:10E22000C9D0129BDA460133DDF800B00693594697
:10E23000504600F0E5FE00232370079B1A46069B1C
:10E240001360219B002B3FF4FFAD02981C6017B0B8
:10E25000BDE8F08FDA46DDF84090DDF84C80DDF85F
:10E2600000B0DDE90434CDE90034159B002BC0F289
:10E27000C680069A0E2A00F3C2802C4B03EBC20321
:10E28000D3E900890A9B002B17DA089F002F14DCC2
:10E2900040F05A8300222B4B4046494603F088FF4A
:10E2A000DDE9002304F00AFA002800F0D283089F79
:10E2B0003D460A9B029CDB43DEE2DDE90045424627
:10E2C0004B462046294604F09DF804F021FA064604
:10E2D000009003F003FF42464B4603F069FF0246FD
:10E2E0000B4620462946029C3546303503F0A8FDF2
:10E2F000069E04F8015B089D0136012D02460B467F
:10E30000069652D000220E4B03F052FF002200234B
:10E3100006460F4604F0B4F9002888D1CDF800B0C5
:10E320000125DDF820B0CDF80CA01AE098EB050827
:10E3300088EC05080000F03F00001C400000E03FB2
:10E3400000002440000014400022BF4B03F030FFC7
:10E350000022002306460F4604F092F9002840F000
:10E360006D8342464B463046394604F04BF804F084
:10E37000CFF9824603F0B2FE42464B4603F018FF47
:10E3800002460B463046394603F05AFD01350AF184
:10E390003006AB4502460B4604F8016BD4D1DDF8DC
:10E3A00000B0CDF800A0DDF80CA01046194603F02F
:10E3B00049FD42464B4606460F4604F089F960B9CE
:10E3C00042464B463046394604F05AF900283FF49D
:10E3D0002EAF009BD9077FF52AAF14F8015C029A93
:10E3E000631E04E09A4200F0D78313F8015D392DD3
:10E3F00003F10104F6D06A1CD2B21A7017E70B9A27
:10E40000002A45D0039A012A40F36382089B5E1ECE
:10E410000C9BB342C0F241829E1B089B002BC0F2B2
:10E420001383099A14461A449844099201215046CC
:10E4300000F002FF05462EE00123B8F1000F0D9316
:10E44000BFF674ADC4F1010309934FF000086FE506
:10E45000102000F085FDCAF82400002800F0DD83BC
:10E46000C0E901660660C660C9E4484603F036FEAE
:10E4700032463B4604F004F900287FF43DAD09F133
:10E48000FF3939E5714B0293029817B0BDE8F08F60
:10E490000C9E099C0B9D002C0CDDB8F1000F09DDD2
:10E4A0004445099A2346A8BF4346D21A0992E41A62
:10E4B000A8EB03080C9BD3B10B9B002B00F07E81D3
:10E4C000002E10DD29463246504600F071FF5A46B4
:10E4D00001460546504600F0C5FE594607465046DF
:10E4E00000F08EFDBB460C9B9A1B40F06881012119
:10E4F000504600F0A1FEB9F1000F074600F39080EE
:10E50000039B012B40F3668100260120B9F1000F27
:10E5100040F09180404410F01F0077D0C0F12003FC
:10E52000042B40F39A83C0F11C00099B0344099318
:10E5300004448044099B002B05DD59461A46504689
:10E5400000F098FF8346B8F1000F05DD39464246DA
:10E55000504600F08FFF07460D9B002B40F01381C3
:10E56000089B002B40F3FA800B9B002B7ED1069B6F
:10E5700001330693029CDDF82080012607E059460E
:10E5800000230A22504600F061FD013683463946D9
:10E590005846FFF785FBB04500F1300004F8010B49
:10E5A000EDDC03464FF00009594601225046009326
:10E5B00000F060FF3946834600F0C0FF002814F8E1
:10E5C000012C40F37881631E029904E0994200F027
:10E5D0008D8113F8012D392A03F10104F6D001329F
:10E5E0001A703946504600F00BFD002D3FF41FAE67
:10E5F000B9F1000F05D0A94503D04946504600F0B7
:10E60000FFFC2946504600F0FBFC10E61C208CE77E
:10E610000124A6E4C3F12006009B03FA06F035E4CA
:10E6200001464A46504600F0C3FE039B012B0746B5
:10E6300040F3B98100263B6907EB8303186900F0BA
:10E64000ABFDC0F1200065E700002440281E07084C
:10E65000294600230A22504600F0F8FC0F9B002BAD
:10E66000054640F3CC82CDF818800893002C00F3C7
:10E670000D81002E40F0CB81A846009B0399029E9D
:10E6800003F001020B920A430A92089A731E1A447D
:10E69000099239465846FFF703FB29460090584631
:10E6A00000F04CFF424681463946504600F062FF7A
:10E6B000009BC26804463033002A41D101465846C7
:10E6C000089300F03BFF21460490504600F098FC70
:10E6D000049A089B1AB90A99002900F07C82B9F1C2
:10E6E000000F06F10104C0F27581039941EA09099E
:10E6F0000B9951EA090100F06D81002A00F3AB810A
:10E70000099A3370B24200F0B281594600230A22BE
:10E71000504600F09BFC4545834629464FF00003D8
:10E720004FF00A02504613D000F090FC41460546D7
:10E7300000230A22504600F089FC26468046A8E7BE
:10E7400001465046049300F05BFC0122049BC6E79F
:10E7500000F07CFC2646054680469AE7039B022B88
:10E7600073DC0B9B002B81D139465846FFF798FA92
:10E77000069A029C00F130030132069204F8013B34
:10E780004FF0000910E73946584600F0D7FE002840
:10E79000BFF6E6AE594600230A22504600F056FC6A
:10E7A000069B03F1FF380B9B8346002B7FF450AF91
:10E7B0000F9B002B40F31C820893DBE60C9A594612
:10E7C000504600F0F5FD834691E6AC4B02930333CF
:10E7D000FFF7E2BBDDE9001200297FF495AEC2F33A
:10E7E0001303002B00F0EA80009E8EE601230B93BA
:10E7F0000A9D002D5ADD0F9508950021172D4160C7
:10E800007FF71AAC012204235B0003F11406AE4229
:10E81000114602F10102F7D941600DE401230B9387
:10E820000A9B069A13440F930133012B1D4608934C
:10E83000B8BF0125E1E700230B93F1E700230B9319
:10E84000D6E70F9B0893CDF81880089B002B7FF428
:10E8500030AD39460522504600F0F8FB0146074628
:10E86000584600F06BFE00287FF723AD029C069B04
:10E87000312204F8012B0133013339465046069307
:10E8800000F0BEFB002D7FF4BCAED0E4294622464A
:10E89000504600F0EFFD0546EBE60C9B0C96F31A94
:10E8A00099440026B9E50226FFF7F5BB01230A9338
:10E8B0000893FFF7BDBB03D1009BDB073FF583AE99
:10E8C000631E01E013F8012D302A03F10104F9D091
:10E8D00087E60E9A002A00F0328103F23343099A48
:10E8E0000C9E14461A44984409929FE5069A0132F8
:10E8F0000692029A3123137073E6304603F0EEFB62
:10E90000DDE9002303F054FC00225D4B03F09AFA8A
:10E910000446A1F1507500225A4BDDE9000103F0D5
:10E920008FFA22462B4606460F4603F0D1FE0028FA
:10E9300040F08E80224605F100433046394603F010
:10E94000A9FE00283FF48DAC00273D46B1E40D90B0
:10E9500078E500F0F880069B5C424B4B04F00F0218
:10E9600003EBC203D3E90023DDE9040103F020FC3B
:10E970002411CDE9000100F0E680444D0023022679
:10E98000E70705D5D5E9002303F012FC0136012382
:10E99000641005F10805F3D1002B3FF495ABCDE9E8
:10E9A0000001FFF791BB009B002B7FF443AEDDE934
:10E9B0000012C2F31303002B7FF43CAE344E16401A
:10E9C000002E3FF4A2AD099B0133099308F1010821
:10E9D00001269AE50699002A01F10101069112DD4E
:10E9E000594601225046039300F044FD39468346C0
:10E9F00000F0A4FD0028039B40F3E080392B00F0D9
:10EA0000D280009B3133A94633704546E9E56968F9
:10EA1000504600F0B5FA0446002800F004812B6946
:10EA200002339A0005F10C010C30FDF701FD21467F
:10EA30000122504600F01EFD80461EE6DDF800B0C3
:10EA4000DDF80CA0FFF7F3BBDDE908239C1AEDE429
:10EA500000273D460AE7069A392B02F10102069289
:10EA600000F0A1800133A94633704546B9E5069A06
:10EA70000132A9460692454696E500BFC03F070809
:10EA800000001C400000144098EB050888EC0508C5
:10EA90000000F07FDDE9000103F08AFB029B1D709E
:10EAA000109B012BCDE9000123D0109B029ACDF8D9
:10EAB00040901344C14698460022714B3046394677
:10EAC00003F076FB0F46064603F022FE054603F0F0
:10EAD00005FB303502460B463046394603F0B0F9A7
:10EAE00004F8015B444506460F46E5D1C846DDF80B
:10EAF0004090644B0022DDE9000103F0A3F93246A7
:10EB00003B4603F0C7FD002852D1DDE90023002079
:10EB10005C4903F095F932463B4603F0D9FD0028E5
:10EB20003FF49FAB00E0144614F8013C302B04F195
:10EB3000FF32F8D0129B01330693FFF778BB149B8A
:10EB4000C3F13603CBE60226FFF7BEBA089B002BC3
:10EB50003FF4D3AE0F9F002F7FF783AB0022484BCB
:10EB60002046294603F024FB04460D46701CCDE9DF
:10EB7000004503F0B3FA22462B4603F019FB424B43
:10EB8000002203F05FF9069B1097013B0446A1F1B8
:10EB900050751293FFF7BBBA069A013206923122E2
:10EBA0001A70FFF744BB3922A946327045460AE580
:10EBB000129B0133069314F8015C10E47FF423AF39
:10EBC000DA077FF520AF19E7129B0133DA46069387
:10EBD000DDF800B003E4069A392B02F10102069237
:10EBE00006F10104DFD0B9F1000F3FF70AAF0AE7E1
:10EBF000039B022B3FF725AECDF81880B4E5039BAD
:10EC0000022B3FF71EAE0F9BCDF8188008932DE521
:10EC1000129B01330693FFF7E2BB02461B4B1C48D5
:10EC2000EA2101F02FFD02461A4B194840F2EA2171
:10EC300001F028FD002444602146504600F0A0F970
:10EC4000029078B9134B124800224FF4D57101F0AD
:10EC500019FD114B0293FFF7F7B83FF46BACC0F10D
:10EC60003C0062E4DAF82430029919604FF0FF3278
:10EC7000012308920A940F920B93FFF7F6BA00BF94
:10EC8000000024400000E03F00001C40C43F070893
:10EC9000DC3F070810400708B43F07080020704712
:10ECA000014900F029B900BF1D0801080020704784
:10ECB00070B54A1E682505FB02F50E4605F1740184
:10ECC00000F0DEFE044640B100210C30666005F124
:10ECD00068022160A060FDF745FC204670BD00BFC2
:10ECE0001E4B70B51D68AB69064643B34835D5E980
:10ECF0000134013B05D51EE0013B5A1C04F16804B8
:10ED000019D0B4F90C20002AF6D10025144B656601
:10ED1000C4E90055A560C4E90455A5612946E3602E
:10ED2000082204F15C00FDF71DFCC4E90D55C4E99F
:10ED30001255204670BD2C682CB12546D7E72846D1
:10ED400000F010F8D2E704213046FFF7B1FF044687
:10ED500028600028F1D10C233360EAE720EB050896
:10ED60000100FFFF2DE9F84F334B34491A688162E7
:10ED700090424FF00003C0E91233036504BF012342
:10ED800083610546FFF7ACFF68602846FFF7A8FFE0
:10ED9000A8602846FFF7A4FF6E68E86000240423FB
:10EDA000F3607466C6E90044B460C6E90444B46123
:10EDB000214606F15C000822FDF7D4FBDFF888B09D
:10EDC000AF68DFF888A0DFF88890DFF888801C4BF8
:10EDD000C6F83080C6E9086BC6E90AA92146FB607F
:10EDE00008227C66C7E90044BC60C7E90444BC61F2
:10EDF00007F15C00FDF7B6FBEE68124BC7F83080F8
:10EE0000C7E9087BC7E90AA92146F3607466C6E929
:10EE10000044B460C6E90444B46106F15C00082211
:10EE2000FDF7A0FB0123C6E9086BC6E90AA9C6F8ED
:10EE30003080AB61BDE8F88F20EB0508A1EC00083D
:10EE40000900010012000200FD020108250301086B
:10EE50006503010885030108024B0349186800F0A7
:10EE60004BB800BF20EB05081D080108836903B9F2
:10EE700078E77047704700BF704700BF704700BF1A
:10EE8000704700BF024B0349186800F00FB800BF7D
:10EE9000000200209DEC0008024B0349186800F0B6
:10EEA00005B800BF00020020ADEC00082DE9F041DC
:10EEB00010F148071BD088460026D7E90154013DD0
:10EEC0000FD4A389012B05F1FF3506D9B4F90E3013
:10EED0000133204601D0C04706436B1C04F168048F
:10EEE000EFD13F68002FE8D13046BDE8F0813E46C3
:10EEF0003046BDE8F08100BF2DE9F84310F1480726
:10EF00001FD0884606464FF00009D7E90154013D5D
:10EF100011D4A389012B05F1FF3508D9B4F90E30BE
:10EF200001332146304602D0C04749EA00096B1C34
:10EF300004F16804EDD13F68002FE6D14846BDE8F2
:10EF4000F883B9464846BDE8F88300BFF030704703
:10EF500000487047540300200048704754030020C5
:10EF6000024B0146186800F08BBD00BF0002002074
:10EF7000024B0146186800F02DBD00BF00020020C2
:10EF800070B5446A06460D465CB1E368A3B153F818
:10EF90002500E8B1026843F825200023C0E90333C7
:10EFA00070BD1020FFF7DCFF04467062E8B100235B
:10EFB000C0E901330360C36021220421304600F020
:10EFC000FBFC736AE060DB68002BE0D1002070BDC1
:10EFD000012101FA05F4621D3046920000F0ECFCBC
:10EFE0000028F3D0C0E90154D7E70246024B03489A
:10EFF000662101F047FB00BFC43F07082440070813
:10F0000030B5456A83B0044655B139B1636A4A6880
:10F01000DB6853F82200086043F8221003B030BDCB
:10F0200010200191FFF79CFF0199606220B1C0E9B7
:10F0300001550560C560E8E70246024B02488A2197
:10F0400001F020FBC43F070824400708F0B50C6915
:10F0500083B00D46064601F1140C0027DCF80000D1
:10F0600081B202FB0133190C000C02FB00109BB2B1
:10F07000013703EB0043BC424CF8043B4FEA10431A
:10F08000ECDC3BB1AA68A24207DD05EB8402013447
:10F0900053612C61284603B0F0BD69680193304686
:10F0A0000131FFF76DFF019B0746A0B12A6901936B
:10F0B0000232920005F10C010C30FDF7B9F9294636
:10F0C00030463D46FFF79CFF05EB8402019B5361F0
:10F0D00001342C61DEE70246024B0348B52101F002
:10F0E000D1FA00BF10400708244007082DE9F84373
:10F0F000264C089E1D46083384FB034C092D4FEA1D
:10F10000E373904607460C46C3EB6C0236DD0123E1
:10F1100000215B009A4201F10101FADC3846FFF759
:10F120002FFF68B30123B8F1090FC0E9043613DCDF
:10F130000A344FF0090845450CDDA5EB08052544C8
:10F1400014F8013B0146303B0A223846FFF77EFFA8
:10F15000A542F5D1BDE8F88304F109094E464444BF
:10F1600016F8013B0146303B0A223846FFF76EFF96
:10F17000B442F5D1A8F108044C44DCE70021CDE706
:10F180000246034B0348CE2101F07CFA398EE33866
:10F190001040070824400708020C12040346CAB9AD
:10F1A0000304102013F07F4F04BF1B02083013F03C
:10F1B000704F04BF1B01043013F0404F04BF9B008D
:10F1C0000230002B05DB13F0804F00F1010008BF77
:10F1D000202070470020E5E7036813F0070201468E
:10F1E00007D0DA0720D4980722D55B080B600120EE
:10F1F000704798B2B0B91B0C102013F0FF0F04BF7A
:10F200001B0A08301A0704BF1B0904309A0704BF01
:10F210009B080230DA0703D45B0800F1010005D037
:10F220000B6070471046E8E70020704720207047C9
:10F230009B080B600220704710B50C460121FFF7B8
:10F240009FFE024618B10123C0E9043410BD034BF0
:10F2500003484FF4A07101F015FA00BF10400708F1
:10F26000244007082DE9F04F0E691769BE4283B0AC
:10F270000C46154605DB3A462B4637460D461646E4
:10F280001C46D5E9011307EB06084345B8BF013119
:10F29000FFF776FE009000287FD0009B03F1140A50
:10F2A0000AEB8809CA4505D25346002143F8041BDE
:10F2B0009945FBD804F1140E0EEB860B05F11403EF
:10F2C000DE4503EB870753D2CDF80480984605E06E
:10F2D000090C28D1F3450AF1040A47D95EF8041B4A
:10F2E0008EB2002EF4D045465446002355F8041B38
:10F2F00020688AB21FFA80FC06FB02C2090C000CCF
:10F30000134406FB010202EB13429BB243EA0243A1
:10F31000AF4244F8043B4FEA1243E7D823605EF85B
:10F32000041C090CD6D0DAF8003040461A46544680
:10F330004FF0000C0588120C01FB052294449BB28F
:10F3400043EA0C4344F8043B50F8043B22681B0C8E
:10F3500095B201FB035303EB1C4387424FEA134C66
:10F36000E8D8F34523600AF1040AB7D8DDF8048031
:10F37000B8F1000F0BDD59F8043CA9F104091BB1E9
:10F3800005E059F8043D13B9B8F10108F9D1009826
:10F39000C0F8108003B0BDE8F08F0246024B03486E
:10F3A00040F25D1101F06EF9104007082440070893
:10F3B0002DE9F04312F0030383B0144607462DD124
:10F3C0000E46A4101CD07A6A8AB39568002D39D0F5
:10F3D000E3074FF0000906D4641011D0286898B1F3
:10F3E0000546E307F8D531462A463846FFF73AFF87
:10F3F000314680463846FFF703FE64104646EDD19D
:10F40000304603B0BDE8F0832A4629463846FFF768
:10F4100029FF2860C0F800900546E2E7013B124A48
:10F4200052F823200023FFF711FE0646C9E71020FB
:10F43000FFF796FD0246786280B10023C0E90133F0
:10F440000360C36040F2712138460192FFF7F4FE79
:10F45000019A0023906005460360B9E7034B044816
:10F460004FF4D77101F00EF988EB0508C43F070887
:10F47000244007082DE9F0470E690D464FEA621A4D
:10F48000D1E901135644741C9C429146074604DDA1
:10F490005B009C4201F10101FADC3846FFF770FD88
:10F4A000804600283FD0BAF1000F00F114000EDDB5
:10F4B0000AF1050A4FEA8A0A08EB0A01034600220C
:10F4C00043F8042B8B42FBD1AAF1140A504429695A
:10F4D00005F1140319F01F0903EB810C1BD0C9F1CE
:10F4E000200E0022196801FA09F1114340F8041BAB
:10F4F00053F8042B9C4522FA0EF2F3D80260002A3E
:10F5000018BF26463846C8F810602946FFF778FD30
:10F510004046BDE8F087043853F8042B40F8042F28
:10F520009C45F9D8EEE70246024B034840F2D91158
:10F5300001F0A8F8104007082440070830B40B6910
:10F5400005460069C01A10D19B00143514311944C6
:10F550002B4401E09D4208D253F8044D51F8042D8C
:10F560009442F7D003D24FF0FF3030BC70470120F7
:10F5700030BC70472DE9F84316460B691269A3EBBE
:10F580000208B8F1000F0D4667D1920001F114078F
:10F5900006F11401BB18114401E09F4261D253F8F7
:10F5A000042D51F8044DA242F7D050D36968FFF7FB
:10F5B000E7FC00285FD02F693369C0F80C8006F1A2
:10F5C0001402143505EB870C02EB830E00F11406D0
:10F5D000002100E0264652F8044B55F8048B1FFA30
:10F5E00084F911FA88F3210CA3EB0903C1EB18414C
:10F5F00001EB234134469BB243EA014396454FEA6F
:10F60000214144F8043BA846E4D8AC4516D9264627
:10F6100058F8042B11FA82F3191401EB12419BB232
:10F6200043EA0143C44546F8043B4FEA2141EFD881
:10F630000CF1FF36761B26F00306264423B956F854
:10F64000043D013F002BFAD00761BDE8F8832B464B
:10F650004FF0010835461E46A8E7F8DB4FF00008DA
:10F66000A4E70021FFF78CFC60B101220023C0E970
:10F670000423BDE8F8830246064B07484FF4107197
:10F6800001F000F80246034B034840F2322100F03B
:10F69000F9FF00BF1040070824400708124B10EE86
:10F6A000902A1A40A2F15073002B04DD0020194665
:10F6B00041EC100B70475B421B15132B07DC4FF41A
:10F6C0000022002042FA03F141EC100B7047143B7A
:10F6D0001E2BDABF4FF0004222FA03F30123002170
:10F6E000184641EC100B70470000F07FF8B5046934
:10F6F00000F1140606EB840454F8045C2846FFF776
:10F700004BFDC0F120030A280B60A4F1040131DD98
:10F710008E42A0F10B001AD254F8081C10B3C0F1AD
:10F720002007854021FA07F31D4345F07F53A4F1DC
:10F730000805AE4201FA00F043F4401303D254F836
:10F740000C1CF9400843024643EC102BF8BD40B1B5
:10F7500005FA00F040F07F53002043F440130246C6
:10F76000F2E7014645F07F5343F440130A4643EC69
:10F77000102BF8BD8E42C0F10B0738BF54F8081C9F
:10F7800025FA07FC00F115004CF07F5334BFF94017
:10F79000002105FA00F043F4401340EA010243EC73
:10F7A000102BF8BD2DE9F043884683B001211546A2
:10F7B00057EC106BFFF7E4FB0446002850D0C7F36A
:10F7C0000A59C7F31303B9F1000F01D043F48013B2
:10F7D000002E019325D068460096FFF7FDFC002817
:10F7E0003AD0DDE90013C0F1200203FA02F20A4325
:10F7F000C34001936261002B14BF02210121A36168
:10F800002161B9F1000F17D0A9F2334909EB0003C8
:10F81000C0F13500C8F800302860204603B0BDE8CC
:10F82000F08301A8FFF7D8FC019B63610121203020
:10F830002161B9F1000FE7D104EB8103A0F232405E
:10F84000C8F800001869FFF7A7FCC0EB411028605A
:10F85000204603B0BDE8F083DDE900236261CAE71A
:10F860000246034B034840F20A3100F00BFF00BF91
:10F8700010400708244007082DE9F04383B088466C
:10F8800069468146FFF732FF404601A955EC104B0F
:10F89000FFF72CFFDDE90013D9F81020D8F810008D
:10F8A000CB1A121A03EB4213002B57EC106B0DDD31
:10F8B00005EB03594D4632463B462046294602F0A9
:10F8C000A1FD41EC100B03B0BDE8F083C3EB0333A3
:10F8D00007EB03510F46EEE71728D0B504460CDDC1
:10F8E0000A490B4F0020002632463B4602F060FCDE
:10F8F000013CF9D141EC100BD0BD064B03EBC00429
:10F90000D4E9040141EC100BD0BD00BF0000F03F72
:10F910000000244088EB050870B414694E1E02F103
:10F920001403761103EB840101368B4200EB86064B
:10F930000CD2041F53F8045B44F8045F9942F9D8D1
:10F940008B1A153B23F0030304331844864204D971
:10F95000002340F8043B8642FBD870BC704700BFD0
:10F9600003694A11934210B400F1140410DA04EB55
:10F9700083039C421ED253F8040C043B18B115E0DB
:10F9800053F8042D92B99C42FAD35DF8044B7047AA
:10F9900004EB8203EDDD11F01F01EAD054F82200E0
:10F9A00020FA01F202FA01F18842E2D001205DF86A
:10F9B000044B70470020E8E738B502FB01F421460C
:10F9C00000F05EF8054618B122460021FCF7CAFD9A
:10F9D000284638BD00293CD038B551F8043C0C1FEE
:10F9E000002BB8BFE418054601F016FA234B1A683D
:10F9F0002AB1A2420DD921686018824223D06260E8
:10FA000028461C60BDE8384001F008BAA34203D87C
:10FA10001A465368002BF9D111685018A04219D02A
:10FA200024D821686018834206D063605460284659
:10FA3000BDE8384001F0F2B9D3E900030144636046
:10FA400021605460F3E7D2E9000201446260216062
:10FA5000D6E7704720680144501883421160E6D110
:10FA6000D3E90003014453601160E0E70C232B60ED
:10FA70002846BDE8384001F0D1B900BF2C0900206C
:10FA8000F8B5CD1C25F0030508350C2D38BF0C2525
:10FA9000002D064633DBA94231D82A4F01F0BCF9CC
:10FAA0003A6852B113685B1B04D43FE023685B1BC8
:10FAB00029D522465468002CF8D1796800293BD01A
:10FAC0002946304600F008FC431C28D0C41C24F012
:10FAD0000304A04205D0211A304600F0FDFB01309E
:10FAE0001DD02560304601F099F904F10B0020F09B
:10FAF0000700231DC21A01D01B1AA350F8BD0C2207
:10FB000032600020F8BD0B2B05D8A242636811D0EB
:10FB10005360E7E7144623601C442560E2E70C23AA
:10FB20003046336001F07AF90020F8BD0B2BF1D894
:10FB3000536814463B60D5E7304600F0CDFB786053
:10FB4000BEE700BF2C0900202DE9F0478E681D4656
:10FB5000AE420C460B68174636D88046888910F4AA
:10FB6000906F0ED1354618462A46394601F0ECF81A
:10FB7000A2682368961B2B44A66023600020BDE882
:10FB8000F087D1E9041606EB4606A3EB010906EB64
:10FB9000D6766B1C76104B44B342324684BF1E4669
:10FBA0003246430512D511464046FFF769FF8246AB
:10FBB00000B34A462169FCF73BFCA38923F4906318
:10FBC00043F08003A38106E02E46CCE7404601F0D7
:10FBD00027F9824650B1A6EB09020AEB09036661D8
:10FBE000C4F810A02360A2602E46BCE721694046FD
:10FBF000FFF7F0FE0C23C8F80030A38943F0400360
:10FC0000A3814FF0FF30BAE72DE9F04F936883B03E
:10FC10009046002B6DD017688D6882460C460868A8
:10FC2000083743E0A38913F4906F2ED0D4E904156C
:10FC300005EB4505A0EB010B05EBD5750BEB0600BD
:10FC40006D100130A8422A4684BF05462A465B054E
:10FC500036D511465046FFF713FF00283AD05A46D2
:10FC600021690190FCF7E4FBA289019B22F49062D8
:10FC700042F08002A281A5EB0B0203EB0B00656151
:10FC800023612060A2603546B3465A46494601F0DA
:10FC90005BF8D8F80830A2682068551B58449E1BB2
:10FCA000A5602060C8F808601EB3083757E90296BF
:10FCB000AB46002EF9D0AE42B4D23546B346E4E7A7
:10FCC000504601F0ADF803460028D4D121695046D2
:10FCD000FFF780FE0C23CAF80030A389002243F00E
:10FCE00040034FF0FF30A381C8E9012203B0BDE813
:10FCF000F08F0020C8F8040003B0BDE8F08F00BF0B
:10FD00002DE9F04F90468A899FB014068B460290E9
:10FD100003D50A69002A00F00B81059330238DF882
:10FD2000323098F800308E4E002120220B918DF851
:10FD300031200127002B00F08480252B00F0F68075
:10FD4000454603E0252B00F0868025466B786C1C29
:10FD5000002BF7D1B4EB080A73D0424653465946FC
:10FD60000298FFF7F1FE01306BD00B9B6A78534489
:10FD70000B93002A65D000234FF0FF320134069325
:10FD8000CDE908338DF85B301C93079205E0069AA5
:10FD900007FA03F313432C4606932546052215F86C
:10FDA000011B3046FCF7C4FAAA46831B0028EED19B
:10FDB000069BD90644BF20228DF85B2021781A07C4
:10FDC00044BF2B228DF85B202A2948D1059A11685F
:10FDD0000432002905927EDB09916178A51C2E2949
:10FDE00056D0604C03222046FCF7A2FA002868D0C7
:10FDF000001B069B402404FA00F00343069305F120
:10FE00000108297858488DF830100622FCF790FA3E
:10FE1000002866D0554B002B56D005AB00935A46B0
:10FE2000534B029806A9FCF7B1FC8146B9F1FF3F9C
:10FE300007D00B9B4B440B9398F80030002B7FF4BA
:10FE40007CAFBBF80C305B0654BF0B984FF0FF3013
:10FE50001FB0BDE8F08FB4EB080A8CD07DE7A1F1AC
:10FE60003002092A88BFA246B9D8099B01E02C4676
:10FE70000135297803EB830302EB4303A1F1300240
:10FE8000092AAA46F3D92E2904F102050993A8D11B
:10FE90009AF801102A292ED1059B9AF802101A68A7
:10FEA00007920433002A05930AF103050AF10203BD
:10FEB00037DB2C4C032220469A46FCF739FA0028FF
:10FEC00096D1A84655469CE7059B073323F00703C8
:10FED00008330593ADE7494243F0020309910693C5
:10FEE0007BE705AB00935A46214B029806A9FCF725
:10FEF0007BFF81469AE7A1F130020023092A07938C
:10FF000001D923E05546697803EB830302EB4303F1
:10FF1000A1F13002092A05F1010AF3D9023507934C
:10FF20005FE74FF0FF329A4607925AE7444622E7CE
:10FF300040210393FFF7A4FD039BCBF80000CBF80F
:10FF4000100030B14022CBF81420E6E6AA46013575
:10FF500047E7029A0C2313604FF0FF3078E700BFA9
:10FF60005840070860400708644007088DC700082C
:10FF700049FB00089368013B002B936011DA10B431
:10FF80009469A34209DB0A2907D01368581C106042
:10FF9000197008465DF8044B70475DF8044B00F09B
:10FFA0007BBA1368581C106019700846704700BF70
:10FFB0009BB1F8B513440F4606465D1E541E01E082
:10FFC000AC4208D03A4614F8011F3046FFF7D2FF82
:10FFD000431CF5D1F8BD0020F8BD0020704700BFDC
:10FFE000936810B5144613B95360184610BD00F05D
:10FFF00079FC0023C4E9013310BD00BF2DE9F04FA7
:020000040801F1
:100000009FB08B4690461C46039018B18369002B25
:1000100000F0B780A24B9B4500F0B980A14B9B45F7
:1000200000F0C780A04B9B4504BF039BD3F80CB0E6
:10003000BBF80C30180740F1B280DBF81030002B11
:1000400000F0AD8030238DF8323098F80030059400
:10005000002120220B918DF83120944E0127002B96
:1000600000F08780252B00F01581454603E0252B05
:1000700000F0A38025466B786C1C002BF7D1B4EB05
:10008000080A76D04246534659460398FFF790FF38
:1000900001306ED00B9B6A7853440B93002A68D0D2
:1000A00000234FF0FF3201340693CDE908338DF879
:1000B0005B301C93079205E0069A07FA03F313439B
:1000C0002C4606932546052215F8011B3046FCF701
:1000D0002FF9AA46831B0028EED1069BD90644BF00
:1000E00020228DF85B2021781A0744BF2B228DF83F
:1000F0005B202A2966D1059A1168043200290592ED
:10010000C0F29D8009916178A51C2E2973D0684C9E
:1001100003222046FCF70CF9002800F08680001B23
:10012000069B402404FA00F00343069305F10108FE
:10013000297860488DF830100622FCF7F9F800287D
:1001400000F083805C4B002B72D005AB00935A46C5
:100150005A4B039806A9FCF719FB8146B9F1FF3FFA
:1001600007D00B9B4B440B9398F80030002B7FF487
:1001700079AFBBF80C305B0618D40B981FB0BDE804
:10018000F08FFEF773FE464B9B457FF447AF039B12
:10019000D3F804B0BBF80C3018073FF54EAF594602
:1001A000039800F0EFF900283FF44CAF4FF0FF3018
:1001B000E4E7039BD3F808B03AE7B4EB080A3FF44E
:1001C0006FAF5FE7A1F13002092A88BFA2469CD831
:1001D000099B01E02C460135297803EB830302EBF0
:1001E0004303A1F13002092AAA46F3D92E2904F1CA
:1001F000020509938BD19AF801102A292FD1059B6A
:100200009AF802101A6807920433002A05930AF13B
:1002100003050AF1020338DB254C032220469A46E7
:10022000FCF786F800287FF47AAFA84655467FE7AA
:10023000059B073323F007030833059391E74942F1
:1002400043F00203099106935DE705AB00935A461C
:100250001A4B039806A9FCF7C7FD81467EE7A1F17A
:1002600030020023092A079301D915E05546697821
:1002700003EB830302EB4303A1F13002092A05F1EA
:10028000010AF3D90235079341E74FF0FF329A464E
:1002900007923CE7444603E7AA46013537E700BF2B
:1002A00064EB050844EB050824EB050858400708F3
:1002B00060400708644007088DC70008B1FF0008C8
:1002C00010B4044C13460A46014620685DF8044BFE
:1002D000FFF794BE0002002038B5074C0023054606
:1002E0000846236009F08EFA431C00D038BD23680D
:1002F000002BFBD02B6038BDE0C6012010B50C46AA
:10030000B1F90E1000F0B2FD002803DB636D034469
:10031000636510BDA38923F48053A38110BD00BF82
:10032000002070472DE9F0411646B1F90C201F4618
:10033000D3050C460546B1F90E1009D422F48052BB
:10034000A2813B4632462846BDE8F04100F004B9A0
:100350000022022300F04AFCB4F90C20B4F90E107C
:10036000ECE700BF10B50C46B1F90E1000F03EFCF2
:10037000A389421C0EBF23F4805343F4805360656D
:10038000A38110BDB1F90E1000F0A0B9C9B200F000
:100390000303002935D07BB10378002B57D0994255
:1003A00052D0431C05E013F8012B002A4DD08A429D
:1003B0004AD09A071846F6D170B441EA012604687B
:1003C00046EA064601E050F8044F86EA0405A5F126
:1003D0000132A4F1013322EA050223EA04031343A4
:1003E00013F0803FEFD0037843B1994202D106E089
:1003F0008B4204D010F8013F002BF9D1184670BC95
:1004000070474BB10378FBB1431C02E00278013323
:10041000D2B199071846F9D10268A2F1013323EA53
:10042000020313F0803F08D150F8042FA2F10133EA
:1004300023EA020313F0803FF6D0037823B110F8CB
:10044000013F002BFBD1704770471046704718469C
:10045000704700BFC9B10278CAB1431C0144994238
:100460001A4616D010B41478013334B199421A46A2
:1004700007D014780133002CF8D1101A5DF8044B22
:100480007047081A5DF8044B7047084670471046DD
:100490007047081A704700BFF8B50D461446064667
:1004A00008B1836943B3254B9C422AD0244B9C421C
:1004B00029D0244B9C4208BFF468A389A269A2609A
:1004C0001A0722D5236903B322686169D31AEDB2F2
:1004D00099422F4629DD0133A168501C0139A160E2
:1004E0002060157062699A4216D0A389DB0701D596
:1004F0000A2D11D03846F8BDFEF7B8FC0F4B9C42D0
:10050000D4D17468D9E7B468D7E72146304600F003
:1005100039F838B92369D7E72146304600F07EF92B
:100520000028E7D04FF0FF37E4E72146304600F0DF
:1005300075F90028F6D122680123CDE764EB0508A0
:1005400044EB050824EB0508024B0A4601461868EF
:10055000FFF7A2BF0002002070B50D46084C1146FF
:1005600006461A4628460023236009F08FF9431CEB
:1005700000D070BD2368002BFBD0336070BD00BF7E
:10058000E0C601203B4B70B51D6806460C460DB118
:10059000AB69DBB1384B9C421ED0384B9C424AD0F1
:1005A000374B9C4208BFEC68B4F90C2093B2190792
:1005B00018D5206908B313F001022CD0636900221A
:1005C0005B42A361A26060B3002070BD2846FEF7C5
:1005D0004DFC294B9C42E0D16C68B4F90C2093B2DD
:1005E0001907E6D4DD063CD5580726D4206942F029
:1005F0000803A3819BB20028DDD103F42072B2F579
:10060000007FD8D03046214600F034FBA389206912
:1006100013F00102D2D1990758BF6269A260002885
:10062000D2D1B4F90C301A06CFD543F04003A381E0
:100630004FF0FF3070BDAC68B6E7616B51B104F1AB
:100640004403994204D03046FFF7C4F9B4F90C20B2
:100650000023636300232069636022F0240220608A
:10066000C5E742F04002092333604FF0FF30A2811A
:1006700070BD00BF0002002064EB050844EB0508D4
:1006800024EB050800B50A4C2668054685B01C46D3
:10069000F06852B1074B0091CDE9013206492B4673
:1006A000224600F00BF900F00FFC044B1A46F2E76B
:1006B000000200206C4007087C400708042B060855
:1006C00008B513460022FFF7DDFF00BF38B5074C21
:1006D000002305460846236009F0E6F8431C00D0D5
:1006E00038BD2368002BFBD02B6038BDE0C601204D
:1006F0008B891A072DE9F0410C46804641D44A689F
:10070000002A59DDE66A002E53D00022D8F80050A6
:10071000216AC8F8002013F4805251D101234046C9
:10072000B047431C5FD0A389E66A216A5F0705D5FD
:100730006268636B801A0BB1236CC01A02460023F7
:100740004046B047461C45D1D8F80030B4F90C20DB
:10075000002B55D01D2B01D0162B5AD12369002216
:10076000C4E90032616BC8F8005011B304F14403CE
:10077000994202D04046FFF72DF900206063BDE8A2
:10078000F0810E69AEB10D680E6099070CBF636908
:100790000023AD1BA3600AE02B463246A76A216AFC
:1007A0004046B8470028A5EB000506440ADD002DA9
:1007B000F2DC0020BDE8F0810A6C002AA2DCF8E738
:1007C000606DB3E7A38943F04003A3814FF0FF308E
:1007D000BDE8F0812269A389226000226260DA0408
:1007E000C0D56065BEE7D8F80030002B9BD01D2B2C
:1007F0000CD0162B0AD0A38943F04003A381D9E77C
:100800002169C4E90013D304ACD5EAE7C8F8005065
:10081000CFE742F04002A281CCE700BF0B6923B3CF
:1008200010B5044682B008B18369BBB1104B994240
:1008300012D0104B994216D00F4B994208BFE16875
:10084000B1F90C302BB1204602B0BDE81040FFF7E3
:100850004FBF002002B010BD6168F1E70191FEF7C3
:1008600005FB0199E2E7A168EAE70020704700BFB5
:1008700064EB050844EB050824EB050820B1054BA3
:1008800001461868FFF7CABF034B04491868FEF712
:1008900033BB00BF0002002020EB05081D08010843
:1008A0000CB400B583B004AB53F8042B0193FFF7ED
:1008B000A5FB03B05DF804EB02B070470EB410B5B1
:1008C00083B005AB064C53F8042B01930146206816
:1008D000FFF794FB03B0BDE8104003B0704700BFC2
:1008E000000200209368002B00F002812DE9F04FF8
:1008F000B1F90C309BB20C46190783B08246904682
:1009000035D522699AB313F00202D8F800603DD0C1
:100910000027D4F828B0D4F820C0DFF8CC923D46A8
:100920004D452B463A4628BF4B4661465046D5B109
:10093000D847002840F3D280D8F808301B1A074463
:100940002D1AC8F80830002B00F0B780D4F820C06A
:10095000D4F828B04D452B463A4628BF4B46614651
:100960005046002DE4D1D6E900750836D8E7214677
:100970005046FFF707FE002840F03081B4F90C30F4
:10098000D8F800609BB213F00202C1D113F0010944
:1009900040F0B080A76820684D46002D54D09A05DD
:1009A00040F1BC80AF42BB4600F2E78013F4906F89
:1009B0002FD0D4E9041707EB4707A0EB010B07EB97
:1009C000D777681C7F105844B8423A4684BF074620
:1009D0003A465B0540F1E98011465046FFF750F872
:1009E000002800F0F5805A4621690190FBF720FDB0
:1009F000A289019B22F4906242F08002A281A7EBBF
:100A00000B0203EB0B00676123612060A2602F469D
:100A1000AB465A46494600F097F9A2682368D21BB4
:100A20005B442F46A26023600025D8F80830DB1B0A
:100A3000B944C8F80830002B3FD0B4F90C30A7688F
:100A400020689BB2002DAAD1D6E900950836A4E70C
:100A50000BF1080353E902679B460833002FF9D0D6
:100A60003A460A213046FBF763FC002853D0013098
:100A7000A0EB06094B46D4E904122068BB4228BF0C
:100A80003B46884203D9A5681544AB4219DC9A421B
:100A90007DDC1346A56A216A32465046A847051EEA
:100AA0001CDDB9EB05096BD00120D8F808305B1BC1
:100AB0002E447F1BC8F8083013BB002003B0BDE8EC
:100AC000F08F31462A4600F03FF923682B4423601B
:100AD00021465046FFF7A2FE0028E2D0B4F90C30C0
:100AE00043F040034FF0FF30A38103B0BDE8F08F27
:100AF0000020704733469146104617464E469B46A7
:100B0000002FA5D00028B5D13A460A213046FBF780
:100B10000FFC0028ABD17B1C9946ACE723698342CC
:100B200015D36169A94212D82E4BA76A9D4294BF82
:100B30002B466FF000434A4693FBF1F3504601FB0E
:100B400003F3216AB847071EC8DDED1B6DE7AF420E
:100B500028BF2F463A46494600F0F6F8A3682268B7
:100B6000DB1B3A44A3602260002BEED121465046A5
:100B7000FFF754FE0028E8D0B0E72F46AB4648E721
:100B800021465046FFF74AFE00288ED0A6E71A46B7
:100B90003146019300F0D8F8019BA1682268C91A78
:100BA0001A44A16022601D467BE7504600F038F9E8
:100BB000034600287FF423AF21695046FEF70AFF61
:100BC000B4F90C300C2223F08003CAF8002087E728
:100BD0000C23CAF80030B4F90C3081E74FF0FF3035
:100BE0006CE700BFFEFFFF7F00FCFF7F70B50D4686
:100BF000084C114606461A4628460023236008F092
:100C00005DFE431C00D070BD2368002BFBD0336019
:100C100070BD00BFE0C6012070B50C46B1F90E10E2
:100C2000002996B016461D4613DB6A4600F054F9BB
:100C300000280EDB019A02F47042A2F50052B2FACB
:100C400082F252094FF4806300202A60336016B0AC
:100C500070BDA38900221B062A6004D54023002012
:100C6000336016B070BD4FF480630020336016B05F
:100C700070BD00BF8A8992070B4606D501F1470275
:100C800001211A60C3E90421704770B582B001AB3D
:100C90006A460C460646FFF7BFFF009905463046F8
:100CA000FEF7EEFEB4F90C3070B11649B162019A4C
:100CB0000099206043F08003A381C4E904018AB94C
:100CC0002B43A38102B070BD9A05FBD423F003032C
:100CD00004F1470243F002030121A3812260C4E929
:100CE0000421EFE73046B4F90E1000F009F910B90D
:100CF000B4F90C30E4E7A38923F0030343F00103C4
:100D00001BB2DDE7A1EC000810B4034CD4F8E440BA
:100D1000A4465DF8044B60476402002082B049B1EC
:100D20005AB16BB113780B601278101C18BF0120F8
:100D300002B0704701A9002AF3D1104602B07047F3
:100D40006FF00100F4E700BF8842F0B40DD98B18B2
:100D500083420AD9841832B1224613F8014D02F8B1
:100D6000014D9942F9D1F0BC70470F2A0ED80346C5
:100D7000541E002AF7D001340C44013B11F8012B1A
:100D800003F8012FA142F9D1F0BC704740EA0103FA
:100D90009B073BD1A2F110073F0901F1200606EBAA
:100DA000071601F1100300F1100453F8105C44F829
:100DB000105C53F80C5C44F80C5C53F8085C44F885
:100DC000085C53F8045C44F8045C1033B34204F14B
:100DD0001004EAD17B1C1B0112F00C0F194402F025
:100DE0000F05034415D0043DAD0803EB850C1C1F13
:100DF0000E4656F8047B44F8047F6445F9D101356A
:100E0000AD002B44294402F00302B1E7541E03460F
:100E1000B1E72A46ACE700BF704700BF704700BF8C
:100E200009B3F8B51446CAB106460D4600F07AF883
:100E3000A04202D32F463846F8BD21463046FEF781
:100E40001FFE07460028F6D022462946FBF7F0FA97
:100E500030462946FEF7BEFD3846F8BD2746FEF768
:100E6000B9FD3846F8BD1146FEF70ABE70B50D460D
:100E7000084C114606461A4628460023236008F00F
:100E8000F5FC431C00D070BD2368002BFBD0336001
:100E900070BD00BFE0C6012010B4034CD4F8E040A0
:100EA000A4465DF8044B60476402002049B1FF2A64
:100EB00002D80A70012070478A2303604FF0FF3088
:100EC00070470846704700BF08B5062000F0B8F824
:100ED000012008F0C5FC00BF38B50B46074C05469D
:100EE000114618460023236008F0E1FC431C00D0A3
:100EF00038BD2368002BFBD02B6038BDE0C6012035
:100F000038B5074C002305460846236008F0D4FC9A
:100F1000431C00D038BD2368002BFBD02B6038BDAC
:100F2000E0C6012051F8043C181F002BBCBF0B5831
:100F3000C018704710B580210446FEF7A1FD60641B
:100F400040B1031F00227C3043F8042F8342FBD1C1
:100F5000002010BD4FF0FF3010BD00BF436C0BB13F
:100F600000207047E6E700BF1F2970B5054608D886
:100F7000436C16460C464BB153F8240043F82460EA
:100F800070BD162202604FF0FF3070BDFFF7D2FF38
:100F900008B96B6CF0E74FF0FF3070BD1F2938B512
:100FA00021D8426C05460C466AB152F8213053B143
:100FB000012B16D0591C10D00025204642F8245091
:100FC0009847284638BD284600F070F8224601466A
:100FD0002846BDE8384000F055B8162303600120CC
:100FE00038BD002038BD162303604FF0FF3038BDF8
:100FF0001F2921D838B5436C05460C4683B153F8F8
:10100000242003EB84034AB1511C10D0012A0CD0D8
:10101000002520461D609047284638BD012038BD78
:10102000FFF788FF28B96B6CE9E7032038BD022081
:1010300038BD4FF0FF3038BD4FF0FF30704700BF74
:10104000024B01461868FFF7A9BF00BF000200204D
:10105000024B0A4601461868FFF786BF00020020CF
:10106000034B1868436C0BB10020704762E700BF68
:1010700000020020024B01461868FFF7B9BF00BF0D
:101080000002002038B50B46074C054611461846AD
:101090000023236008F0DCFB431C00D038BD23682C
:1010A000002BFBD02B6038BDE0C6012008F0CEBB82
:1010B00000B510EE103A204A23F00043934283B06B
:1010C00019DDB3F1FF4F04DB30EE400A03B05DF8E9
:1010D00004FB684600F0A6F800F00300012811D0D8
:1010E00002281FD0B8B10120DDED010A9DED000AF4
:1010F00000F09CFDEAE7DFED110A00F0E3F903B030
:101100005DF804FBDDED010A9DED000A00F08EFDA7
:10111000B1EE400ADAE7DDED010A9DED000A00F0CC
:10112000D1F9D3E7DDED010A9DED000A00F0CAF91F
:10113000B1EE400ACAE700BFD80F493F00000000E7
:1011400000B510EE103A214A23F00043934283B0D9
:101150001ADDB3F1FF4F04DB30EE400A03B05DF857
:1011600004FB684600F05EF800F00300012813D08D
:10117000022820D0B8B1DDED010A9DED000A00F093
:10118000A1F9B1EE400AE9E70020DFED110A00F015
:101190004DFD03B05DF804FBDDED010A9DED000A95
:1011A00000F090F9DAE70120DDED010A9DED000A7B
:1011B00000F03CFDD2E70120DDED010A9DED000AC3
:1011C00000F034FDB1EE400AC8E700BFD80F493F38
:1011D0000000000008B52DED028BB0EE408A00F053
:1011E0006DF90E4B93F9003001330BD0B4EE488A01
:1011F000F1EE10FA06D6DFED0A8AB4EEE88AF1EED7
:1012000010FA02D4BDEC028B08BDFBF767F888EE3C
:10121000A80ABDEC028B2123036008BDD003002087
:101220000000000070B510EE103A964A23F000441A
:10123000944286B0054668DD934A944210EE106AE7
:101240001ADC002B24F00F04DFED907A904A40F373
:10125000F280944270EE677A66D09FED8E7A77EED8
:10126000C76A012077EEE67AC5ED006A77EEC77AA5
:10127000C5ED017A06B070BD874A944267DDB4F1CE
:10128000FF4F49DAE215863AA4EBC25307EE903AD3
:10129000BDEEE77ADFED816AB8EEC77A77EEC77AFE
:1012A0008DED037A67EEA67ABDEEE77AB8EEC77ADF
:1012B00077EEC77A8DED047A67EEA67AF5EE407A7E
:1012C000F1EE10FACDED057A40F0A280B5EE407A4D
:1012D000F1EE10FA14BF022301237149019102219A
:1012E000009103A8294600F06FF9002EC2DA95EDAF
:1012F000007AD5ED017AB1EE477AF1EE677A404295
:1013000085ED007AC5ED017AB4E7002285ED000A8B
:101310004260002006B070BD70EE407A0020C5ED3E
:10132000017AC5ED007AA5E7DFED5E6A9FED5E7A92
:1013300077EEE67A012077EEC76A77EEE67AC5EDBA
:10134000006A77EEC77AC5ED017A06B070BD00F08D
:10135000B5FCDFED566ADFED4D5A9FED4E7AF6EEA5
:10136000007AE0EE267AFDEEE77A17EE900AF8EEC4
:10137000E76A1F28B1EE666AA6EE250A66EE877A4E
:101380001EDC421E4A4B53F8223024F0FF029A42E0
:1013900030EE677A16D085ED007A30EE470A002EDF
:1013A00030EE670A85ED010ABFF664AFB1EE477A09
:1013B000B1EE400A85ED007A85ED010A404259E719
:1013C00030EE677A17EE103AE415C3F3C753E31A09
:1013D000082BE0DDDFED337A9FED337AF0EE405AF3
:1013E000E6EE275A30EE650AA6EE270AF0EE407ABE
:1013F000D6EE877A35EEE77A17EE103AC3F3C75385
:10140000E41A192C06DC85ED007AB0EE650AC4E713
:10141000032362E79FED277A9FED275AB0EE650A16
:10142000A6EE070A75EEC07AE6EE077AD6EE857A62
:1014300030EE677AAFE7944270EE277A0ED09FEDD8
:10144000157A77EE876A4FF0FF3077EEE67AC5EDD2
:10145000006A77EE877AC5ED017A0BE7DFED116A56
:101460009FED117A77EEA67A4FF0FF3077EE876A1C
:1014700077EEE67AC5ED006A77EE877AC5ED017AF8
:10148000F8E600BFD80F493FE3CB1640800FC93FB5
:10149000D00FC93F43443537800F49430000804394
:1014A00034EE05080044353708A3852E84F9223F21
:1014B000B4ED050800A3852E32318D24B1EEC00AAB
:1014C000704700BF10EE103A23F00043B3F1485FBD
:1014D0002CDAFDEEC07A17EE903A002B60D020EEA9
:1014E000007ADFED314A9FED315ADFED315A9FED41
:1014F000316ADFED317ADFED316AA7EE245AE7EE8B
:10150000055AA7EE256AE7EE067AE7EE276A66EE49
:10151000876A60EEC00AB6EE006AE7EE260AF7EECA
:10152000007AD7EE060A37EEE00A704720EE007A1E
:10153000DFED1D4A9FED1D5ADFED1D5A9FED1D6A1F
:10154000DFED1D7ADFED1D6A1D4AA7EE245A934296
:10155000E5EE075AA5EE876AE6EE077AE7EE876AB8
:1015600066EE876AD5DD174A934214DC03F17F43A8
:1015700007EE903AB7EE006A36EE676A60EEC00A90
:10158000F6EE005AE7EE260AD7EE257A77EEE07AF5
:1015900036EE670A7047B6EE076AF5EE027AEDE7B7
:1015A000B7EE000A704700BF4ED747ADF6740F3153
:1015B0007CF293B4010DD037610BB6BAABAA2A3DC9
:1015C0009999993E0000483F2DE9F04F2DED048B8D
:1015D000DBB0D64C689D0791111D54F8255004933B
:1015E0000992814603F1FF38C0F25782D31E44BFEF
:1015F00013460433DB1003930133DB000893DDE96A
:1016000008239B1A0693039B15EB0801A3EB080321
:1016100016D401319FEDC67A699819441EAA002B91
:10162000A4BF50F8234007EE904A03F10103ACBF7A
:10163000F8EEE77AF0EE477A8B42E2EC017AEED1EF
:10164000049B002D4FEA830C4FEA850A1DDB1EAB7D
:1016500003EB0C0447AB09EB0C0103EB0A0646A8AD
:10166000B8F1000FDFEDB27A09DB22464B46F3EC0E
:10167000016A32ED017A8B42E6EE877AF7D1E0EC2F
:10168000017AB04204F10404EAD1AAF108030AAFD6
:10169000FB180593AB4609AB01959FEDA79ADFEDCB
:1016A000A58A069D09EB0C049A4446AE4FEA8B01CD
:1016B0005AAB0B44BBF1000F13ED140A16DD06EB19
:1016C0008B033A4660EE097AB0EE407AFDEEE77A97
:1016D00073ED016AF8EEE77AB342A7EEE87A37EEE7
:1016E000A60ABDEEC77AA2EC017AEBD12846029198
:1016F00000F030FBB0EE408AB4EE000A28EE000A9B
:1017000000F0E4FAF2EE007AA0EE678A002D02996A
:10171000FDEEC89AF8EEE97A38EE678A75DD0BF1CE
:10172000FF3CC5F1080357F82C2042FA03F000FAF9
:1017300003F3D31A47F82C30C5F1070219EE90CA0B
:1017400043FA02F28444002A09EE90CA66DCB5EE40
:10175000408AF1EE10FA40F0A380019B0BF1FF3CB0
:1017600063450EDC0BF18041013907EB810100205C
:1017700051F80439514540EA0300F9D1002840F0FE
:10178000EE80019B013B57F82330002B40F0E280B4
:10179000059B012053F804290130002AFAD00BF1EF
:1017A000010358449C46039A03EB020E049A1EA9B7
:1017B0005A440EF1804E01EB820269990EF1FF3E10
:1017C00001EB8E0E06EB830B5EF8043F9FED587A1B
:1017D00007EE903AF8EEE77A1146B8F1000FE1EC27
:1017E000017A09DB4B4601E072ED017AF3EC016A04
:1017F000A342A6EEA77AF7D10CF1010C8445ABEC1D
:10180000017A0A46E0DD834650E740F099800BF10B
:10181000FF3357F823201212002A98DD19EE903A70
:10182000BBF1000F03F1010309EE903A40F3C481CC
:101830003868002861D1BBF1010F0BD0BE464FF0D4
:10184000010C5EF8040F0CF10103002858D19B45F0
:101850009C46F6D1002D0CDD012D00F01581022DE6
:1018600007D10BF1FF3157F8213003F03F0347F860
:101870002130022A7FF46BAFB7EE000A30EE488ABF
:1018800000283FF464AF2846029200F063FA38EE75
:10189000408A029AB5EE408AF1EE10FA3FF45DAF4D
:1018A0009046DDE90832B0EE480A981A019D00F032
:1018B00051FA9FED207AB4EEC70AF1EE10FAC0F2A9
:1018C0007D81DFED1D7A069B60EE277A0833FDEE01
:1018D000E77A0693F8EEE77A0BF10103A7EEC70A61
:1018E000FDEEE77ABDEEC00A10EE102A47F82B2075
:1018F00017EE902A47F8232046E001234FF0000C12
:10190000C0F580709B4547F82C000CDD57F823008C
:10191000394407EB830300E01868C0F1FF0043F887
:10192000040B8B42F8D1012094E700BF4CF105086D
:1019300000000000000080430000803B0000C93F21
:10194000F6EE007AB4EEE78AF1EE10FA80F2AA80A1
:101950000022FCE60BF101039C46184623E706999A
:10196000019D904657F82C200839634606915AB9D4
:101970000BF18042023A07EB820252F80409013B64
:1019800008390028F9D0069106980193B7EE000AAD
:1019900000F0E0F9019B002BC0F22F819E0046AAC7
:1019A00006F1040C1FED1C7A1644311D07EB0C02E6
:1019B00072ED017AF8EEE77ABA4267EE807A20EEAD
:1019C000070A61ED017AF3D10DF1C80E002D7746BB
:1019D0004FF000041FED276A1DDB9248DFED927A7D
:1019E0003146B0EE467A002203E0A24208DCB0ECB9
:1019F000017AF1EC016A01329542E6EE877AF4DA77
:101A00009C42E7EC017AA6F1040604F101020CD035
:101A1000002D1446E1DADFED847A9C42E7EC017A8E
:101A2000A6F1040604F10102F2D1689A032A22D831
:101A3000DFE802F0B19F9F4ADFED7B7A9DED327ABD
:101A4000424637EE677A002A40F0C080079A002BA2
:101A5000C2ED007A0CDD33A90122F1EC017A0132EA
:101A6000934237EE277AF8DA43460BB1B1EE477A64
:101A7000079B83ED017A19EE903A03F007005BB003
:101A8000BDEC048BBDE8F08F0BF1FF3157F821302E
:101A900003F07F0347F82130EBE608230893002387
:101AA0000393ACE519EE903ABBF1000F03F101038B
:101AB00009EE903AC8BF02223FF7BAAEF7EE007ABD
:101AC00037EEC88A022242E6002B40F3A880990034
:101AD0005AAA0A440DF1C80E52ED286A0EEB830291
:101AE00072ED017A37EEA67A964577EEC77A82EDE7
:101AF000007A77EEA67AF0EE476AC2ED017AEFD16E
