:020000040800F2
:10C0000000E40120F14B0108F149010885C2000854
:10C01000F3490108F5490108F7490108000000004B
:10C02000000000000000000000000000414C01087A
:10C03000F949010800000000CFC10008B14D010816
:10C04000414C0108414C0108414C0108414C010898
:10C05000414C0108414C0108414C0108414C010888
:10C06000414C0108414C0108414C0108414C010878
:10C07000FD4901080D4A0108414C0108414C0108E5
:10C08000414C0108414C0108414C010800000000EE
:10C090000000000000000000000000001D4A010830
:10C0A000414C0108294A0108414C0108414C010852
:10C0B000414C0108414C0108414C0108414C010828
:10C0C000414C0108414C0108414C0108414C010818
:10C0D000414C01089DE40108414C010800000000AA
:10C0E000414C0108414C0108414C0108000000008E
:10C0F000000000000000000000000000414C0108AA
:10C1000000000000414C0108414C0108414C01086D
:10C11000000000000000000000000000000000001F
:10C12000414C0108414C0108394A0108414C0108C1
:10C13000414C010800000000000000000000000069
:10C14000000000000000000000000000414C010859
:10C15000494A0108414C0108414C0108414C010881
:10C16000414C0108414C01080000000000000000A3
:10C1700000000000000000000000000000000000BF
:10C1800000000000414C0108000000000000000019
:08C19000414C0108414C01087B
:10C1A000EFF3108072B6704780F310887047444AEE
:10C1B0001368012B04D04FF001031360414A106053
:10C1C000414A116041484FF0805101607047EFF3E0
:10C1D000108272B63A48016851B34FF00001016015
:10C1E0003848016891B1EFF309811EF0100F08BFC4
:10C1F00021ED108B21E9F00F4FF000041EF0100F1D
:10C2000008BF012441F8044D006801602E49096807
:10C21000096808C9B1E8F00F002B18BFB1EC108B0A
:10C2200081F309884EF0100E002B18BF2EF0100E6F
:10C2300082F310884EF0040E704723490860EFF334
:10C24000148222F0040282F314881E494FF0000089
:10C2500008601B494FF0010008601D481D49D0F8D7
:10C26000002041EA0201016018484FF0805101604E
:10C2700019480068006800BF80F3088861B662B69C
:10C28000704700BFEFF308801EF0040F01D0EFF3FA
:10C29000098020E9F00F40F804ED40F804ED1EF0AD
:10C2A000040F02D080F3098801E080F3088800B50C
:10C2B00007F04EFE5DF804EB4EF0040E70470000F0
:10C2C000D0180020D8180020D418002004ED00E079
:10C2D00020ED00E00000FFFF08ED00E0F0B400EB0F
:10C2E0004003DFF8880000EBC30000F11806306956
:10C2F000F7687568874232D3B368DC1B631E9342CC
:10C3000014D37D19D01900BF11F8013B05F8013B8A
:10C31000013A05D011F8013B05F8013B013AF3D190
:10C32000BFF35F8FF0600120F0BC7047C0189042EF
:10C3300019D37819121B11F8013B00F8013B013C9D
:10C34000F9D1141C05D011F8013B05F8013B013A65
:10C35000F9D1BFF35F8FF4600120F0BC7047C01BC0
:10C3600001389042CDD20020F0BC704700E401209B
:10C3700010F8012B11F8013B012A28BF9A42F7D08F
:10C38000D01A70470000000000000000000000000C
:10C3900001F0FF01102A2BDB10F0070F08D010F876
:10C3A000013B013A8B422DD010F0070F42B3F6D17A
:10C3B000F0B441EA012141EA014122F007047FF093
:10C3C00000070023F0E80256083C85EA010586EAEA
:10C3D000010685FA47F5A3FA87F586FA47F6A5FA26
:10C3E00087F68EB9EED1F0BC01F0FF0102F0070232
:10C3F00032B110F8013B013A83EA010313B1F8D1DD
:10C400000020704701387047002D06BF35460338BD
:10C41000073815F0010F07D1013015F4807F02BFF6
:10C42000013015F4C03F0130F0BC0138704700BF47
:10C43000034613F8012B002AFBD1181A0138704764
:10C4400081F0004102E000BF83F0004330B54FEAC5
:10C4500041044FEA430594EA050F08BF90EA020F32
:10C460001FBF54EA000C55EA020C7FEA645C7FEAC5
:10C47000655C00F0E2804FEA5454D4EB5555B8BFE8
:10C480006D420CDD2C4480EA020281EA030382EA59
:10C49000000083EA010180EA020281EA0303362DEB
:10C4A00088BF30BD11F0004F4FEA01314FF4801CBE
:10C4B0004CEA113102D0404261EB410113F0004FD0
:10C4C0004FEA03334CEA133302D0524263EB430387
:10C4D00094EA050F00F0A780A4F10104D5F1200E25
:10C4E0000DDB02FA0EFC22FA05F2801841F1000180
:10C4F00003FA0EF2801843FA05F359410EE0A5F154
:10C5000020050EF1200E012A03FA0EFC28BF4CF084
:10C51000020C43FA05F3C01851EBE37101F000453A
:10C5200007D54FF0000EDCF1000C7EEB00006EEB47
:10C530000101B1F5801F1BD3B1F5001F0CD34908D1
:10C540005FEA30004FEA3C0C04F101044FEA445228
:10C5500012F5800F80F09A80BCF1004F08BF5FEAAF
:10C56000500C50F1000041EB045141EA050130BD8F
:10C570005FEA4C0C404141EB0101013C28BFB1F5A1
:10C58000801FE9D291F0000F04BF01460020B1FAEC
:10C5900081F308BF2033A3F10B03B3F120020CDABF
:10C5A0000C3208DD02F1140CC2F10C0201FA0CF09D
:10C5B00021FA02F10CE002F11402D8BFC2F1200C02
:10C5C00001FA02F120FA0CFCDCBF41EA0C019040B8
:10C5D000E41AA2BF01EB0451294330BD6FEA040401
:10C5E0001F3C1CDA0C340EDC04F11404C4F12002EC
:10C5F00020FA04F001FA02F340EA030021FA04F3FE
:10C6000045EA030130BDC4F10C04C4F1200220FA54
:10C6100002F001FA04F340EA0300294630BD21FA92
:10C6200004F0294630BD94F0000F83F4801306BF58
:10C6300081F480110134013D4EE77FEA645C18BF4C
:10C640007FEA655C29D094EA050F08BF90EA020FE3
:10C6500005D054EA000C04BF1946104630BD91EADB
:10C66000030F1EBF0021002030BD5FEA545C05D1DE
:10C670004000494128BF41F0004130BD14F580041D
:10C680003CBF01F5801130BD01F0004545F0FE4191
:10C6900041F470014FF0000030BD7FEA645C1ABFC6
:10C6A000194610467FEA655C1CBF0B46024650EAFD
:10C6B000013406BF52EA033591EA030F41F4002129
:10C6C00030BD00BF90F0000F04BF0021704730B5AF
:10C6D0004FF4806404F132044FF000054FF0000184
:10C6E00050E700BF90F0000F04BF0021704730B545
:10C6F0004FF4806404F1320410F0004548BF40421A
:10C700004FF000013EE700BF42004FEAE2014FEA6E
:10C7100031014FEA02701FBF12F07F4393F07F4F49
:10C7200081F06051704732F07F4208BF704793F04C
:10C730007F4F04BF41F40021704730B54FF460745F
:10C7400001F0004521F000411CE700BF50EA010262
:10C7500008BF704730B54FF000050AE050EA01020B
:10C7600008BF704730B511F0004502D5404261EB7B
:10C7700041014FF4806404F132045FEA915C3FF4BC
:10C78000D8AE4FF003025FEADC0C18BF03325FEA59
:10C79000DC0C18BF033202EBDC02C2F1200300FA0A
:10C7A00003FC20FA02F001FA03FE40EA0E0021FA2F
:10C7B00002F11444BDE600BF70B54FF0FF0C4CF41D
:10C7C000E06C1CEA11541DBF1CEA135594EA0C0FCF
:10C7D00095EA0C0F00F0DEF82C4481EA030621EA0A
:10C7E0004C5123EA4C5350EA013518BF52EA033545
:10C7F00041F4801143F4801338D0A0FB02CE4FF0F7
:10C800000005E1FB02E506F00042E0FB03E54FF026
:10C810000006E1FB03569CF0000F18BF4EF0010E1E
:10C82000A4F1FF04B6F5007F64F5407404D25FEA1A
:10C830004E0E6D4146EB060642EAC62141EA5551CD
:10C840004FEAC52040EA5E504FEACE2EB4F1FD0C0F
:10C8500088BFBCF5E06F1ED8BEF1004F08BF5FEA8D
:10C86000500E50F1000041EB045170BD06F000463F
:10C8700046EA010140EA020081EA0301B4EB5C04EC
:10C88000C2BFD4EB0C0541EA045170BD41F48011E4
:10C890004FF0000E013C00F3AB8014F1360FDEBF09
:10C8A000002001F0004170BDC4F10004203C35DAE5
:10C8B0000C341BDC04F11404C4F1200500FA05F368
:10C8C00020FA04F001FA05F240EA020001F0004209
:10C8D00021F0004110EBD37021FA04F642EB06017F
:10C8E0005EEA430E08BF20EAD37070BDC4F10C04A9
:10C8F000C4F1200500FA04F320FA05F001FA04F26D
:10C9000040EA020001F0004110EBD37041F1000158
:10C910005EEA430E08BF20EAD37070BDC4F1200563
:10C9200000FA05F24EEA020E20FA04F301FA05F2CB
:10C9300043EA020321FA04F001F0004121FA04F273
:10C9400020EA020000EBD3705EEA430E08BF20EA43
:10C95000D37070BD94F0000F0FD101F0004640007D
:10C9600041EB010111F4801F08BF013CF7D041EAFF
:10C97000060195F0000F18BF704703F00046520003
:10C9800043EB030313F4801F08BF013DF7D043EAD4
:10C990000603704794EA0C0F0CEA135518BF95EA8A
:10C9A0000C0F0CD050EA410618BF52EA4306D1D111
:10C9B00081EA030101F000414FF0000070BD50EA30
:10C9C000410606BF1046194652EA430619D094EABA
:10C9D0000C0F02D150EA013613D195EA0C0F05D1A4
:10C9E00052EA03361CBF104619460AD181EA0301F8
:10C9F00001F0004141F0FE4141F470014FF00000B0
:10CA000070BD41F0FE4141F4780170BD70B54FF04A
:10CA1000FF0C4CF4E06C1CEA11541DBF1CEA1355CA
:10CA200094EA0C0F95EA0C0F00F0A7F8A4EB0504AC
:10CA300081EA030E52EA03354FEA013100F08880A3
:10CA40004FEA03334FF0805545EA131343EA12636C
:10CA50004FEA022245EA111545EA10654FEA002621
:10CA60000EF000419D4208BF964244F1FD0404F5DA
:10CA7000407402D25B084FEA3202B61A65EB030536
:10CA80005B084FEA32024FF480104FF4002CB6EBF3
:10CA9000020E75EB030E22BFB61A754640EA0C0073
:10CAA0005B084FEA3202B6EB020E75EB030E22BFB3
:10CAB000B61A754640EA5C005B084FEA3202B6EBF4
:10CAC000020E75EB030E22BFB61A754640EA9C00B3
:10CAD0005B084FEA3202B6EB020E75EB030E22BF83
:10CAE000B61A754640EADC0055EA060E18D04FEA41
:10CAF000051545EA16754FEA06164FEAC30343EAE1
:10CB000052734FEAC2025FEA1C1CC0D111F4801FAD
:10CB10000BD141EA00014FF000004FF0004CB6E7A6
:10CB200011F4801F04BF01430020B4F1FD0C88BF45
:10CB3000BCF5E06F3FF6AFAEB5EB030C04BFB6EB50
:10CB4000020C5FEA500C50F1000041EB045170BD43
:10CB50000EF0004E4EEA113114EB5C04C2BFD4EB70
:10CB60000C0541EA045170BD41F480114FF0000EF4
:10CB7000013C90E645EA060E8DE60CEA135594EA70
:10CB80000C0F08BF95EA0C0F3FF43BAF94EA0C0F73
:10CB90000AD150EA01347FF434AF95EA0C0F7FF4E8
:10CBA00025AF104619462CE795EA0C0F06D152EA3C
:10CBB00003353FF4FDAE1046194622E750EA410620
:10CBC00018BF52EA43067FF4C5AE50EA41047FF431
:10CBD0000DAF52EA43057FF4EBAE12E74FF0FF3C96
:10CBE00006E000BF4FF0010C02E000BF4FF0010C67
:10CBF0004DF804CD4FEA410C7FEA6C5C4FEA430CE0
:10CC000018BF7FEA6C5C1BD001B050EA410C0CBF2E
:10CC100052EA430C91EA030F02BF90EA020F002090
:10CC2000704710F1000F91EA030F58BF994208BFF7
:10CC300090422CBFD8176FEAE37040F001007047B4
:10CC40004FEA410C7FEA6C5C02D150EA013C07D10B
:10CC50004FEA430C7FEA6C5CD6D152EA033CD3D056
:10CC60005DF8040B704700BF8446104662468C4650
:10CC70001946634600E000BF01B5FFF7B7FF002883
:10CC800048BF10F1000F01BD4DF808EDFFF7F4FFAC
:10CC90000CBF012000205DF808FB00BF4DF808ED37
:10CCA000FFF7EAFF34BF012000205DF808FB00BF5A
:10CCB0004DF808EDFFF7E0FF94BF012000205DF87C
:10CCC00008FB00BF4DF808EDFFF7CEFF94BF012031
:10CCD00000205DF808FB00BF4DF808EDFFF7C4FF2A
:10CCE00034BF012000205DF808FB00BF4FEA410C73
:10CCF0007FEA6C5C02D150EA013C0AD14FEA430C56
:10CD00007FEA6C5C02D152EA033C02D14FF0000092
:10CD100070474FF0010070474FEA410212F50012D0
:10CD200015D211D56FF47873B3EB625212D94FEA72
:10CD3000C12343F0004343EA505311F0004F23FA5C
:10CD400002F018BF404270474FF00000704750EAB1
:10CD5000013005D111F0004008BF6FF0004070476E
:10CD60004FF00000704700BF53B94AB9002908BF0F
:10CD700000281CBF4FF0FF314FF0FF3000F00CB81F
:10CD8000ADF1080C6DE904CE4EF0F4FFDDF804E0DF
:10CD9000DDE9022304B07047704700BF08B5064BB9
:10CDA0001A783AB9054A1AB10548AFF30080024B28
:10CDB00001221A7008BD00BFF80800200000000022
:10CDC00094C0050808B5034B1BB103490348AFF3F2
:10CDD000008008BD00000000FC08002094C0050889
:10CDE000044BD3F8882042F47002C3F88820024A2A
:10CDF0009A60704700ED00E000C0000810B5036ABB
:10CE000023F001030362026AD0F804E0836923F08F
:10CE100073030C6844EA030C22F002028B6813438C
:10CE20000E4A90420AD00D4A90420ED0C0F804E05B
:10CE3000C0F818C04A684263036210BD23F00803BB
:10CE4000CA681A4322F00403EDE72EF4407E4A69D3
:10CE500042EA0E028C6944EA020EE7E70000014054
:10CE600010B5036A23F480730362036AD0F804C028
:10CE7000C26922F073020C6844EA020E23F40073C4
:10CE80008A6843EA02230F4A90420AD00D4A904230
:10CE90000FD0C0F804C0C0F81CE04A68C263036247
:10CEA00010BD23F40063CA6843EA022323F48063BD
:10CEB000ECE72CF4405C4A694CEA021C8A694CEAB3
:10CEC000021CE6E70000014010B5036A23F480531A
:10CED0000362036AD0F804C0C26922F4E6420C6817
:10CEE00042EA042223F400538C6843EA0433DFF857
:10CEF00020E0704506D0C0F804C0C2614A680264F0
:10CF0000036210BD2CF4804C4C694CEA841CF2E79F
:10CF100000000140036AD0F820C02CF0010CC0F8DA
:10CF200020C0D0F818C02CF0F00C4CEA021223F00C
:10CF30000A030B43826103627047036A23F0100304
:10CF40000362D0F818C0036A2CF4704C4CEA023229
:10CF500023F0A00343EA01138261036270478368F0
:10CF600023F070030B4343F0070383607047000016
:10CF700090F83D30012B2FD1022380F83D3002681C
:10CF8000D36843F00103D3600368154A934218D075
:10CF9000B3F1804F15D0A2F57C42934211D002F537
:10CFA000806293420DD002F58062934209D002F56F
:10CFB0009A32934205D01A6842F001021A600020AA
:10CFC00070479A6802F00702062A07D01A6842F0F2
:10CFD00001021A600020704701207047002070474E
:10CFE00000000140704770477047704710B5044615
:10CFF00003681A6912F0020F11D0DA6812F0020FFA
:10D000000DD06FF002021A610123037703689B6958
:10D0100013F0030F70D0FFF7E6FF00232377236898
:10D020001A6912F0040F12D0DA6812F0040F0ED051
:10D030006FF004021A610223237723689B6913F4BB
:10D04000407F5FD02046FFF7CEFF00232377236881
:10D050001A6912F0080F12D0DA6812F0080F0ED019
:10D060006FF008021A61042323772368DB6913F049
:10D07000030F4ED02046FFF7B6FF00232377236827
:10D080001A6912F0100F12D0DA6812F0100F0ED0D9
:10D090006FF010021A61082323772368DB6913F409
:10D0A000407F3DD02046FFF79EFF00232377236873
:10D0B0001A6912F0010F03D0DA6812F0010F36D1AD
:10D0C00023681A6912F0800F03D0DA6812F0800F1B
:10D0D00034D123681A6912F0400F03D0DA6812F0D5
:10D0E000400F32D123681A6912F0200F03D0DA689A
:10D0F00012F0200F30D110BDFFF774FF2046FFF76C
:10D1000073FF8AE72046FFF76DFF2046FFF76CFFAD
:10D110009BE72046FFF766FF2046FFF765FFACE779
:10D120002046FFF75FFF2046FFF75EFFBDE76FF089
:10D1300001021A61204606F0A3FFC1E76FF08002EA
:10D140001A61204600F027FAC3E76FF040021A6127
:10D150002046FFF74AFFC5E76FF020021A6120461C
:10D1600000F018FAC7E700000368254A90420ED085
:10D17000B0F1804F0BD0A2F57C42904207D002F56F
:10D180008062904203D002F58062904203D123F086
:10D1900070034A6813431A4A90421AD0B0F1804F84
:10D1A00017D0A2F57C42904213D002F580629042E3
:10D1B0000FD002F5806290420BD002F59A32904275
:10D1C00007D002F58062904203D002F5806290425F
:10D1D00003D123F44073CA68134323F080034A69E0
:10D1E000134303608B68C3620B688362044B9842ED
:10D1F00002D00123436170470B690363F9E700BF65
:10D200000000014040B310B5044690F83D30F3B142
:10D21000022384F83D30214651F8040BFFF7A4FFA8
:10D22000012384F8463084F83E3084F83F3084F897
:10D23000403084F8413084F8423084F8433084F838
:10D24000443084F8453084F83D30002010BD80F82B
:10D250003C3007F019FADBE70120704740B310B506
:10D26000044690F83D30F3B1022384F83D30214666
:10D2700051F8040BFFF778FF012384F8463084F857
:10D280003E3084F83F3084F8403084F8413084F8F0
:10D29000423084F8433084F8443084F8453084F8D0
:10D2A0003D30002010BD80F83C3007F029FADBE764
:10D2B0000120704710B5036A23F010030362036A6C
:10D2C000D0F804C0826922F4E6420C6842EA0422E3
:10D2D00023F020038C6843EA0413DFF840E0704534
:10D2E0000AD0DFF838E070450ED0C0F804C0826183
:10D2F0004A688263036210BD23F08003CC6843EA6E
:10D30000041323F04003ECE72CF4406C4C694CEA26
:10D31000840C8C694CEA840CE7E700BF00000140F4
:10D3200038B590F83C30012B69D00446012380F8D1
:10D330003C30082A4ED01BD8002A33D0042A15D1FD
:10D340000D460068FFF7B6FF2268936943F4006357
:10D3500093612268936923F48063936122689369DF
:10D36000296943EA0123936100202FE018462DE04C
:10D370000C2A15D10D460068FFF7A6FD2268D36977
:10D3800043F40063D3612268D36923F48063D361DB
:10D390002268D369296943EA0123D361002015E09B
:10D3A000012013E00D460068FFF728FD226893690D
:10D3B00043F0080393612268936923F004039361A7
:10D3C0002268936929690B4393610020002384F844
:10D3D0003C3038BD0D460068FFF742FD2268D36936
:10D3E00043F00803D3612268D36923F00403D361B7
:10D3F0002268D36929690B43D3610020E6E7022044
:10D40000E7E7D0F808C02CF47F4C42EA03220A4335
:10D4100042EA0C028260704790F83C30012B78D0D1
:10D4200010B50446012380F83C30022380F83D30DB
:10D430000268936823F47F4323F0770393600B68BB
:10D44000602B4CD023D8402B54D011D8202B03D0A4
:10D450000AD80BB1102B05D119462068FFF77FFDC4
:10D46000002028E0012026E0302BF5D0012022E02A
:10D47000502B0AD1CA6849680068FFF74BFD50215C
:10D480002068FFF76CFD002015E0012013E0B3F5E4
:10D49000805F3AD0B3F5005F14D0702B37D1CB68E2
:10D4A0004A6889680068FFF7ACFF2268936843F018
:10D4B000770393600020012384F83D30002384F833
:10D4C0003C3010BDCB684A6889680068FFF799FF57
:10D4D0002268936843F4804393600020EBE7CA68B6
:10D4E00049680068FFF729FD60212068FFF737FDD4
:10D4F0000020E0E7CA6849680068FFF70BFD40219B
:10D500002068FFF72CFD0020D5E70020D3E701209D
:10D51000D1E702207047000090F83C20012A35D066
:10D5200000B50346012280F83C20022280F83D200D
:10D5300002685068D2F808E020F0700C086840EAF1
:10D540000C0050601A681248824212D0B2F1804F2B
:10D550000FD0A0F57C4082420BD000F58060824263
:10D5600007D000F58060824203D000F59A308242F5
:10D5700005D12EF0800E496841EA0E01916001222A
:10D5800083F83D20002083F83C0000BD0220704756
:10D590000000014070477047002800F0E28170B53C
:10D5A00082B00446036813F0010F3BD09B4B9B688D
:10D5B00003F00C03042B2CD0984B9B6803F00C0356
:10D5C000082B21D06368B3F5803F4FD0B3F5A02F6F
:10D5D00052D0924B1A6822F480321A601A6822F4F0
:10D5E00080221A606368002B50D001F0FFF80546D6
:10D5F0008A4B1B6813F4003F14D101F0F7F8401B6D
:10D600006428F5D90320B3E1844B5B6813F4800FE1
:10D61000D8D0824B1B6813F4003F03D06368002B03
:10D6200000F0A181236813F0020F54D07B4B9B685C
:10D6300013F00C0F3ED0794B9B6803F00C03082BC2
:10D6400033D0E368002B68D0754B01221A6001F0DB
:10D65000CDF80546714B1B6813F0020F54D101F051
:10D66000C5F8401B0228F5D9032081E16B4A1368F5
:10D6700043F480331360B5E7684B1A6842F48022A4
:10D680001A601A6842F480321A60ABE701F0AEF813
:10D690000546624B1B6813F4003FC3D001F0A6F8A7
:10D6A000401B6428F5D9032062E15C4B5B6813F4EE
:10D6B000800FC6D1594B1B6813F0020F03D0E368EB
:10D6C000012B40F05281554A136823F0F803216979
:10D6D00043EAC1031360236813F0080F42D0636963
:10D6E0006BB34F4B0122C3F8802E01F07FF8054643
:10D6F0004A4B5B6F13F0020F34D101F077F8401BF7
:10D700000228F5D9032033E1444A136823F0F803D3
:10D71000216943EAC1031360DDE7414B00221A602F
:10D7200001F064F805463D4B1B6813F0020FD2D0A0
:10D7300001F05CF8401B0228F5D9032018E1384BB2
:10D740000022C3F8802E01F051F80546334B5B6F81
:10D7500013F0020F06D001F049F8401B0228F5D95A
:10D76000032005E1236813F0040F79D02B4B1B6CC9
:10D7700013F0805F34D100230193284B1A6C42F0E0
:10D7800080521A641B6C03F080530193019B0123A8
:10D790001E46244B1B6813F4807F24D0A368012B02
:10D7A00035D0052B40D01D4B1A6F22F001021A67AD
:10D7B0001A6F22F004021A67A368002B3ED001F012
:10D7C00015F80546154B1B6F13F0020F47D101F0FA
:10D7D0000DF8401B41F288339842F3D90320C7E08B
:10D7E00000231E46D5E70F4A136843F48073136085
:10D7F00000F0FCFF05460B4B1B6813F4807FCDD176
:10D8000000F0F4FF401B0228F5D90320B0E0034AE2
:10D81000136F43F001031367CEE700BF00380240E7
:10D820000000474200700040584B1A6F42F004025B
:10D830001A671A6F42F001021A67BDE700F0D6FFBF
:10D840000546524B1B6F13F0020F08D000F0CEFFBD
:10D85000401B41F288339842F3D9032088E0EEB9A7
:10D86000A369002B00F08380484A926802F00C0202
:10D87000082A51D0022B17D0454B00221A6600F01F
:10D88000B5FF0446414B1B6813F0007F42D000F007
:10D89000ADFF001B0228F5D9032069E03B4A136C59
:10D8A00023F080531364DBE7394B00221A6600F043
:10D8B0009DFF0546354B1B6813F0007F06D000F036
:10D8C00095FF401B0228F5D9032051E0E369226A45
:10D8D0001343626A43EA8213A26A5208013A43EA96
:10D8E0000243E26A43EA0263284A5360284B01225A
:10D8F0001A6600F07BFF0446244B1B6813F0007F80
:10D9000006D100F073FF001B0228F5D903202FE099
:10D9100000202DE000202BE0012B2BD01B4B5B685F
:10D9200003F48001E269914226D103F03F02216AAB
:10D930008A4223D1616A47F6C0721A40B2EB811F56
:10D940001ED103F44031A26A5208013AB1EB024FF2
:10D9500018D103F07063E26AB3EB026F14D10020B8
:10D9600006E001207047012002E0012000E0184697
:10D9700002B070BD0120FBE70120F9E70120F7E7C5
:10D980000120F5E70120F3E70120F1E7003802402C
:10D990000000474208B5264B9B6803F00C03042B9C
:10D9A00041D0082B41D1224B5A6802F03F025B68FC
:10D9B00013F4800F12D01E4B5968C1F388111D4813
:10D9C0000023A1FB0001FFF7CFF9194B5B68C3F3FC
:10D9D000014301335B00B0FBF3F008BD144B586802
:10D9E000C0F388104FEA401CBCEB000C6EEB0E0E2F
:10D9F0004FEA8E1343EA9C634FEA8C11B1EB0C01A2
:10DA000063EB0E03DB0043EA5173C90011EB000C1A
:10DA100043F10003990200234FEA8C2041EA9C5114
:10DA2000FFF7A2F9D1E70348D7E70348D5E700BFDE
:10DA30000038024040787D010024F400002800F006
:10DA40009B8070B50D4604464F4B1B6803F00703DF
:10DA50008B4208D2CBB24C4A1370136803F0070311
:10DA60008B4240F08B80236813F0020F17D013F025
:10DA7000040F04D0454A936843F4E053936023684D
:10DA800013F0080F04D0414A936843F46043936055
:10DA90003E4A936823F0F003A1680B439360236828
:10DAA00013F0010F32D06368012B21D09A1E012A96
:10DAB00025D9364A126812F0020F61D033498A68BC
:10DAC00022F0030213438B6000F090FE06462F4BBA
:10DAD0009B6803F00C036268B3EB820F16D000F072
:10DAE00085FE801B41F288339842F0D9032042E042
:10DAF000264A126812F4003FE0D101203BE0234A9D
:10DB0000126812F0007FD9D1012034E01E4B1B684F
:10DB100003F00703AB4207D9EAB21B4B1A701B682C
:10DB200003F00703AB422DD1236813F0040F06D096
:10DB3000164A936823F4E053E1680B43936023682B
:10DB400013F0080F07D0114A936823F4604321694A
:10DB500043EAC1039360FFF71DFF0C4B9B68C3F3BF
:10DB600003130B4AD35CD8400A4B18600A4B186861
:10DB700006F094FF002070BD012070470120FAE7F5
:10DB80000120F8E70120F6E7003C0240003802409F
:10DB900098C705080002002008020020014B186801
:10DBA000704700BF0002002008B5FFF7F7FF044BE5
:10DBB0009B68C3F38223034AD35CD84008BD00BFEF
:10DBC0000038024090C7050808B5FFF7E7FF044B8F
:10DBD0009B68C3F34233034AD35CD84008BD00BFFF
:10DBE0000038024090C705080F2303600B4B9A686A
:10DBF00002F0030242609A6802F0F00282609A68C2
:10DC000002F4E052C2609B68DB0803F4E053036156
:10DC1000034B1B6803F007030B607047003802409A
:10DC2000003C02400B49D1F810C02CF4407CC1F8F4
:10DC300010C0D1F810C04CF4407CC1F810C0D1F82D
:10DC400010C04CF0010CC1F810C00260BFF36F8F20
:10DC500043607047003C0240074B1A6922F440724F
:10DC60001A611A6942F400721A611A6942F00102DB
:10DC70001A610160704700BF003C0240074B1A69FF
:10DC800022F440721A611A6942F480721A611A69A8
:10DC900042F001021A610180704700BF003C02405F
:10DCA000064B1A6922F440721A611A691A611A69DC
:10DCB00042F001021A610170704700BF003C02404F
:10DCC000274BDB6813F0100F07D0264AD36943F0C7
:10DCD0001003D361224B1022DA60214BDB6813F072
:10DCE000200F07D01F4AD36943F00803D3611C4BB0
:10DCF0002022DA601A4BDB6813F0400F07D0194A74
:10DD0000D36943F00403D361154B4022DA60144B0E
:10DD1000DB6813F0800F07D0124AD36943F0020387
:10DD2000D3610F4B8022DA600D4BDB6813F4807FE8
:10DD300008D00C4AD36943F00103D361084B4FF478
:10DD40008072DA60064BDB6813F0020F07D0054AD9
:10DD5000D36943F02003D361014B0222DA6070479C
:10DD6000003C024014090020094B1B69002B01DB19
:10DD700000207047064B074A5A6002F188325A6009
:10DD80001B69002B01DB002070470120704700BF9A
:10DD9000003C024023016745034A136943F00043F6
:10DDA00013610020704700BF003C024038B50446B4
:10DDB000144B0022DA6100F019FD0546124BDB68B6
:10DDC00013F4803F0AD0B4F1FF3FF7D024B100F044
:10DDD0000DFD401BA042F1D903200DE00A4BDB688A
:10DDE00013F0010F02D0084B0122DA60064BDB680A
:10DDF00013F4F97F01D1002038BDFFF761FF012046
:10DE0000FAE700BF14090020003C0240F8B51646AE
:10DE10001B4A127E012A30D004460D461F46184B7D
:10DE200001221A764CF25030FFF7C0FF90B9ACB126
:10DE3000012C18D0022C1BD032463B462846FFF757
:10DE4000F1FE4CF25030FFF7B1FF0E4A136923F098
:10DE5000010313610A4B00221A76F8BDF1B228467D
:10DE6000FFF71EFFEDE7B1B22846FFF707FFE8E72F
:10DE700031462846FFF7F0FEE3E70220EDE700BF5A
:10DE800014090020003C0240074B1A6922F440723A
:10DE90001A611A6942F004021A611A6942EA002200
:10DEA00042F480321A617047003C024029B10129D6
:10DEB0001DD0022918D04FF440710E4B1A6922F47C
:10DEC00040721A611A690A431A611A6922F0F8024B
:10DED0001A611A6942EAC00040F0020018611A692A
:10DEE00042F480321A6170474FF40071E5E74FF455
:10DEF0008071E2E7003C0240164B1B6813F4007F80
:10DF000010D0144B1A6822F400721A601A6842F496
:10DF100000621A601A6822F400621A601A6842F4F9
:10DF200000721A600B4B1B6813F4806F10D0094B02
:10DF30001A6822F480621A601A6842F480521A60E9
:10DF40001A6822F480521A601A6842F480621A60D9
:10DF5000704700BF003C0240F8B5234B1B7E012BED
:10DF60003FD004460D460F461F4B01221A764CF255
:10DF70005030FFF71BFF064670BB4FF0FF332B609E
:10DF80002368012B16D0A568E368A2681344AB424E
:10DF900020D9217C2846FFF789FF4CF25030FFF74B
:10DFA00005FF124A136923F0FA031361064680B98C
:10DFB0000135E9E76168207CFFF766FF4CF25030DD
:10DFC000FFF7F4FE0646094A136923F004031361C0
:10DFD00000E03D60FFF790FF034B00221A763046C9
:10DFE000F8BD02231E46FAE714090020003C024057
:10DFF00070B582B08E46002369E085684FEA430C15
:10E00000032101FA0CF125EA0105DEF80C1001FAF2
:10E010000CF129438160416821EA0201DEF8042005
:10E02000C2F300129A400A43426064E0D908083102
:10E0300050F8212003F00705AD004FF00F0C0CFA4B
:10E0400005FC22EA0C0CDEF81020AA4042EA0C0281
:10E0500040F8212066E0042200E0002202FA0CF2DF
:10E060002A430231564D45F82120564A9168E24331
:10E0700021EA0405DEF8046016F4801F01D044EAAA
:10E08000010550498D60C96802EA0105DEF80460A7
:10E0900016F4001F01D044EA01054A49CD604968E1
:10E0A00002EA0105DEF8046016F4003F01D044EAFC
:10E0B000010544494D6009680A40DEF8045015F432
:10E0C000803F01D044EA01023E490A6001330F2B30
:10E0D00074D801229A40DEF8001001EA020432EA04
:10E0E0000101F3D1DEF8041001F0030C0CF1FF3C48
:10E0F000BCF1010F81D9DEF8042002F00302032AEB
:10E100000AD0C1685D000322AA4021EA0201DEF8BC
:10E110000820AA400A43C260DEF8042002F003028D
:10E12000022A83D001684FEA430C032202FA0CF260
:10E1300021EA0201DEF8042002F0030202FA0CF2E6
:10E140000A430260DEF8042012F4403FBED00022F1
:10E1500001921D4A516C41F480415164526C02F4A9
:10E1600080420192019A99088D1C154A52F8255057
:10E1700003F0030C4FEA8C0C0F2202FA0CF225EA92
:10E180000205124A90423FF468AF02F58062904265
:10E190000ED002F5806290420CD002F5806290426F
:10E1A0000AD002F5806290423FF455AF072255E74E
:10E1B000012253E7022251E703224FE702B070BD6C
:10E1C00000380140003C014000380240000002409D
:10E1D0000AB18161704709048161704708B5054B38
:10E1E0005B69034200D108BD024B586107F038F962
:10E1F000F9E700BF003C014010B5D0F800E0DEF8C0
:10E2000000C02CF4802CCEF800C0046863608368E2
:10E21000402B04D0036899600368DA6010BD03687E
:10E220009A600368D960F9E70368D9B210390A4ADD
:10E23000A2FB01C21209DFF824C01CF80220C2654B
:10E240005F2905D96FF3090304338365806D704737
:10E250006FF309038365F9E7ABAAAAAAA8C7050863
:10E26000836A826992B9012B0AD0022B02D00BB1CA
:10E2700000207047C36A13F0807F2CD100207047C4
:10E28000C36AB3F1C07F28D000207047B2F5005FA9
:10E2900009D0022B2BD9032B2BD1C36A13F0807F1B
:10E2A00029D100207047022B19D00AD8CBB1012BFD
:10E2B00005D1C36A13F0807F15D10020704700207C
:10E2C0007047032B05D1C36AB3F1C07F0DD0002086
:10E2D00070470020704701207047012070470120DF
:10E2E00070470120704701207047012070470120CE
:10E2F00070470020704701207047000070B5044649
:10E3000000F074FA002C5CD00546022384F8353006
:10E31000002384F834302268136823F0010313606B
:10E3200023681A6812F0010F0AD000F05FFA431B4D
:10E33000052BF5D920236365032084F8350070BDD3
:10E340001A68214911406268A0680243E0680243EC
:10E350002069024360690243A0690243E069024305
:10E36000206A02430A43616A04291FD01A602368A5
:10E370001E465D6925F00705636A1D43042B07D11E
:10E38000A36A1D43E36A1BB12046FFF769FF90B9FA
:10E3900075612046FFF748FFE26D3F23934083609D
:10E3A00000206065012384F83530C8E7E16A206BFE
:10E3B00001430A43DAE740236365012084F835000E
:10E3C000BDE70120BBE700BF3F8010F038B5044631
:10E3D000806D054694F8340001282AD0012084F885
:10E3E000340094F83500012804D0002384F8343038
:10E3F000022038BD022084F83500002060652046E8
:10E40000FFF7FAFEE26D3F239340AB60226813688A
:10E4100043F016031360236C23B12268136843F0A2
:10E42000080313602268136843F00103136000209F
:10E43000DFE70220DDE770B50446836D1E4600F07D
:10E44000D5F994F83530022B06D08023636500237C
:10E4500084F83430012070BD05462268136823F02B
:10E46000160313602268536923F080035361236C01
:10E47000E3B12268136823F008031360226813686D
:10E4800023F00103136023681B6813F0010F11D000
:10E4900000F0ACF9431B052BF5D92023636503205D
:10E4A00084F83500002384F83430D4E7A36C002BC3
:10E4B000DFD1E3E7E26D3F239340B360012384F8AB
:10E4C0003530002084F83400C5E790F83530022B51
:10E4D00003D08023436501207047052380F8353041
:10E4E0000268136823F001031360002070470000E6
:10E4F000F0B583B0044600230193724B1D68724B44
:10E50000A3FB0535AD0A876D3E68C26D08239340B5
:10E51000334210D003681A6812F0040F0BD01A6847
:10E5200022F004021A60C26D08239340BB60436D61
:10E5300043F001034365E26D01239340334209D068
:10E540002268526912F0800F04D0BB60636D43F003
:10E5500002036365E26D04239340334209D02268CD
:10E56000126812F0020F04D0BB60636D43F0040325
:10E570006365E26D10239340334224D02268126811
:10E5800012F0080F1FD0BB6023681A6812F4802FA6
:10E590000DD01B6813F4002F04D1236C9BB12046CF
:10E5A000984710E0A36C73B1204698470BE01A68B7
:10E5B00012F4807F03D11A6822F008021A60236CDB
:10E5C0000BB120469847E26D20239340334254D04C
:10E5D0002268126812F0100F4FD0BB6094F83530EB
:10E5E000052B0ED023681A6812F4802F33D01B68D5
:10E5F00013F4002F2AD1636C002B3ED0204698479D
:10E600003BE02268136823F0160313602268536905
:10E6100023F080035361236CA3B12268136823F0B5
:10E6200008031360E26D3F239340BB60012384F82D
:10E630003530002384F83430236D002B3FD0204642
:10E6400098473CE0A36C002BE7D1EBE7E36BA3B169
:10E650002046984711E01A6812F4807F09D11A68A1
:10E6600022F010021A60012384F83530002384F868
:10E670003430E36B0BB120469847636DFBB1636D9B
:10E6800013F0010F17D0052384F835302268136882
:10E6900023F001031360019B01330193AB4204D8C3
:10E6A00023681B6813F0010FF5D1012384F835307E
:10E6B000002384F83430E36C0BB12046984703B054
:10E6C000F0BD00BF00020020B5814E1B406D7047B9
:10E6D000002808DB0901C9B200F1604000F5614083
:10E6E00080F80013704700F00F000901C9B2014B18
:10E6F0001954704714ED00E000B500F00700A0F1D8
:10E70000030CBCF1040F07D8C0F1070E0430062833
:10E7100006D84FF0000C03E04FF0040E4FF0000C51
:10E720004FF0FF3303FA0EF021EA000101FA0CF179
:10E7300003FA0CF322EA030241EA020000BD0000E2
:10E74000074AD36823F4E0631B041B0C000200F4A7
:10E75000E060034343F0BF6343F40033D36070478A
:10E7600000ED00E010B50446054BD868C0F3022068
:10E77000FFF7C2FF01462046FFF7AAFF10BD00BF0A
:10E7800000ED00E0002807DB00F01F024009012334
:10E790009340024A42F82030704700BF00E100E099
:10E7A00008B50B4B1A6842F400721A601A6842F4FA
:10E7B00080621A601A6842F480721A600320FFF7C0
:10E7C000BFFF0F2006F06AF906F046F9002008BDE9
:10E7D000003C0240034A1168034B1B780B44136052
:10E7E000704700BF3409002004020020014B186864
:10E7F000704700BF3409002003685A6912F4806F23
:10E8000001D1002070476FF480625A6100230363D6
:10E81000202280F83D2080F83E30026C42F0040255
:10E82000026480F83C3001207047F8B506460C467B
:10E8300017461D4624E0FFF7D9FF069BC01AA842E1
:10E8400000D8EDB900233363202286F83D2086F8F6
:10E850003E30326C42F02002326486F83C300120B7
:10E860001EE033689B6924EA030C1FFA8CFCBCFA97
:10E870008CFC4FEA5C1C674511D1B5F1FF3FDAD142
:10E88000C4F30743012BECD133685B6924EA030C22
:10E890001FFA8CFCBCFA8CFC4FEA5C1CEBE70020F6
:10E8A000F8BDF8B504460D4616461F463CE01A680A
:10E8B00042F400721A6023686FF480625A61002388
:10E8C0002363202284F83D2084F83E30226C42F0FD
:10E8D0000402226484F83C30012033E0FFF786FF15
:10E8E000C01BB04200D8FEB900232363202284F865
:10E8F0003D2084F83E30226C42F02002226484F8ED
:10E900003C3001201EE023689B6925EA03039BB28B
:10E91000003B18BF0123A3B123685A6912F4806F2A
:10E92000C5D1B6F1FF3FD9D1C5F30743012BEAD1D9
:10E9300023685B6925EA03039BB2003B18BF0123F0
:10E94000E9E71846F8BD0000F0B583B004460E466E
:10E9500017461D46C36A082B0DD0012B0BD013F5AB
:10E96000803F08D0036B122B0AD10268136843F46E
:10E970008073136004E02268136843F480731360AB
:10E9800000953B4600224FF001112046FFF74DFF56
:10E9900080B92369B3F5804F16D1236806F0FE02D3
:10E9A0001A612B463A4613492046FFF77AFFF8B919
:10E9B00003B0F0BD23681B6813F4807F02D04FF4CE
:10E9C000007323640320F3E7F311226803F00603C6
:10E9D00043F0F00313612B463A4607492046FFF700
:10E9E00060FF18B92268F3B21361DAE70120DFE7AC
:10E9F0000120DDE702000100080001002DE9F041DF
:10EA000084B004460E4617461D46C26A01680B686C
:10EA100043F480630B60082A0DD0012A0BD012F555
:10EA2000803F08D0036B112B0AD10268136843F4AE
:10EA30008073136004E02268136843F480731360EA
:10EA400000953B4600224FF001112046FFF7EDFEF6
:10EA500098B92369B3F5804F19D1226846F00103B4
:10EA6000DBB213612B463A462A492046FFF719FFCD
:10EA700000284DD104B0BDE8F08123681B6813F471
:10EA8000807F02D04FF4007323640320F2E7F31178
:10EA900003F006031A469846236842F0F0021A6112
:10EAA0002B463A461C492046FFF7FBFE08B10120E1
:10EAB000E0E72268F3B213612B463A461549204637
:10EAC000FFF7EFFE08B10120D4E702460390236868
:10EAD00059690391996903910399196841F4807107
:10EAE000196000953B464FF001112046FFF79DFE4F
:10EAF00020B9226848F0F1031361B3E723681B686B
:10EB000013F4807F02D04FF4007323640320B1E735
:10EB10000120AFE7020001000800010070B50446C3
:10EB20000D46164623685B6913F0800F1CD1204602
:10EB3000FFF762FED0B9B5F1FF3FF3D0FFF756FE05
:10EB4000801BA84201D8002DECD100232363202292
:10EB500084F83D2084F83E30226C42F0200222648A
:10EB600084F83C30012000E0002070BD0120FCE76B
:10EB7000F0B585B004460D4616461F460368196871
:10EB800041F4807119600B9B00930A9B00224FF0A7
:10EB90000111FFF74AFE60B9226805F0FE03136118
:10EBA0000B9B0A9A23492046FFF77BFE60B10120A8
:10EBB00008E023681B6813F4807F02D04FF40073D1
:10EBC0002364032005B0F0BD039023685A690392C3
:10EBD0009B690393039B0B9A0A992046FFF79EFFBC
:10EBE00028B9012F0ED12368F2B21A61EAE7236C2B
:10EBF000042B01D00120E5E72268136843F4007379
:10EC00001360F7E7330A226813610B9A0A992046CA
:10EC1000FFF784FF18B92268F3B21361D2E7236CBF
:10EC2000042B01D00120CDE72268136843F4007360
:10EC30001360F7E702000100F0B585B004460D4609
:10EC400016461F460268136843F480631360026827
:10EC5000136843F4807313600B9B00930A9B00229C
:10EC60004FF00111FFF7E1FD60B9236805F0FE02E6
:10EC70001A610B9B0A9A40492046FFF712FE60B1C9
:10EC8000012008E023681B6813F4807F02D04FF452
:10EC900000732364032005B0F0BD039023685A6914
:10ECA00003929B690393039B0B9A0A992046FFF7F3
:10ECB00035FF80B9012F19D12368F2B21A610B9A7E
:10ECC0000A992046FFF72AFF00282DD0236C042B39
:10ECD00024D00120DFE7236C042B01D00120DAE7E8
:10ECE0002268136843F400731360F7E7330A22685D
:10ECF00013610B9A0A992046FFF710FF18B9226892
:10ED0000F3B21361DBE7236C042B01D00120C2E7CF
:10ED10002268136843F400731360F7E722681368EE
:10ED200043F400731360D4E72268136843F48073DC
:10ED300013600B9B00930A9B02464FF00111204683
:10ED4000FFF773FD70B9226845F00103DBB2136170
:10ED50000B9B0A9A08492046FFF7A3FD00289AD08A
:10ED6000012098E723681B6813F4807F02D04FF4DA
:10ED70000073236403208EE70200010070B504468F
:10ED80000D46164623685B6913F0040F1CD120461C
:10ED9000FFF732FDD0B9B5F1FF3FF3D0FFF726FD05
:10EDA000801BA84201D8002DECD100232363202230
:10EDB00084F83D2084F83E30226C42F02002226428
:10EDC00084F83C30012000E0002070BD0120FCE709
:10EDD00070B505460C4616462B68596911F0400F70
:10EDE00029D1596911F0100F15D1FFF7FFFC801BD5
:10EDF000A04201D8002CEFD100232B63202285F8FC
:10EE00003D2085F83E302A6C42F020022A6485F8C5
:10EE10003C30012070BD6FF010025A6100232B635B
:10EE2000202285F83D2085F83E302A6C2A6485F83A
:10EE30003C300120EEE70020ECE70000002800F065
:10EE4000DA8038B5044690F83D30002B51D02423A9
:10EE500084F83D302268136823F0010313602268B0
:10EE6000136843F4004313602268136823F40043DB
:10EE70001360FEF799FE6268614B9A423ED8614B7F
:10EE800098428CBF00230123002B40F0B6805E49DE
:10EE9000A1FB00318B0CD4F800C0DCF8042022F078
:10EEA0003F0242EA9142CCF8042021680A6A22F02B
:10EEB0003F02DFF84CC16568654525D8013313432F
:10EEC0000B622168CA6922F44F4222F0FF02D4F893
:10EED00004C04B4B9C4522D8431E4FEA4C0CB3FB5D
:10EEE000FCF3013340F6FC70034254D0C3F30B0330
:10EEF00052E080F83C3005F067FAA8E7434B9842AF
:10EF00008CBF00230123BFE74FF4967C0CFB03F377
:10EF1000DFF8FCC0ACFB03C39B090133CFE7D4F897
:10EF200008E0BEF1000F1AD1431E0CEB4C05B3FBF9
:10EF3000F5F30133C3F30B03B3FA83F35B09002B3F
:10EF400057D1BEF1000F19D1431E0CEB4C0CB3FB93
:10EF5000FCF30133C3F30B0343F400431CE00CEB5D
:10EF60008C0303EB83031D46431EB3FBF5F3013310
:10EF7000C3F30B03B3FA83F35B09E0E7431E0CEB27
:10EF80008C0C0CEB8C0CB3FBFCF30133C3F30B03C5
:10EF900043F4404300E004231A43CA6121680B682C
:10EFA00023F0C003E269206A024313430B60216827
:10EFB0008B6823F4034323F0FF032269E0680243D4
:10EFC00013438B602168CB6823F0FF036269A0695B
:10EFD00002431343CB602268136843F001031360BC
:10EFE00000202064202384F83D30206384F83E0014
:10EFF00038BD0123D0E7012070470120F8E700BFAA
:10F00000A08601007F841E0083DE1B43FF083D00B5
:10F01000D34D62102DE9F04385B004460F4690466B
:10F0200099460C9EFFF7E2FB94F83D10202905D08D
:10F0300002231F46384605B0BDE8F0830546009020
:10F040001923012251492046FFF7EFFB002840F029
:10F05000938094F83C30012B00F09180012384F8D8
:10F060003C3023681A6812F0010F03D11A6842F08D
:10F0700001021A602268136823F4006313602123DD
:10F0800084F83D30102384F83E3000232364C4F814
:10F090002480A4F82A90638D23853D4BE3622B46A0
:10F0A000324639462046FFF74FFC0746002869D113
:10F0B000039023685A6903929B690393039B12E0B0
:10F0C000236C042B02D001231F46B3E72268136888
:10F0D00043F400731360F6E72A4631462046FFF7F3
:10F0E0004DFE00282ED1238D002B37D02A463146E5
:10F0F0002046FFF713FD0028E2D1626A23681278E8
:10F100001A61606A431C6362618D89B2013989B2F8
:10F110006185238D013B9BB223852268516911F0E3
:10F12000040FD9D0002BD7D043781361636A013321
:10F130006362638D9BB2013B9BB26385238D013B70
:10F140002385C9E7236C042B02D001231F4671E7F6
:10F150002268136843F400731360F6E722681368AB
:10F1600043F400731360202384F83D30002384F8B7
:10F170003E3084F83C305DE702231F465AE7022305
:10F180001F4657E701231F4654E700BF0200100047
:10F190000000FFFF2DE9F04387B004460F4690467C
:10F1A00099460E9EFFF722FB94F83D10202905D0CA
:10F1B00002231F46384607B0BDE8F083054600909D
:10F1C0001923012289492046FFF72FFB002840F030
:10F1D000448194F83C30012B00F04281012384F8F3
:10F1E0003C3023681A6812F0010F03D11A6842F00C
:10F1F00001021A602268136823F40063136022235B
:10F2000084F83D30102384F83E3000232364C4F892
:10F210002480A4F82A90638D2385754BE3622B46E6
:10F22000324639462046FFF7E9FB0746002840F002
:10F230001A81238D5BB9029323685A6902929A69F5
:10F240000292029A1A6842F400721A607AE0012B64
:10F250000FD0022B1FD02268136843F48063136021
:10F260000023059323685A6905929B690593059BC2
:10F2700068E02268136823F480631360002303931B
:10F2800023685A6903929A690392039A1A6842F4AE
:10F2900000721A6056E02268136823F480631360DA
:10F2A0002268136843F40063136000230493236807
:10F2B0005A6904929B690493049B43E02A463146B1
:10F2C0002046FFF785FD002840F0D08023681A69AA
:10F2D000636A1A70636A01336362238D013B23857D
:10F2E000638D9BB2013B9BB263852BE00095334657
:10F2F000002240492046FFF798FA002840F0B980E4
:10F300002268136843F40073136023681A69636A00
:10F310001A70626A531C6362238D013B2385638DDF
:10F320009BB2013B9BB2638523681B695370636A80
:10F3300001336362238D013B2385638D9BB2013BC7
:10F340009BB26385218D00297FD0032954D80129E0
:10F35000B4D00229CAD00095334600222549204660
:10F36000FFF763FA002840F087802268136823F4CF
:10F370008063136023681A69636A1A70636A0133D1
:10F380006362238D013B2385618D89B2013989B286
:10F39000618500953346024616492046FFF745FA37
:10F3A00000286CD12268136843F40073136023684B
:10F3B0001A69636A1A70626A531C6362238D013B87
:10F3C0002385638D9BB2013B9BB2638523681B69D8
:10F3D0005370636A01336362238D013B2385638D20
:10F3E0009BB2013B9BB26385ACE700BF02001000FB
:10F3F0000000FFFF040001002A4631462046FFF7C7
:10F40000E7FC00283ED123681A69636A1A70626AB1
:10F41000531C6362238D013B2385638D9BB2013BAB
:10F420009BB263852368596911F0040F8AD01B6968
:10F430005370636A01336362238D013B2385638DBF
:10F440009BB2013B9BB263857CE7202384F83D306F
:10F4500084F83E1084F83C10ACE602231F46A9E66F
:10F4600002231F46A6E601231F46A3E601231F46EB
:10F47000A0E601231F469DE601231F469AE60123CD
:10F480001F4697E601231F4694E600BF2DE9F04191
:10F4900082B004460E4617469846FFF7A7F994F83F
:10F4A0003D20202A03D0022002B0BDE8F0810546AD
:10F4B0000090192301224C492046FFF7B6F9002895
:10F4C00040F08B8094F83C30012B00F088800123C1
:10F4D00084F83C3023681A6812F0010F03D11A68CF
:10F4E00042F001021A602268136823F4006313607B
:10F4F000212384F83D30402384F83E3000232364E8
:10F50000089B6362BDF824306385638D2385374B88
:10F51000E36201950A9B009343463A4631462046F2
:10F52000FFF726FB00285CD1238D002B36D02A461E
:10F530000A992046FFF7F2FA002824D1626A23686C
:10F5400012781A61626A531C6362218D013989B293
:10F550002185638D9BB2013B9BB26385236858690B
:10F5600010F0040FE0D00029DED052781A61636AEF
:10F5700001336362238D013B2385638D9BB2013B85
:10F580009BB26385D0E7236C042B01D001208BE76D
:10F590002268136843F400731360F7E72A460A9958
:10F5A0002046FFF7EBFB50B1236C042B01D0012068
:10F5B0007AE72268136843F400731360F7E7226860
:10F5C000136843F400731360202384F83D30002354
:10F5D00084F83E3084F83C3066E7022064E702207D
:10F5E00062E7012060E700BF020010000000FFFF9B
:10F5F0002DE9F04387B004460F4690469946109E89
:10F60000FFF7F4F894F83D20202A05D002231F4686
:10F61000384607B0BDE8F083054600901923012263
:10F6200088492046FFF701F9002840F0438194F80B
:10F630003C30012B00F04181012384F83C302368E9
:10F640001A6812F0010F03D11A6842F001021A6021
:10F650002268136823F400631360222384F83D308A
:10F66000402384F83E30002323640E9B6362BDF880
:10F670003C306385638D2385734BE362019500966F
:10F680004B46424639462046FFF7D6FA0746002841
:10F6900040F01681238D5BB9029323685A69029268
:10F6A0009A690292029A1A6842F400721A6075E02E
:10F6B000012B0AD0022B1AD00023059323685A6924
:10F6C00005929B690593059B68E02268136823F403
:10F6D000806313600023039323685A6903929A6935
:10F6E0000392039A1A6842F400721A6056E0226884
:10F6F000136823F4806313602268136843F4006383
:10F7000013600023049323685A6904929B6904934D
:10F71000049B43E02A4631462046FFF759FB002868
:10F7200040F0D18023681A69636A1A70636A0133F2
:10F730006362238D013B2385638D9BB2013B9BB2AA
:10F7400063852BE000953346002240492046FFF7B1
:10F750006CF8002840F0BA802268136843F4007304
:10F76000136023681A69636A1A70626A531C6362C1
:10F77000238D013B2385638D9BB2013B9BB2638547
:10F7800023681B695370636A01336362238D013BF5
:10F790002385638D9BB2013B9BB26385238D002B38
:10F7A0007FD0032B54D8012BB4D0022BCAD00095A4
:10F7B0003346002225492046FFF737F8002840F05D
:10F7C00088802268136823F48063136023681A69B1
:10F7D000636A1A70636A01336362238D013B238578
:10F7E000638D9BB2013B9BB2638500953346024615
:10F7F00016492046FFF719F800286DD122681368D2
:10F8000043F40073136023681A69636A1A70626AAA
:10F81000531C6362238D013B2385638D9BB2013BA7
:10F820009BB2638523681B695370636A013363620B
:10F83000238D013B2385638D9BB2013B9BB2638586
:10F84000ACE700BF020010000000FFFF0400010051
:10F850002A4631462046FFF7BBFA00283FD12368ED
:10F860001A69636A1A70626A531C6362238D013BD2
:10F870002385638D9BB2013B9BB2638523685969E5
:10F8800011F0040F8AD01B695370636A01336362FD
:10F89000238D013B2385638D9BB2013B9BB2638526
:10F8A0007CE7202384F83D30002384F83E3084F840
:10F8B0003C30ADE602231F46AAE602231F46A7E618
:10F8C00001231F46A4E601231F46A1E601231F468C
:10F8D0009EE601231F469BE601231F4698E601236F
:10F8E0001F4695E62DE9F04186B004460D461646C2
:10F8F0001F46FEF77BFF0023059394F83D30202B35
:10F9000040F0E7808046774B1B68DB08764AA2FB15
:10F9100003231B0A03EB830303EB83030593059B7C
:10F92000013B05930598002859D023689A6912F085
:10F93000020FF4D194F83C20012A00F0CE8001227D
:10F9400084F83C201A6812F0010F03D11A6842F0C3
:10F9500001021A602268136823F4006313602223F3
:10F9600084F83D30402384F83E30002222640C9B12
:10F970006362BDF834306385638D9BB223855B4938
:10F98000E1626564A664E7642265002B00F0848070
:10F99000A36B002B31D0564ADA63A36B554ADA6465
:10F9A000A26B00231364A26B5364A26B9364A26BDB
:10F9B00013652168238D626A1031A06BFEF706FD86
:10F9C00048B3202384F83D30002284F83E20236C85
:10F9D00043F01003236484F83C2001207AE0206384
:10F9E000202284F83D2084F83E00226C42F0200260
:10F9F000226484F83C0001206CE0202384F83D3030
:10FA0000002284F83E20236C43F08003236484F8B2
:10FA10003C2001205EE0CDF80480232300933B4688
:10FA2000324629462046FFF707F9D8B9238D012B26
:10FA30002CD02268536843F4805353600022039211
:10FA400023685969039199690391039984F83C20CB
:10FA50005A6842F480725A602268536843F4006323
:10FA6000536034E0A06BFEF730FDA26B0023D3633C
:10FA700021680A6822F480620A602385638522680F
:10FA8000136823F001031360012023E02268136848
:10FA900023F480631360D1E7CDF80480232300931F
:10FAA0003B46324629462046FFF7C6F8B8B90490CF
:10FAB00023685A6904929A690492049A1A6842F473
:10FAC00000721A60202384F83D3084F83C00002046
:10FAD00000E0022006B0BDE8F0810220FAE7012034
:10FAE000F8E700BF0002002089B5F8140000FFFF0E
:10FAF0004BFB000801FB00087047704770477047D8
:10FB000010B5846B636B0BB10022DA63A36B0BB18E
:10FB10000022DA63FEF7DAFD022800D110BD226868
:10FB2000136823F48063136000236385202384F823
:10FB30003D304FF0000384F83E30236C43F0100357
:10FB400023642046FFF7DBFFE8E710B5846B94F8E9
:10FB50003D30DBB294F83E20D1B2D4F82CC02068FE
:10FB6000426822F440724260626B0AB10020D063A6
:10FB7000A26B0AB10020D06303F02102212A42D0F7
:10FB800003F02202222A3CD094F83E30002B4AD0C7
:10FB9000638D9BB2012B59D02268536823F44073C4
:10FBA00053601CF5803F08D0BCF1080F05D0BCF1B4
:10FBB0002A4F02D0BCF1200F04D12268136843F40D
:10FBC000007313602268536823F4805353602268E3
:10FBD000536823F40063536000236385236C002B78
:10FBE0003AD1202384F83D3094F83E30402B37D072
:10FBF000002384F83E30122323632046FFF77CFF66
:10FC000011E02029C0D121684A6822F400624A60CC
:10FC100000226285292B07D02A2B0ED02268536838
:10FC200043F44073536010BD21232363282384F8D9
:10FC30003D302046FFF761FFF0E7222323632823AE
:10FC400084F83D302046FFF759FFE7E72268136844
:10FC500023F4806313609FE72046FFF750FFE2E73D
:10FC6000002384F83E302363204605F019FCDAE7D0
:10FC700090F83D007047006C704700002DE9F0439C
:10FC800083B004460F4616461D46FEF7AFFD0A9B9D
:10FC90001B1A03EB0508FEF7A9FD8146284B1B68DC
:10FCA000C3F3CB3308FB03F3019323689B6837EA64
:10FCB00003030CBF01230023B3423DD0B5F1FF3F46
:10FCC000F3D0FEF793FD4B46C01A404507D2019A88
:10FCD00002B14246019B013B01939046E5E7226851
:10FCE000536823F0E00353606368B3F5827F0BD061
:10FCF000A36AB3F5005F14D0012384F851300023C8
:10FD000084F85030032018E0A368B3F5004F02D008
:10FD1000B3F5806FECD12268136823F040031360C1
:10FD2000E6E72268136823F400531360226813681F
:10FD300043F400531360DFE7002003B0BDE8F08315
:10FD40000002002010B584B00446164B1868164B0C
:10FD5000A3FB0030400D4FF47A7303FB00F00390D7
:10FD60006368B3F5827F0BD0039BBBB1039B013B60
:10FD7000039323689B6813F0800FF5D100200EE0F9
:10FD800000920B46002280212046FFF777FF30B11A
:10FD9000636D43F020036365032000E0184604B060
:10FDA00010BD00BF00020020819F5E1610B582B01A
:10FDB00004460B464168B1F5827F14D06168B1F505
:10FDC000827F2AD1A168B1F5806F19D000920022FC
:10FDD00080212046FFF752FF30B3636D43F02003CC
:10FDE0006365032020E08168B1F5004F02D0B1F5D2
:10FDF000806FE3D12068016821F040010160DDE7F8
:10FE00000092002201212046FFF738FF60B1636DA8
:10FE100043F020036365032006E0009200220121E5
:10FE20002046FFF72BFF08B902B010BD636D43F009
:10FE3000200363650320F7E700285AD010B5044675
:10FE4000436A33B94368B3F5827F05D00023C361A9
:10FE500002E00023036143610023A36294F8513060
:10FE6000002B40D0022384F851302268136823F01D
:10FE700040031360636803F48273A26802F40442CF
:10FE80001343E26802F400621343226902F00202A3
:10FE90001343626902F001021343A26902F4007283
:10FEA0001343E26902F038021343226A02F080022F
:10FEB0001343A26A02F40052216813430B60638B60
:10FEC00003F00403626A02F01002216813434B60DE
:10FED0002268D36923F40063D361002060650123A5
:10FEE00084F8513010BD84F85030204604F048FBAF
:10FEF000B8E7012070472DE9F04383B01D4690F824
:10FF00005030012B00F0CE8004468846174601236E
:10FF100080F85030FEF76AFC814694F85130DEB22A
:10FF2000012B40F0AC804146002900F0A980002F51
:10FF300000F0A680032384F8513000236365C4F8E1
:10FF40003080A786E786A363A387E387636423647F
:10FF5000A368B3F5004F1DD023681A6812F0400F54
:10FF600003D11A6842F040021A60E368B3F5006FEB
:10FF70001BD063680BB1012F53D1226B2368127819
:10FF80001A73236B01332363E38E9BB2013B9BB255
:10FF9000E38646E02268136823F04003136022687A
:10FFA000136843F480431360D6E763680BB1012FF5
:10FFB00017D1226B23681288DA60236B0233236324
:10FFC000E38E9BB2013B9BB2E3860AE0FEF70EFC98
:10FFD0004B46C01AA84202D3B5F1FF3F5AD1002DBB
:10FFE0005AD0E38E9BB2002B34D023689A6812F06B
:10FFF000020FEBD0226B1288DA60236B023323638B
:020000040801F1
:10000000E38E9BB2013B9BB2E386EAE7FEF7EEFB91
:100010004B46C01AA84202D3B5F1FF3F3ED1002D96
:100020003ED0E38E9BB2ABB123689A6812F0020F08
:10003000ECD0226B12781A73236B01332363B4F86C
:1000400036C01FFA8CFC0CF1FF3C1FFA8CFCA4F8A4
:1000500036C0E6E74A4629462046FFF773FE08B158
:1000600020236365A36833B901932368DA6801929A
:100070009B680193019B636D13B91E4600E0022645
:10008000012384F85130002384F85030304603B007
:10009000BDE8F0830326F3E70326F1E70326EFE745
:1000A0000326EDE70226F1E72DE9F04383B004468D
:1000B0000A9D90F85000012800F018810F469146E3
:1000C0009846012384F85030FEF790FB064694F8DA
:1000D0005100C2B2636801280AD0B3F5827F40F0B4
:1000E000EB80A368002B40F0F180042A40F0F08000
:1000F000002F00F0EF804B46002B00F0ED804346D0
:10010000002B00F0EB8094F85130042B02D0052333
:1001100084F8513000236365C4F83890A4F83E8019
:10012000A4F83C802763A4F83680A4F834802364C4
:10013000636423681A6812F0400F03D11A6842F012
:1001400040021A60E368B3F5006F13D0636813B11F
:100150004346012B0BD1226B236812781A73236B51
:1001600001332363E38E9BB2013B9BB2E386012301
:100170001F466EE0636813B14346012B0BD1226B1F
:1001800023681288DA60236B02332363E38E9BB209
:10019000013B9BB2E38601231F461CE02268936863
:1001A00013F001030ED0E18F89B259B1D168A26B6F
:1001B0001180A26B0232A263E28F92B2013A92B234
:1001C000E2871F46FEF712FB801BA84203D3B5F15E
:1001D000FF3F40F08580E38E9BB21BB9E38F9BB25B
:1001E000002B55D023689A6812F0020FD6D0E28E09
:1001F00092B2002AD2D0002FD0D0226B1288DA60BF
:10020000236B02332363E38E9BB2013B9BB2E386F5
:1002100000231F46C2E72268936813F001030ED043
:10022000E18F89B259B1D168A26B1170A26B013212
:10023000A263E28F92B2013A92B2E2871F46FEF7C2
:10024000D5FA831BAB4202D3B5F1FF3F4AD1002D53
:100250004AD0E38E9BB213B9E38F9BB2C3B123683C
:100260009A6812F0020FD6D0E28E92B2002AD2D053
:10027000002FD0D0226B12781A73236B01332363C3
:10028000E38E9BB2013B9BB2E38600231F46C2E78D
:10029000324629462046FFF755FD48B9A36863B9A1
:1002A00001932368DA6801929B680193019B04E043
:1002B00020236365012000E00220012384F85130EF
:1002C000002384F8503003B0BDE8F0830220F4E747
:1002D0000220F2E70120F0E70120EEE70120ECE741
:1002E0000320EAE70320E8E70320E6E70220EAE745
:1002F0002DE9F04383B00446884691461D46436885
:10030000B3F5827F39D094F85030012B00F0B380E0
:10031000012384F85030FEF769FA074694F851300B
:10032000DAB21646012B40F08E804146002900F0DB
:100330008C804A46002A00F08880042384F85130DB
:1003400000236365C4F83880A4F83C90A4F83E907C
:100350002363A386E38623646364A368B3F5004F35
:1003600018D023681A6812F0400F03D11A6842F0BF
:1003700040021A60E36813B340E08368002BC2D1E7
:10038000042380F85130009513460A46FFF78CFE8F
:10039000064660E02268136823F040031360226879
:1003A000136823F480431360DBE7FEF71FFAC01BDA
:1003B000A84202D3B5F1FF3F51D1002D52D0E38FB7
:1003C0009BB2002B33D023689A6812F0010FECD057
:1003D000A26B1B7B1370A36B0133A363E38F9BB2F0
:1003E000013B9BB2E387EAE7FEF700FAC01BA84295
:1003F00002D3B5F1FF3F38D1002D39D0E38F9BB246
:10040000ABB123689A6812F0010FEDD0DA68A36BE4
:100410001A80A36B0233A363B4F83EC01FFA8CFCAE
:100420000CF1FF3C1FFA8CFCA4F83EC0E6E73A460C
:1004300029462046FFF7BAFC08B120236365636DA7
:100440001BB91E4601E002231E46012384F85130E9
:10045000002384F85030304603B0BDE8F083032316
:100460001E46F2E703231E46EFE703231E46ECE792
:1004700003231E46E9E702231E46ECE738B590F851
:100480005030012B61D00446012380F8503090F8A1
:100490005130DDB2012B52D1002951D0002A4FD06A
:1004A000032380F851300023436501638286C286AE
:1004B0008363436403648387C3878368B3F5004F12
:1004C0002AD0A36C224A1A64A36C224ADA63A36C72
:1004D000214ADA64A36C00221A652268E38E9BB27B
:1004E0000C32216BA06CFDF771FF0146F8B923684F
:1004F0001A6812F0400F03D11A6842F040021A60E5
:100500002268536843F0200353602268536843F025
:10051000020353600D4613E00268136823F04003A2
:1005200013600268136843F480431360C9E7636D86
:1005300043F010036365012384F8513000E0022585
:10054000002384F85030284638BD0225FBE700BF61
:100550005F0501088D0501086B050108704708B5A6
:10056000806BFFF7FBFF08BD704708B5806B026822
:10057000536823F003035360436D43F01003436556
:10058000012380F85130FFF7EFFF08BD30B583B08D
:100590000546846BFEF72AF92B681B6813F4807FED
:1005A00023D1024621684B6823F020034B60216869
:1005B0004B6823F002034B6064212046FFF7C2FB27
:1005C00018B1636D43F020036365A36833B90193E9
:1005D0002368DA6801929B680193019B0023E386FC
:1005E000012384F85130636D23B920460DF0D8FD06
:1005F00003B030BD2046FFF7B7FFF9E790F8510090
:100600007047026802F10C0353E8003F23F0C00377
:100610000C3242E800310029F3D1202380F83D302C
:100620007047026802F10C0353E8003F23F4907313
:100630000C3242E800310029F3D1026802F11403C0
:1006400053E8003F23F00103143242E8003100294F
:10065000F3D1036B012B05D0202380F83E3000231B
:1006600003637047026802F10C0353E8003F23F074
:1006700010030C3242E800310029F3D1ECE790F886
:100680003D30212B01D0022070478368B3F5805F95
:1006900017D0036A5A1C02621A7803685A60C38C26
:1006A0009BB2013B9BB2C3844BB90268D36823F071
:1006B0008003D3600268D36843F04003D360002016
:1006C00070470369002BE4D1036A1B880268C3F3F7
:1006D00008035360036A02330362E0E710B504467F
:1006E0000268136923F44053C1680B4313618368A4
:1006F00002691A4343691A43C3691A430168CB6804
:1007000023F4164323F00C031343CB6002685369B0
:1007100023F4407381690B4353610368314A934268
:1007200006D002F58062934202D0FDF73DFA01E067
:10073000FDF74AFAE369B3F5004F29D00021031809
:1007400049411B1841F10001C90041EA5371DB0026
:10075000181863684FEA83024FEA937341F100016E
:10076000FCF702FB204AA2FB00314909642303FB8A
:1007700011031B013233A2FB03235B0903F0F002D8
:1007800002EB011203F00F03216813448B6010BDCC
:100790000023021843EB0301121841F10001C900C4
:1007A00041EA5271D200101841F1000162689218BA
:1007B0005B41FCF7D9FA0C4AA2FB003149096423DA
:1007C00003FB1103DB003233A2FB03235B095A0056
:1007D00002F4F87202EB011203F0070321681344DC
:1007E0008B60D4E7001001401F85EB512DE9F041EB
:1007F00004460E4615469846069F23681B6836EA4F
:1008000003030CBF4FF0010C4FF0000CAC452AD194
:10081000B7F1FF3FF1D02FB1FDF7E8FF4346C01A13
:10082000B842EAD9226802F10C0353E8003F23F4EE
:10083000D0730C3242E800310029F3D1226802F172
:10084000140353E8003F23F00103143242E800315F
:100850000029F3D1202384F83D3084F83E3084F819
:100860003C10032000E00020BDE8F08158B310B533
:10087000044690F83D300BB3242384F83D302268C1
:10088000D36823F40053D3602046FFF727FF226884
:10089000136923F4904313612268536923F02A03F8
:1008A00053612268D36843F40053D360002020646E
:1008B000202384F83D3084F83E3010BD80F83C3071
:1008C00004F038F8D8E7012070472DE9F04184B0F2
:1008D0001E4690F83D30202B55D104460D46002988
:1008E00055D00392002A54D090F83C30012B52D0BE
:1008F000012380F83C3000230364212380F83D303D
:10090000FDF774FF0746039BA384E384A368B3F554
:10091000805F05D000239846002384F83C3014E023
:10092000236913B100239846F6E7A8461D46F3E76E
:10093000424632F8023B90462268C3F308035360F4
:10094000E28C92B2013A92B2E284E38C9BB273B130
:1009500000963B46002280212046FFF747FFE0B982
:10096000002DE5D015F8012B23685A60E8E70096C2
:100970003B46002240212046FFF738FF78B920236C
:1009800084F83D3000E0022004B0BDE8F081012091
:10099000FAE70120F8E70220F6E70320F4E7032056
:1009A000F2E710B5044603685B6990F83D20212A00
:1009B00009D023685B6903F0400394F83E20222AA3
:1009C00019D0002010BD03F08003002BF1D0226865
:1009D00002F1140353E8003F23F08003143242E88D
:1009E00000310029F3D1606B08B1FDF724FD2046EA
:1009F000FFF707FEDDE7002BE3D0226802F11403C6
:100A000053E8003F23F04003143242E8003100294C
:100A1000F3D1A06B08B1FDF70EFD2046FFF701FEF4
:100A2000CFE7704708B50168CA6822F04002CA6083
:100A3000202280F83D20FFF7F4FF002008BD70471A
:100A4000704710B5846B23685B6994F83D20212AB8
:100A50000FD023685B6903F0400394F83E20222AFC
:100A600011D0236C43F0100323642046FFF7E8FF06
:100A700010BD03F08003002BEBD00023E38420465D
:100A8000FFF7BFFDE5E7002BEBD00023E385204611
:100A9000FFF7C7FDE5E708B5806B0023C385C38476
:100AA000FFF7CEFF08BD90F83E30222B65D183685A
:100AB000B3F5805F4BD0826AB3F5805F04D0002B22
:100AC00052D10369002B4FD103685B681370836AAE
:100AD00001338362C38D9BB2013B9BB2C385002B64
:100AE0004DD100B583B00268D36823F02003D360F2
:100AF0000268D36823F48073D3600268536923F0DB
:100B000001035361202380F83E30036B012B31D168
:100B100000230363026802F10C0353E8003F23F053
:100B200010030C3242E800310029F3D103681A683F
:100B300012F0100F05D001911A6801925B680193C1
:100B4000019B818D0DF095FC002003B000BD026972
:100B5000002AB0D1826A03685B68C3F3080313807C
:100B6000836A02338362B5E703685B6803F07F033F
:100B70001370ACE70DF06CFCE6E702207047002034
:100B80007047000010B582B0044602681368D06850
:100B9000516913F00F0F09D113F0200F0CD010F092
:100BA000200F09D02046FFF77EFF16E011F001016B
:100BB00015D110F4907F12D1216B012979D013F057
:100BC000800F03D010F0800F40F00E8113F0400F23
:100BD00003D010F0400F40F00B8102B010BD13F0B5
:100BE000010F06D010F4807F03D0226C42F0010286
:100BF000226413F0040F04D019B1226C42F00202F7
:100C0000226413F0020F04D019B1226C42F00402E6
:100C1000226413F0080F07D010F0200F00D119B193
:100C2000226C42F008022264226C002AD5D013F014
:100C3000200F02D010F0200F29D123685B6903F048
:100C40004003226C12F0080F00D163B32046FFF777
:100C5000E8FC23685B6913F0400F20D0226802F1A2
:100C6000140353E8003F23F04003143242E80031FC
:100C70000029F3D1A36B73B15F4A1A65A06BFDF72E
:100C800024FC0028A9D0A06B036D9847A5E7204657
:100C9000FFF709FFD1E72046FFF7D2FE9DE7204688
:100CA000FFF7CEFE99E72046FFF7CAFE0023236434
:100CB00093E713F0100F82D010F0100F3FF47FAFC6
:100CC000002301931368019353680193019B5369B7
:100CD00013F0400F4FD0A26B13685B689BB2002BE0
:100CE0003FF47BAFA18D99427FF677AFE385D3695F
:100CF000B3F5807F36D0226802F10C0353E8003F41
:100D000023F480730C3242E800310029F3D12268C9
:100D100002F1140353E8003F23F00103143242E8C8
:100D200000310029F3D1226802F1140353E8003F97
:100D300023F04003143242E800310029F3D120238C
:100D400084F83E302163226802F10C0353E8003F2F
:100D500023F010030C3242E800310029F3D1A06BDC
:100D6000FDF769FBA18DE38D9BB2C91A89B22046BC
:100D70000DF07FFB31E7A18DE38D9BB2C91A89B2DB
:100D8000E38D9BB2002B3FF428AF00293FF425AF41
:100D9000226802F10C0353E8003F23F490730C32F5
:100DA00042E800300028F3D1226802F1140353E82E
:100DB000003F23F00103143242E800300028F3D151
:100DC000202384F83E302063226802F10C0353E8AC
:100DD000003F23F010030C3242E800300028F3D12A
:100DE00020460DF046FBF8E62046FFF748FCF4E607
:100DF0002046FFF717FEF0E6970A010808B5806B5A
:100E0000036B012B02D0FFF71AFE08BD818D490844
:100E10000DF02FFBF9E708B50346806B1B681B68D4
:100E200013F4807F2BD10023C385026802F10C03E9
:100E300053E8003F23F480730C3242E8003100296C
:100E4000F3D1026802F1140353E8003F23F00103D9
:100E5000143242E800310029F3D1026802F1140390
:100E600053E8003F23F04003143242E800310029E8
:100E7000F3D1202380F83E30036B012B05D0036BA8
:100E8000012B0FD00DF0E4FA08BD026802F10C034B
:100E900053E8003F23F010030C3242E800310029F0
:100EA000F3D1ECE7818D0DF0E4FAEDE78162828504
:100EB000C28500230364222280F83E2080F83C3063
:100EC000036923B10268D36843F48073D360026876
:100ED000536943F0010353610268D36843F0200370
:100EE000D3600020704708B590F83E30202B0DD11C
:100EF00071B17AB190F83C30012B0DD0012380F80C
:100F00003C3000230363FFF7D1FF00E0022008BD5F
:100F10000120FCE70120FAE70220F8E730B583B0B2
:100F2000044613468162828500250564222280F8EA
:100F30003E20826B2048D063A26B20481064A26BD5
:100F40001F48D064A26B156520680A46011DA06B7E
:100F5000FDF73CFA019523681A6801925B680193DA
:100F6000019B84F83C5023695BB1226802F10C03B9
:100F700053E8003F43F480730C3242E8003100290B
:100F8000F3D1226802F1140353E8003F43F0010358
:100F9000143242E800310029F3D1226802F114032F
:100FA00053E8003F43F04003143242E80031002987
:100FB000F3D1084603B030BD170E0108FD0D01083E
:100FC000430A010890F83E30202B29D110B582B099
:100FD000044639B342B390F83C30012B27D00123AB
:100FE00080F83C300363FFF799FFF0B9236B012BC6
:100FF00001D0012019E00023019323681A680192AF
:101000005B680193019B226802F10C0353E8003FE7
:1010100043F010030C3242E800310029F3D104E020
:1010200002207047012000E0012002B010BD022024
:10103000FBE70000014B1868704700BF380900202B
:1010400008B50C4A13680133136002F0C5F9436D0B
:10105000013B436513B102F035FE08BD036D4365E6
:1010600090F83C3043F0080380F83C3002F024F85C
:10107000F1E700BF3809002038B5FBF791F80446C6
:1010800001F02EF8F0B92046FBF78EF8FBF788F850
:101090000446134B1A689A421FD0114B1B681D4619
:1010A00055F81C195A684A60196811605B601B602A
:1010B000586901F0DDFC284601F08AFE2046FBF766
:1010C00073F8E3E7074D2946074801F0FDFA9B2234
:1010D0002946064801F00EFBD5E7FBF765F838BD59
:1010E000D40B0020D8BA0608B0C7050870CA050896
:1010F00010B50BE00134032C06D8054B53F824300F
:10110000002BF7D09847F5E7FFF7B6FF0024F2E78A
:101110003C09002070B588B000240CB108B070BD47
:1011200004AE22460E49304601F0C0FA94230D4D1C
:1011300003FB04550C4B03EB042320220392FF22F4
:1011400002924FF48072019200932346074A31467F
:10115000284602F00DF9284602F020FB0134DCE7B6
:10116000D8C70508500A002050090020F1100108D6
:1011700000487047500A002038B505460CE0FBF7E0
:101180000FF8044628684FF0FF33C3611C3802F0A3
:10119000BFFA2046FBF708F82B689D42EFD10020EC
:1011A00038BD70B505460C461646084602F016FADC
:1011B00066B1012E12D12B68AB4219D094F83D10C4
:1011C00093F8212091420BD31B68F5E704F11C032F
:1011D0006A6813606A6822626B60E561002070BD16
:1011E00004F11C0259680A60596821625A60E3617F
:1011F000AB42F3D104F11C036A6813606A6822628F
:101200006B60E561EAE70000F8B50E4615461F463B
:10121000044678B1B5F5803F12D23246022120460D
:1012200001F012FD04F11C032362E361A5846774DD
:101230000020F8BDD2220549054801F05BFAE9E734
:10124000D3220249034801F055FAE6E7CCBB060871
:10125000E0C70508F0C70508F8B506460C4617466E
:10126000FAF79EFF054600F03BFF98B92846FAF7CB
:101270009BFFB4F5803F18D23146022001F054FDA7
:10128000034628B100F11C020262C26184845F74CB
:101290001846F8BD0849094801F016FA40F20F1245
:1012A0000549074801F026FAE0E74FF48872024941
:1012B000044801F01FFADFE7BCBB0608B0C7050809
:1012C00070CA0508F0C70508F0B583B0019104465F
:1012D000002844D0204601F0C7FD022846D13E4BED
:1012E0001B680BB120469847FAF75AFF0746A38CB4
:1012F000002B42D1019B002B44D0FAF751FF054649
:1013000002F06AF8002842D0FAF74AFF064600F0D9
:10131000E7FE002846D13046FAF746FF2846FAF79E
:1013200043FF02F059F8054600238363627C0146BF
:1013300004F11C00FFF735FF019B002B3DDC384614
:10134000FAF732FF01F0B8FEA86B30B9234B1B68E7
:10135000002B3ED020469847002003B0F0BD4FF44C
:10136000A8721F491F4801F0C5F9B3E740F25112B6
:101370001B491D4801F0BEF9B1E7013BA384FAF710
:1013800013FFE3E7FAF710FF6FF00100E5E71449F8
:10139000164801F099F940F271121149144801F010
:1013A000A9F9B1E70E49134801F08EF940F2711224
:1013B0000B490F4801F09EF9ADE705F1580301AA6A
:1013C00000211E46184602F035FC304602F054FB60
:1013D000B5E71846C1E700BFC40B0020C00B0020D2
:1013E000B0BB0608E0C7050804C805087CC80508A6
:1013F00070CA0508B0C7050838B50446E0B12046F4
:1014000001F032FD02281ED11C4B1B680BB1204697
:101410009847FAF7C5FE054604F11C03E0698342CC
:1014200018D01C3802F074F901242846FAF7BCFEE3
:10143000012C1ED0204638BD40F2BD121049114883
:1014400001F058F9DBE74FF4DF720D490E4801F067
:1014500051F9D9E7A38C4FF6FF72934203D00133C1
:10146000A3840024E1E72846FAF79EFE6FF0020409
:10147000E0E701F021FE0024DCE700BFBC0B002008
:10148000A0BB0608E0C7050804C8050870B50546F6
:101490000E46FAF785FE044600F022FEC0B920464B
:1014A000FAF782FE2946032001F03EFC034668B1AC
:1014B00000F11C020262C261012282840022826267
:1014C000FF2180F8261080F827205E74184670BD32
:1014D0000549064801F0F8F840F262220249044842
:1014E00001F008F9DBE700BF90BB0608B0C70508AC
:1014F00070CA0508F0B583B004460191FAF750FEB2
:10150000054601F069FF002840D0FAF749FE06467B
:1015100000F0E6FD002844D13046FAF745FE2846A3
:10152000FAF742FE002C47D0204601F09DFC03282C
:1015300049D101F051FF0546FAF732FE07464C4B00
:101540001B680BB1204698470023AB63A06AA842F2
:1015500040D0A38C002B51D0013BA384A56295F809
:101560003D3084F8263094F82730FF2B40D00133EB
:1015700084F827303846FAF717FE3E4B1B68002BDD
:1015800073D020469847002003B0F0BD3A493B484D
:1015900001F09AF84FF429723749394801F0AAF856
:1015A000B3E73549374801F08FF84FF429723249D3
:1015B000334801F09FF8AFE740F2A7222E493248A6
:1015C00001F098F8B0E74FF42A722B492F4801F048
:1015D00091F8AEE794F82730FF2B03D0013384F85D
:1015E0002730C7E73846FAF7DFFD6FF00200CBE798
:1015F0003846FAF7D9FD6FF00200C5E7019BD3B179
:1016000095F83D2090F83D309A421CD3627C2946E3
:1016100004F11C00FFF7C5FD019B002B19DC3846C7
:10162000FAF7C2FD01F048FDA86B0028ACD1FAF72B
:10163000B7FD07469EE76FF00104AC633846FAF742
:10164000B3FD2046A0E705F13D02022102F0EEF8CD
:10165000DCE705F1580301AA00211E46184602F0F6
:10166000E9FA304602F008FAD9E718468CE700BFDD
:10167000C40B0020C00B002080BB06087CC80508F6
:1016800070CA0508B0C70508B4C80508C8C8050869
:1016900070B50446002851D0204601F0E5FB032830
:1016A00053D1FAF77DFD054601F096FE002853D090
:1016B000FAF776FD064600F013FD002857D13046B4
:1016C000FAF772FD2846FAF76FFD01F085FE054630
:1016D000FAF766FD0646424B1B680BB12046984759
:1016E000A06AA8424ED194F82730013BDBB284F8BF
:1016F0002730002B6DD194F8262090F83D309A4287
:1017000047D104F11C03E26993424ED0A2F11C00C0
:10171000A06292F8213084F8263094F82730FF2B0D
:101720003DD0013384F8273001F0F2FF0124304628
:10173000FAF73AFD012C4ED0204670BD40F24132FE
:101740002849294800F0D6FFA6E740F24232254951
:10175000264800F0CFFFA4E72249254800F0B4FF57
:1017600040F247321F49234800F0C4FFA0E71D495B
:10177000214800F0A9FF40F247321A491D4800F005
:10178000B9FF9CE74FF0FF34AC633046FAF70CFD2D
:10179000D2E704F12602022102F048F8B1E7304610
:1017A000FAF702FD6FF00204C6E7A38C4FF6FF7252
:1017B000934208D00133A3840023A362FF2284F85C
:1017C00026201C46B3E73046FAF7EEFC6FF0020421
:1017D000B2E70024ABE701F06FFC0024ACE700BFE8
:1017E000BC0B00206CBB0608B4C80508C8C80508B7
:1017F0007CC8050870CA0508B0C7050870B50D4655
:101800001646044660B12A460421204601F01CFA1F
:10181000667404F11C032362E3610020606270BD02
:1018200040F2CA320249034800F064FFEBE700BF10
:101830005CBB060840C9050810B5044688B12046BF
:1018400001F012FB042813D1204601F0F7FAB0B1E1
:1018500004F11C00FFF790FC204601F03FFA002045
:1018600010BD40F2E6320949094800F043FFE6E7BF
:1018700040F2E7320549074800F03CFFE4E74FF447
:101880007A720249044800F035FFE1E74CBB0608D4
:1018900040C9050854C9050898C9050870B505462A
:1018A0000E46FAF77DFC044600F01AFC88B9204683
:1018B000FAF77AFC2946042001F036FA034630B1E3
:1018C0005E7400F11C020262C2610022426218468C
:1018D00070BD0549054800F0F7FE40F2014202499B
:1018E000034800F007FFE2E73CBB0608B0C7050865
:1018F00070CA05082DE9F0410D460446C0B12046E6
:1019000001F0B2FA04281AD1002D58D0FAF748FC99
:101910008046636A2B4363622A4B1B680BB12046E7
:10192000984704F11C05E3699D420FD0002633E07F
:1019300040F242422449254800F0DCFEDFE740F255
:1019400043422149224800F0D5FEDDE7002640460B
:10195000FAF72AFC012E2ED03046BDE8F08112F0B5
:10196000020F12D0D96A676A394014D0D9621E6852
:1019700012F0040F04D0626ADB6A22EA0302626298
:1019800001F0C6FE3346012606E04046FAF70CFC9D
:101990006FF00906E0E71B689D42D8D0A3F11C0058
:1019A00093F8302012F0010FD9D0D96A676AB94391
:1019B000F1D11E68DCE701F07FFB0026CCE74FF099
:1019C000FF36C9E7BC0B00202CBB060840C9050840
:1019D00054C905082DE9F04182B004460E46174669
:1019E0000193FAF7DDFB054601F0F6FC002852D022
:1019F000FAF7D6FB804600F073FB002856D140462C
:101A0000FAF7D2FB2846FAF7CFFB002C59D0204634
:101A100001F02AFA04285BD1002E00F0938001F037
:101A2000DBFC054600238363484B1B680BB1204653
:101A30009847FAF7B5FB804617F0010F4FD0636A5D
:101A400036EA030351D0019B002B68D0AE6485F8C1
:101A50004C70627C294604F11C00FFF7A2FB019B3D
:101A6000002B64DC4046FAF79FFB01F025FBA86BD6
:101A700070B9FAF795FB089B13B1AB6C089A136029
:101A8000FAF792FB324B1B680BB120469847A86BC4
:101A900002B0BDE8F0812F492F4800F015FE40F25A
:101AA000AC422C492D4800F025FEA1E729492C48DD
:101AB00000F00AFE40F2AC422649284800F01AFE27
:101AC0009DE740F2AF422349264800F013FE9EE70F
:101AD0004FF496621F49244800F00CFE9CE717F073
